{
	"contracts/Qandeel.sol": {
		"QandellToken": {
			"abi": [
				{
					"inputs": [
						{
							"internalType": "string",
							"name": "name",
							"type": "string"
						},
						{
							"internalType": "string",
							"name": "symbol",
							"type": "string"
						}
					],
					"stateMutability": "nonpayable",
					"type": "constructor"
				},
				{
					"inputs": [
						{
							"internalType": "address",
							"name": "spender",
							"type": "address"
						},
						{
							"internalType": "uint256",
							"name": "allowance",
							"type": "uint256"
						},
						{
							"internalType": "uint256",
							"name": "needed",
							"type": "uint256"
						}
					],
					"name": "ERC20InsufficientAllowance",
					"type": "error"
				},
				{
					"inputs": [
						{
							"internalType": "address",
							"name": "sender",
							"type": "address"
						},
						{
							"internalType": "uint256",
							"name": "balance",
							"type": "uint256"
						},
						{
							"internalType": "uint256",
							"name": "needed",
							"type": "uint256"
						}
					],
					"name": "ERC20InsufficientBalance",
					"type": "error"
				},
				{
					"inputs": [
						{
							"internalType": "address",
							"name": "approver",
							"type": "address"
						}
					],
					"name": "ERC20InvalidApprover",
					"type": "error"
				},
				{
					"inputs": [
						{
							"internalType": "address",
							"name": "receiver",
							"type": "address"
						}
					],
					"name": "ERC20InvalidReceiver",
					"type": "error"
				},
				{
					"inputs": [
						{
							"internalType": "address",
							"name": "sender",
							"type": "address"
						}
					],
					"name": "ERC20InvalidSender",
					"type": "error"
				},
				{
					"inputs": [
						{
							"internalType": "address",
							"name": "spender",
							"type": "address"
						}
					],
					"name": "ERC20InvalidSpender",
					"type": "error"
				},
				{
					"inputs": [
						{
							"internalType": "address",
							"name": "owner",
							"type": "address"
						}
					],
					"name": "OwnableInvalidOwner",
					"type": "error"
				},
				{
					"inputs": [
						{
							"internalType": "address",
							"name": "account",
							"type": "address"
						}
					],
					"name": "OwnableUnauthorizedAccount",
					"type": "error"
				},
				{
					"anonymous": false,
					"inputs": [
						{
							"indexed": true,
							"internalType": "address",
							"name": "owner",
							"type": "address"
						},
						{
							"indexed": true,
							"internalType": "address",
							"name": "spender",
							"type": "address"
						},
						{
							"indexed": false,
							"internalType": "uint256",
							"name": "value",
							"type": "uint256"
						}
					],
					"name": "Approval",
					"type": "event"
				},
				{
					"anonymous": false,
					"inputs": [
						{
							"indexed": true,
							"internalType": "address",
							"name": "previousOwner",
							"type": "address"
						},
						{
							"indexed": true,
							"internalType": "address",
							"name": "newOwner",
							"type": "address"
						}
					],
					"name": "OwnershipTransferred",
					"type": "event"
				},
				{
					"anonymous": false,
					"inputs": [
						{
							"indexed": false,
							"internalType": "address",
							"name": "account",
							"type": "address"
						}
					],
					"name": "Paused",
					"type": "event"
				},
				{
					"anonymous": false,
					"inputs": [
						{
							"indexed": true,
							"internalType": "address",
							"name": "from",
							"type": "address"
						},
						{
							"indexed": false,
							"internalType": "uint256",
							"name": "amount",
							"type": "uint256"
						}
					],
					"name": "TaxCollected",
					"type": "event"
				},
				{
					"anonymous": false,
					"inputs": [
						{
							"indexed": false,
							"internalType": "uint256",
							"name": "newFee",
							"type": "uint256"
						}
					],
					"name": "TaxFeeChanged",
					"type": "event"
				},
				{
					"anonymous": false,
					"inputs": [
						{
							"indexed": true,
							"internalType": "address",
							"name": "newTaxWallet",
							"type": "address"
						}
					],
					"name": "TaxWalletChanged",
					"type": "event"
				},
				{
					"anonymous": false,
					"inputs": [
						{
							"indexed": true,
							"internalType": "address",
							"name": "from",
							"type": "address"
						},
						{
							"indexed": true,
							"internalType": "address",
							"name": "to",
							"type": "address"
						},
						{
							"indexed": false,
							"internalType": "uint256",
							"name": "value",
							"type": "uint256"
						}
					],
					"name": "Transfer",
					"type": "event"
				},
				{
					"anonymous": false,
					"inputs": [
						{
							"indexed": false,
							"internalType": "address",
							"name": "account",
							"type": "address"
						}
					],
					"name": "Unpaused",
					"type": "event"
				},
				{
					"inputs": [
						{
							"internalType": "address",
							"name": "owner",
							"type": "address"
						},
						{
							"internalType": "address",
							"name": "spender",
							"type": "address"
						}
					],
					"name": "allowance",
					"outputs": [
						{
							"internalType": "uint256",
							"name": "",
							"type": "uint256"
						}
					],
					"stateMutability": "view",
					"type": "function"
				},
				{
					"inputs": [
						{
							"internalType": "address",
							"name": "spender",
							"type": "address"
						},
						{
							"internalType": "uint256",
							"name": "value",
							"type": "uint256"
						}
					],
					"name": "approve",
					"outputs": [
						{
							"internalType": "bool",
							"name": "",
							"type": "bool"
						}
					],
					"stateMutability": "nonpayable",
					"type": "function"
				},
				{
					"inputs": [
						{
							"internalType": "address",
							"name": "account",
							"type": "address"
						}
					],
					"name": "balanceOf",
					"outputs": [
						{
							"internalType": "uint256",
							"name": "",
							"type": "uint256"
						}
					],
					"stateMutability": "view",
					"type": "function"
				},
				{
					"inputs": [],
					"name": "decimals",
					"outputs": [
						{
							"internalType": "uint8",
							"name": "",
							"type": "uint8"
						}
					],
					"stateMutability": "view",
					"type": "function"
				},
				{
					"inputs": [
						{
							"internalType": "address",
							"name": "to",
							"type": "address"
						},
						{
							"internalType": "uint256",
							"name": "amount",
							"type": "uint256"
						}
					],
					"name": "mint",
					"outputs": [],
					"stateMutability": "nonpayable",
					"type": "function"
				},
				{
					"inputs": [],
					"name": "name",
					"outputs": [
						{
							"internalType": "string",
							"name": "",
							"type": "string"
						}
					],
					"stateMutability": "view",
					"type": "function"
				},
				{
					"inputs": [],
					"name": "offContracts",
					"outputs": [],
					"stateMutability": "nonpayable",
					"type": "function"
				},
				{
					"inputs": [],
					"name": "onContracts",
					"outputs": [],
					"stateMutability": "nonpayable",
					"type": "function"
				},
				{
					"inputs": [],
					"name": "owner",
					"outputs": [
						{
							"internalType": "address",
							"name": "",
							"type": "address"
						}
					],
					"stateMutability": "view",
					"type": "function"
				},
				{
					"inputs": [],
					"name": "paused",
					"outputs": [
						{
							"internalType": "bool",
							"name": "",
							"type": "bool"
						}
					],
					"stateMutability": "view",
					"type": "function"
				},
				{
					"inputs": [],
					"name": "renounceOwnership",
					"outputs": [],
					"stateMutability": "nonpayable",
					"type": "function"
				},
				{
					"inputs": [
						{
							"internalType": "uint256",
							"name": "newFee",
							"type": "uint256"
						}
					],
					"name": "setTaxFee",
					"outputs": [],
					"stateMutability": "nonpayable",
					"type": "function"
				},
				{
					"inputs": [
						{
							"internalType": "address",
							"name": "newTaxWallet",
							"type": "address"
						}
					],
					"name": "setTaxWallet",
					"outputs": [],
					"stateMutability": "nonpayable",
					"type": "function"
				},
				{
					"inputs": [],
					"name": "symbol",
					"outputs": [
						{
							"internalType": "string",
							"name": "",
							"type": "string"
						}
					],
					"stateMutability": "view",
					"type": "function"
				},
				{
					"inputs": [],
					"name": "taxFee",
					"outputs": [
						{
							"internalType": "uint256",
							"name": "",
							"type": "uint256"
						}
					],
					"stateMutability": "view",
					"type": "function"
				},
				{
					"inputs": [],
					"name": "taxWallet",
					"outputs": [
						{
							"internalType": "address",
							"name": "",
							"type": "address"
						}
					],
					"stateMutability": "view",
					"type": "function"
				},
				{
					"inputs": [],
					"name": "totalSupply",
					"outputs": [
						{
							"internalType": "uint256",
							"name": "",
							"type": "uint256"
						}
					],
					"stateMutability": "view",
					"type": "function"
				},
				{
					"inputs": [
						{
							"internalType": "address",
							"name": "to",
							"type": "address"
						},
						{
							"internalType": "uint256",
							"name": "value",
							"type": "uint256"
						}
					],
					"name": "transfer",
					"outputs": [
						{
							"internalType": "bool",
							"name": "",
							"type": "bool"
						}
					],
					"stateMutability": "nonpayable",
					"type": "function"
				},
				{
					"inputs": [
						{
							"internalType": "address",
							"name": "from",
							"type": "address"
						},
						{
							"internalType": "address",
							"name": "to",
							"type": "address"
						},
						{
							"internalType": "uint256",
							"name": "value",
							"type": "uint256"
						}
					],
					"name": "transferFrom",
					"outputs": [
						{
							"internalType": "bool",
							"name": "",
							"type": "bool"
						}
					],
					"stateMutability": "nonpayable",
					"type": "function"
				},
				{
					"inputs": [
						{
							"internalType": "address",
							"name": "newOwner",
							"type": "address"
						}
					],
					"name": "transferOwnership",
					"outputs": [],
					"stateMutability": "nonpayable",
					"type": "function"
				}
			],
			"devdoc": {
				"errors": {
					"ERC20InsufficientAllowance(address,uint256,uint256)": [
						{
							"details": "Indicates a failure with the `spender`’s `allowance`. Used in transfers.",
							"params": {
								"allowance": "Amount of tokens a `spender` is allowed to operate with.",
								"needed": "Minimum amount required to perform a transfer.",
								"spender": "Address that may be allowed to operate on tokens without being their owner."
							}
						}
					],
					"ERC20InsufficientBalance(address,uint256,uint256)": [
						{
							"details": "Indicates an error related to the current `balance` of a `sender`. Used in transfers.",
							"params": {
								"balance": "Current balance for the interacting account.",
								"needed": "Minimum amount required to perform a transfer.",
								"sender": "Address whose tokens are being transferred."
							}
						}
					],
					"ERC20InvalidApprover(address)": [
						{
							"details": "Indicates a failure with the `approver` of a token to be approved. Used in approvals.",
							"params": {
								"approver": "Address initiating an approval operation."
							}
						}
					],
					"ERC20InvalidReceiver(address)": [
						{
							"details": "Indicates a failure with the token `receiver`. Used in transfers.",
							"params": {
								"receiver": "Address to which tokens are being transferred."
							}
						}
					],
					"ERC20InvalidSender(address)": [
						{
							"details": "Indicates a failure with the token `sender`. Used in transfers.",
							"params": {
								"sender": "Address whose tokens are being transferred."
							}
						}
					],
					"ERC20InvalidSpender(address)": [
						{
							"details": "Indicates a failure with the `spender` to be approved. Used in approvals.",
							"params": {
								"spender": "Address that may be allowed to operate on tokens without being their owner."
							}
						}
					],
					"OwnableInvalidOwner(address)": [
						{
							"details": "The owner is not a valid owner account. (eg. `address(0)`)"
						}
					],
					"OwnableUnauthorizedAccount(address)": [
						{
							"details": "The caller account is not authorized to perform an operation."
						}
					]
				},
				"events": {
					"Approval(address,address,uint256)": {
						"details": "Emitted when the allowance of a `spender` for an `owner` is set by a call to {approve}. `value` is the new allowance."
					},
					"Paused(address)": {
						"details": "Emitted when the pause is triggered by `account`."
					},
					"Transfer(address,address,uint256)": {
						"details": "Emitted when `value` tokens are moved from one account (`from`) to another (`to`). Note that `value` may be zero."
					},
					"Unpaused(address)": {
						"details": "Emitted when the pause is lifted by `account`."
					}
				},
				"kind": "dev",
				"methods": {
					"allowance(address,address)": {
						"details": "Returns the remaining number of tokens that `spender` will be allowed to spend on behalf of `owner` through {transferFrom}. This is zero by default. This value changes when {approve} or {transferFrom} are called."
					},
					"approve(address,uint256)": {
						"details": "See {IERC20-approve}. NOTE: If `value` is the maximum `uint256`, the allowance is not updated on `transferFrom`. This is semantically equivalent to an infinite approval. Requirements: - `spender` cannot be the zero address."
					},
					"balanceOf(address)": {
						"details": "Returns the value of tokens owned by `account`."
					},
					"decimals()": {
						"details": "Returns the number of decimals used to get its user representation. For example, if `decimals` equals `2`, a balance of `505` tokens should be displayed to a user as `5.05` (`505 / 10 ** 2`). Tokens usually opt for a value of 18, imitating the relationship between Ether and Wei. This is the default value returned by this function, unless it's overridden. NOTE: This information is only used for _display_ purposes: it in no way affects any of the arithmetic of the contract, including {IERC20-balanceOf} and {IERC20-transfer}."
					},
					"name()": {
						"details": "Returns the name of the token."
					},
					"owner()": {
						"details": "Returns the address of the current owner."
					},
					"paused()": {
						"details": "Returns true if the contract is paused, and false otherwise."
					},
					"renounceOwnership()": {
						"details": "Leaves the contract without owner. It will not be possible to call `onlyOwner` functions. Can only be called by the current owner. NOTE: Renouncing ownership will leave the contract without an owner, thereby disabling any functionality that is only available to the owner."
					},
					"symbol()": {
						"details": "Returns the symbol of the token, usually a shorter version of the name."
					},
					"totalSupply()": {
						"details": "Returns the value of tokens in existence."
					},
					"transfer(address,uint256)": {
						"details": "See {IERC20-transfer}. Requirements: - `to` cannot be the zero address. - the caller must have a balance of at least `value`."
					},
					"transferFrom(address,address,uint256)": {
						"details": "See {IERC20-transferFrom}. Skips emitting an {Approval} event indicating an allowance update. This is not required by the ERC. See {xref-ERC20-_approve-address-address-uint256-bool-}[_approve]. NOTE: Does not update the allowance if the current allowance is the maximum `uint256`. Requirements: - `from` and `to` cannot be the zero address. - `from` must have a balance of at least `value`. - the caller must have allowance for ``from``'s tokens of at least `value`."
					},
					"transferOwnership(address)": {
						"details": "Transfers ownership of the contract to a new account (`newOwner`). Can only be called by the current owner."
					}
				},
				"version": 1
			},
			"evm": {
				"assembly": "    /* \"contracts/Qandeel.sol\":311:2509  contract QandellToken is ERC20, Ownable, Pausable {... */\n  mstore(0x40, 0x80)\n    /* \"contracts/Qandeel.sol\":634:635  5 */\n  0x05\n    /* \"contracts/Qandeel.sol\":610:635  uint256 public taxFee = 5 */\n  0x06\n  sstore\n    /* \"contracts/Qandeel.sol\":791:1062  constructor(string memory name, string memory symbol) ... */\n  callvalue\n  dup1\n  iszero\n  tag_1\n  jumpi\n  revert(0x00, 0x00)\ntag_1:\n  pop\n  mload(0x40)\n  sub(codesize, bytecodeSize)\n  dup1\n  bytecodeSize\n  dup4\n  codecopy\n  dup2\n  dup2\n  add\n  0x40\n  mstore\n  dup2\n  add\n  swap1\n  tag_2\n  swap2\n  swap1\n  tag_3\n  jump\t// in\ntag_2:\n    /* \"contracts/Qandeel.sol\":893:903  msg.sender */\n  caller\n    /* \"contracts/Qandeel.sol\":861:865  name */\n  dup3\n    /* \"contracts/Qandeel.sol\":867:873  symbol */\n  dup3\n    /* \"@openzeppelin/contracts/token/ERC20/ERC20.sol\":1656:1661  name_ */\n  dup2\n    /* \"@openzeppelin/contracts/token/ERC20/ERC20.sol\":1648:1653  _name */\n  0x03\n    /* \"@openzeppelin/contracts/token/ERC20/ERC20.sol\":1648:1661  _name = name_ */\n  swap1\n  dup2\n  tag_9\n  swap2\n  swap1\n  tag_10\n  jump\t// in\ntag_9:\n  pop\n    /* \"@openzeppelin/contracts/token/ERC20/ERC20.sol\":1681:1688  symbol_ */\n  dup1\n    /* \"@openzeppelin/contracts/token/ERC20/ERC20.sol\":1671:1678  _symbol */\n  0x04\n    /* \"@openzeppelin/contracts/token/ERC20/ERC20.sol\":1671:1688  _symbol = symbol_ */\n  swap1\n  dup2\n  tag_11\n  swap2\n  swap1\n  tag_10\n  jump\t// in\ntag_11:\n  pop\n    /* \"@openzeppelin/contracts/token/ERC20/ERC20.sol\":1582:1695  constructor(string memory name_, string memory symbol_) {... */\n  pop\n  pop\n    /* \"@openzeppelin/contracts/access/Ownable.sol\":1297:1298  0 */\n  0x00\n    /* \"@openzeppelin/contracts/access/Ownable.sol\":1273:1299  initialOwner == address(0) */\n  0xffffffffffffffffffffffffffffffffffffffff\n  and\n    /* \"@openzeppelin/contracts/access/Ownable.sol\":1273:1285  initialOwner */\n  dup2\n    /* \"@openzeppelin/contracts/access/Ownable.sol\":1273:1299  initialOwner == address(0) */\n  0xffffffffffffffffffffffffffffffffffffffff\n  and\n  sub\n    /* \"@openzeppelin/contracts/access/Ownable.sol\":1269:1364  if (initialOwner == address(0)) {... */\n  tag_13\n  jumpi\n    /* \"@openzeppelin/contracts/access/Ownable.sol\":1350:1351  0 */\n  0x00\n    /* \"@openzeppelin/contracts/access/Ownable.sol\":1322:1353  OwnableInvalidOwner(address(0)) */\n  mload(0x40)\n  0x1e4fbdf700000000000000000000000000000000000000000000000000000000\n  dup2\n  mstore\n  0x04\n  add\n  tag_14\n  swap2\n  swap1\n  tag_15\n  jump\t// in\ntag_14:\n  mload(0x40)\n  dup1\n  swap2\n  sub\n  swap1\n  revert\n    /* \"@openzeppelin/contracts/access/Ownable.sol\":1269:1364  if (initialOwner == address(0)) {... */\ntag_13:\n    /* \"@openzeppelin/contracts/access/Ownable.sol\":1373:1405  _transferOwnership(initialOwner) */\n  tag_16\n    /* \"@openzeppelin/contracts/access/Ownable.sol\":1392:1404  initialOwner */\n  dup2\n    /* \"@openzeppelin/contracts/access/Ownable.sol\":1373:1391  _transferOwnership */\n  shl(0x20, tag_17)\n    /* \"@openzeppelin/contracts/access/Ownable.sol\":1373:1405  _transferOwnership(initialOwner) */\n  0x20\n  shr\n  jump\t// in\ntag_16:\n    /* \"@openzeppelin/contracts/access/Ownable.sol\":1225:1412  constructor(address initialOwner) {... */\n  pop\n    /* \"@openzeppelin/contracts/security/Pausable.sol\":1006:1011  false */\n  0x00\n    /* \"@openzeppelin/contracts/security/Pausable.sol\":996:1003  _paused */\n  0x05\n  0x14\n    /* \"@openzeppelin/contracts/security/Pausable.sol\":996:1011  _paused = false */\n  0x0100\n  exp\n  dup2\n  sload\n  dup2\n  0xff\n  mul\n  not\n  and\n  swap1\n  dup4\n  iszero\n  iszero\n  mul\n  or\n  swap1\n  sstore\n  pop\n    /* \"contracts/Qandeel.sol\":933:943  msg.sender */\n  caller\n    /* \"contracts/Qandeel.sol\":921:930  taxWallet */\n  0x07\n  0x00\n    /* \"contracts/Qandeel.sol\":921:943  taxWallet = msg.sender */\n  0x0100\n  exp\n  dup2\n  sload\n  dup2\n  0xffffffffffffffffffffffffffffffffffffffff\n  mul\n  not\n  and\n  swap1\n  dup4\n  0xffffffffffffffffffffffffffffffffffffffff\n  and\n  mul\n  or\n  swap1\n  sstore\n  pop\n    /* \"contracts/Qandeel.sol\":989:1035  _mint(msg.sender, 10000000 * 10 ** decimals()) */\n  tag_20\n    /* \"contracts/Qandeel.sol\":995:1005  msg.sender */\n  caller\n    /* \"contracts/Qandeel.sol\":1024:1034  decimals() */\n  tag_21\n    /* \"contracts/Qandeel.sol\":1024:1032  decimals */\n  shl(0x20, tag_22)\n    /* \"contracts/Qandeel.sol\":1024:1034  decimals() */\n  0x20\n  shr\n  jump\t// in\ntag_21:\n    /* \"contracts/Qandeel.sol\":1018:1020  10 */\n  0x0a\n    /* \"contracts/Qandeel.sol\":1018:1034  10 ** decimals() */\n  tag_23\n  swap2\n  swap1\n  tag_24\n  jump\t// in\ntag_23:\n    /* \"contracts/Qandeel.sol\":1007:1015  10000000 */\n  0x989680\n    /* \"contracts/Qandeel.sol\":1007:1034  10000000 * 10 ** decimals() */\n  tag_25\n  swap2\n  swap1\n  tag_26\n  jump\t// in\ntag_25:\n    /* \"contracts/Qandeel.sol\":989:994  _mint */\n  shl(0x20, tag_27)\n    /* \"contracts/Qandeel.sol\":989:1035  _mint(msg.sender, 10000000 * 10 ** decimals()) */\n  0x20\n  shr\n  jump\t// in\ntag_20:\n    /* \"contracts/Qandeel.sol\":791:1062  constructor(string memory name, string memory symbol) ... */\n  pop\n  pop\n    /* \"contracts/Qandeel.sol\":311:2509  contract QandellToken is ERC20, Ownable, Pausable {... */\n  jump(tag_28)\n    /* \"@openzeppelin/contracts/access/Ownable.sol\":2912:3099  function _transferOwnership(address newOwner) internal virtual {... */\ntag_17:\n    /* \"@openzeppelin/contracts/access/Ownable.sol\":2985:3001  address oldOwner */\n  0x00\n    /* \"@openzeppelin/contracts/access/Ownable.sol\":3004:3010  _owner */\n  0x05\n  0x00\n  swap1\n  sload\n  swap1\n  0x0100\n  exp\n  swap1\n  div\n  0xffffffffffffffffffffffffffffffffffffffff\n  and\n    /* \"@openzeppelin/contracts/access/Ownable.sol\":2985:3010  address oldOwner = _owner */\n  swap1\n  pop\n    /* \"@openzeppelin/contracts/access/Ownable.sol\":3029:3037  newOwner */\n  dup2\n    /* \"@openzeppelin/contracts/access/Ownable.sol\":3020:3026  _owner */\n  0x05\n  0x00\n    /* \"@openzeppelin/contracts/access/Ownable.sol\":3020:3037  _owner = newOwner */\n  0x0100\n  exp\n  dup2\n  sload\n  dup2\n  0xffffffffffffffffffffffffffffffffffffffff\n  mul\n  not\n  and\n  swap1\n  dup4\n  0xffffffffffffffffffffffffffffffffffffffff\n  and\n  mul\n  or\n  swap1\n  sstore\n  pop\n    /* \"@openzeppelin/contracts/access/Ownable.sol\":3083:3091  newOwner */\n  dup2\n    /* \"@openzeppelin/contracts/access/Ownable.sol\":3052:3092  OwnershipTransferred(oldOwner, newOwner) */\n  0xffffffffffffffffffffffffffffffffffffffff\n  and\n    /* \"@openzeppelin/contracts/access/Ownable.sol\":3073:3081  oldOwner */\n  dup2\n    /* \"@openzeppelin/contracts/access/Ownable.sol\":3052:3092  OwnershipTransferred(oldOwner, newOwner) */\n  0xffffffffffffffffffffffffffffffffffffffff\n  and\n  0x8be0079c531659141344cd1fd0a4f28419497f9722a3daafe3b4186f6b6457e0\n  mload(0x40)\n  mload(0x40)\n  dup1\n  swap2\n  sub\n  swap1\n  log3\n    /* \"@openzeppelin/contracts/access/Ownable.sol\":2975:3099  {... */\n  pop\n    /* \"@openzeppelin/contracts/access/Ownable.sol\":2912:3099  function _transferOwnership(address newOwner) internal virtual {... */\n  pop\n  jump\t// out\n    /* \"@openzeppelin/contracts/token/ERC20/ERC20.sol\":2688:2770  function decimals() public view virtual returns (uint8) {... */\ntag_22:\n    /* \"@openzeppelin/contracts/token/ERC20/ERC20.sol\":2737:2742  uint8 */\n  0x00\n    /* \"@openzeppelin/contracts/token/ERC20/ERC20.sol\":2761:2763  18 */\n  0x12\n    /* \"@openzeppelin/contracts/token/ERC20/ERC20.sol\":2754:2763  return 18 */\n  swap1\n  pop\n    /* \"@openzeppelin/contracts/token/ERC20/ERC20.sol\":2688:2770  function decimals() public view virtual returns (uint8) {... */\n  swap1\n  jump\t// out\n    /* \"@openzeppelin/contracts/token/ERC20/ERC20.sol\":7362:7570  function _mint(address account, uint256 value) internal {... */\ntag_27:\n    /* \"@openzeppelin/contracts/token/ERC20/ERC20.sol\":7451:7452  0 */\n  0x00\n    /* \"@openzeppelin/contracts/token/ERC20/ERC20.sol\":7432:7453  account == address(0) */\n  0xffffffffffffffffffffffffffffffffffffffff\n  and\n    /* \"@openzeppelin/contracts/token/ERC20/ERC20.sol\":7432:7439  account */\n  dup3\n    /* \"@openzeppelin/contracts/token/ERC20/ERC20.sol\":7432:7453  account == address(0) */\n  0xffffffffffffffffffffffffffffffffffffffff\n  and\n  sub\n    /* \"@openzeppelin/contracts/token/ERC20/ERC20.sol\":7428:7519  if (account == address(0)) {... */\n  tag_32\n  jumpi\n    /* \"@openzeppelin/contracts/token/ERC20/ERC20.sol\":7505:7506  0 */\n  0x00\n    /* \"@openzeppelin/contracts/token/ERC20/ERC20.sol\":7476:7508  ERC20InvalidReceiver(address(0)) */\n  mload(0x40)\n  0xec442f0500000000000000000000000000000000000000000000000000000000\n  dup2\n  mstore\n  0x04\n  add\n  tag_33\n  swap2\n  swap1\n  tag_15\n  jump\t// in\ntag_33:\n  mload(0x40)\n  dup1\n  swap2\n  sub\n  swap1\n  revert\n    /* \"@openzeppelin/contracts/token/ERC20/ERC20.sol\":7428:7519  if (account == address(0)) {... */\ntag_32:\n    /* \"@openzeppelin/contracts/token/ERC20/ERC20.sol\":7528:7563  _update(address(0), account, value) */\n  tag_34\n    /* \"@openzeppelin/contracts/token/ERC20/ERC20.sol\":7544:7545  0 */\n  0x00\n    /* \"@openzeppelin/contracts/token/ERC20/ERC20.sol\":7548:7555  account */\n  dup4\n    /* \"@openzeppelin/contracts/token/ERC20/ERC20.sol\":7557:7562  value */\n  dup4\n    /* \"@openzeppelin/contracts/token/ERC20/ERC20.sol\":7528:7535  _update */\n  shl(0x20, tag_35)\n    /* \"@openzeppelin/contracts/token/ERC20/ERC20.sol\":7528:7563  _update(address(0), account, value) */\n  0x20\n  shr\n  jump\t// in\ntag_34:\n    /* \"@openzeppelin/contracts/token/ERC20/ERC20.sol\":7362:7570  function _mint(address account, uint256 value) internal {... */\n  pop\n  pop\n  jump\t// out\n    /* \"contracts/Qandeel.sol\":1108:1748  function _update(address from, address to, uint256 value) internal override whenNotPaused {... */\ntag_35:\n    /* \"@openzeppelin/contracts/security/Pausable.sol\":1239:1258  _requireNotPaused() */\n  tag_37\n    /* \"@openzeppelin/contracts/security/Pausable.sol\":1239:1256  _requireNotPaused */\n  shl(0x20, tag_38)\n    /* \"@openzeppelin/contracts/security/Pausable.sol\":1239:1258  _requireNotPaused() */\n  0x20\n  shr\n  jump\t// in\ntag_37:\n    /* \"contracts/Qandeel.sol\":1308:1309  0 */\n  0x00\n    /* \"contracts/Qandeel.sol\":1292:1310  from != address(0) */\n  0xffffffffffffffffffffffffffffffffffffffff\n  and\n    /* \"contracts/Qandeel.sol\":1292:1296  from */\n  dup4\n    /* \"contracts/Qandeel.sol\":1292:1310  from != address(0) */\n  0xffffffffffffffffffffffffffffffffffffffff\n  and\n  eq\n  iszero\n    /* \"contracts/Qandeel.sol\":1292:1330  from != address(0) && to != address(0) */\n  dup1\n  iszero\n  tag_40\n  jumpi\n  pop\n    /* \"contracts/Qandeel.sol\":1328:1329  0 */\n  0x00\n    /* \"contracts/Qandeel.sol\":1314:1330  to != address(0) */\n  0xffffffffffffffffffffffffffffffffffffffff\n  and\n    /* \"contracts/Qandeel.sol\":1314:1316  to */\n  dup3\n    /* \"contracts/Qandeel.sol\":1314:1330  to != address(0) */\n  0xffffffffffffffffffffffffffffffffffffffff\n  and\n  eq\n  iszero\n    /* \"contracts/Qandeel.sol\":1292:1330  from != address(0) && to != address(0) */\ntag_40:\n    /* \"contracts/Qandeel.sol\":1292:1349  from != address(0) && to != address(0) && from != owner() */\n  dup1\n  iszero\n  tag_41\n  jumpi\n  pop\n    /* \"contracts/Qandeel.sol\":1342:1349  owner() */\n  tag_42\n    /* \"contracts/Qandeel.sol\":1342:1347  owner */\n  shl(0x20, tag_43)\n    /* \"contracts/Qandeel.sol\":1342:1349  owner() */\n  0x20\n  shr\n  jump\t// in\ntag_42:\n    /* \"contracts/Qandeel.sol\":1334:1349  from != owner() */\n  0xffffffffffffffffffffffffffffffffffffffff\n  and\n    /* \"contracts/Qandeel.sol\":1334:1338  from */\n  dup4\n    /* \"contracts/Qandeel.sol\":1334:1349  from != owner() */\n  0xffffffffffffffffffffffffffffffffffffffff\n  and\n  eq\n  iszero\n    /* \"contracts/Qandeel.sol\":1292:1349  from != address(0) && to != address(0) && from != owner() */\ntag_41:\n    /* \"contracts/Qandeel.sol\":1288:1741  if (from != address(0) && to != address(0) && from != owner()) {... */\n  iszero\n  tag_44\n  jumpi\n    /* \"contracts/Qandeel.sol\":1380:1391  uint256 tax */\n  0x00\n    /* \"contracts/Qandeel.sol\":1413:1416  100 */\n  0x64\n    /* \"contracts/Qandeel.sol\":1403:1409  taxFee */\n  sload(0x06)\n    /* \"contracts/Qandeel.sol\":1395:1400  value */\n  dup4\n    /* \"contracts/Qandeel.sol\":1395:1409  value * taxFee */\n  tag_45\n  swap2\n  swap1\n  tag_26\n  jump\t// in\ntag_45:\n    /* \"contracts/Qandeel.sol\":1394:1416  (value * taxFee) / 100 */\n  tag_46\n  swap2\n  swap1\n  tag_47\n  jump\t// in\ntag_46:\n    /* \"contracts/Qandeel.sol\":1380:1416  uint256 tax = (value * taxFee) / 100 */\n  swap1\n  pop\n    /* \"contracts/Qandeel.sol\":1437:1455  uint256 sendAmount */\n  0x00\n    /* \"contracts/Qandeel.sol\":1466:1469  tax */\n  dup2\n    /* \"contracts/Qandeel.sol\":1458:1463  value */\n  dup4\n    /* \"contracts/Qandeel.sol\":1458:1469  value - tax */\n  tag_48\n  swap2\n  swap1\n  tag_49\n  jump\t// in\ntag_48:\n    /* \"contracts/Qandeel.sol\":1437:1469  uint256 sendAmount = value - tax */\n  swap1\n  pop\n    /* \"contracts/Qandeel.sol\":1501:1536  super._update(from, taxWallet, tax) */\n  tag_50\n    /* \"contracts/Qandeel.sol\":1515:1519  from */\n  dup6\n    /* \"contracts/Qandeel.sol\":1521:1530  taxWallet */\n  0x07\n  0x00\n  swap1\n  sload\n  swap1\n  0x0100\n  exp\n  swap1\n  div\n  0xffffffffffffffffffffffffffffffffffffffff\n  and\n    /* \"contracts/Qandeel.sol\":1532:1535  tax */\n  dup5\n    /* \"contracts/Qandeel.sol\":1501:1514  super._update */\n  shl(0x20, tag_51)\n    /* \"contracts/Qandeel.sol\":1501:1536  super._update(from, taxWallet, tax) */\n  0x20\n  shr\n  jump\t// in\ntag_50:\n    /* \"contracts/Qandeel.sol\":1552:1587  super._update(from, to, sendAmount) */\n  tag_52\n    /* \"contracts/Qandeel.sol\":1566:1570  from */\n  dup6\n    /* \"contracts/Qandeel.sol\":1572:1574  to */\n  dup6\n    /* \"contracts/Qandeel.sol\":1576:1586  sendAmount */\n  dup4\n    /* \"contracts/Qandeel.sol\":1552:1565  super._update */\n  shl(0x20, tag_51)\n    /* \"contracts/Qandeel.sol\":1552:1587  super._update(from, to, sendAmount) */\n  0x20\n  shr\n  jump\t// in\ntag_52:\n    /* \"contracts/Qandeel.sol\":1635:1639  from */\n  dup5\n    /* \"contracts/Qandeel.sol\":1622:1645  TaxCollected(from, tax) */\n  0xffffffffffffffffffffffffffffffffffffffff\n  and\n  0x7f1b726f82f7a14636a7a5932448f1bce683188520ba3150fd8423989353ebf2\n    /* \"contracts/Qandeel.sol\":1641:1644  tax */\n  dup4\n    /* \"contracts/Qandeel.sol\":1622:1645  TaxCollected(from, tax) */\n  mload(0x40)\n  tag_53\n  swap2\n  swap1\n  tag_54\n  jump\t// in\ntag_53:\n  mload(0x40)\n  dup1\n  swap2\n  sub\n  swap1\n  log2\n    /* \"contracts/Qandeel.sol\":1351:1678  {... */\n  pop\n  pop\n    /* \"contracts/Qandeel.sol\":1288:1741  if (from != address(0) && to != address(0) && from != owner()) {... */\n  jump(tag_55)\ntag_44:\n    /* \"contracts/Qandeel.sol\":1699:1729  super._update(from, to, value) */\n  tag_56\n    /* \"contracts/Qandeel.sol\":1713:1717  from */\n  dup4\n    /* \"contracts/Qandeel.sol\":1719:1721  to */\n  dup4\n    /* \"contracts/Qandeel.sol\":1723:1728  value */\n  dup4\n    /* \"contracts/Qandeel.sol\":1699:1712  super._update */\n  shl(0x20, tag_51)\n    /* \"contracts/Qandeel.sol\":1699:1729  super._update(from, to, value) */\n  0x20\n  shr\n  jump\t// in\ntag_56:\n    /* \"contracts/Qandeel.sol\":1288:1741  if (from != address(0) && to != address(0) && from != owner()) {... */\ntag_55:\n    /* \"contracts/Qandeel.sol\":1108:1748  function _update(address from, address to, uint256 value) internal override whenNotPaused {... */\n  pop\n  pop\n  pop\n  jump\t// out\n    /* \"@openzeppelin/contracts/security/Pausable.sol\":1767:1873  function _requireNotPaused() internal view virtual {... */\ntag_38:\n    /* \"@openzeppelin/contracts/security/Pausable.sol\":1837:1845  paused() */\n  tag_58\n    /* \"@openzeppelin/contracts/security/Pausable.sol\":1837:1843  paused */\n  shl(0x20, tag_59)\n    /* \"@openzeppelin/contracts/security/Pausable.sol\":1837:1845  paused() */\n  0x20\n  shr\n  jump\t// in\ntag_58:\n    /* \"@openzeppelin/contracts/security/Pausable.sol\":1836:1845  !paused() */\n  iszero\n    /* \"@openzeppelin/contracts/security/Pausable.sol\":1828:1866  require(!paused(), \"Pausable: paused\") */\n  tag_60\n  jumpi\n  mload(0x40)\n  0x08c379a000000000000000000000000000000000000000000000000000000000\n  dup2\n  mstore\n  0x04\n  add\n  tag_61\n  swap1\n  tag_62\n  jump\t// in\ntag_61:\n  mload(0x40)\n  dup1\n  swap2\n  sub\n  swap1\n  revert\ntag_60:\n    /* \"@openzeppelin/contracts/security/Pausable.sol\":1767:1873  function _requireNotPaused() internal view virtual {... */\n  jump\t// out\n    /* \"@openzeppelin/contracts/access/Ownable.sol\":1638:1723  function owner() public view virtual returns (address) {... */\ntag_43:\n    /* \"@openzeppelin/contracts/access/Ownable.sol\":1684:1691  address */\n  0x00\n    /* \"@openzeppelin/contracts/access/Ownable.sol\":1710:1716  _owner */\n  0x05\n  0x00\n  swap1\n  sload\n  swap1\n  0x0100\n  exp\n  swap1\n  div\n  0xffffffffffffffffffffffffffffffffffffffff\n  and\n    /* \"@openzeppelin/contracts/access/Ownable.sol\":1703:1716  return _owner */\n  swap1\n  pop\n    /* \"@openzeppelin/contracts/access/Ownable.sol\":1638:1723  function owner() public view virtual returns (address) {... */\n  swap1\n  jump\t// out\n    /* \"@openzeppelin/contracts/token/ERC20/ERC20.sol\":5912:7019  function _update(address from, address to, uint256 value) internal virtual {... */\ntag_51:\n    /* \"@openzeppelin/contracts/token/ERC20/ERC20.sol\":6017:6018  0 */\n  0x00\n    /* \"@openzeppelin/contracts/token/ERC20/ERC20.sol\":6001:6019  from == address(0) */\n  0xffffffffffffffffffffffffffffffffffffffff\n  and\n    /* \"@openzeppelin/contracts/token/ERC20/ERC20.sol\":6001:6005  from */\n  dup4\n    /* \"@openzeppelin/contracts/token/ERC20/ERC20.sol\":6001:6019  from == address(0) */\n  0xffffffffffffffffffffffffffffffffffffffff\n  and\n  sub\n    /* \"@openzeppelin/contracts/token/ERC20/ERC20.sol\":5997:6537  if (from == address(0)) {... */\n  tag_65\n  jumpi\n    /* \"@openzeppelin/contracts/token/ERC20/ERC20.sol\":6153:6158  value */\n  dup1\n    /* \"@openzeppelin/contracts/token/ERC20/ERC20.sol\":6137:6149  _totalSupply */\n  0x02\n  0x00\n    /* \"@openzeppelin/contracts/token/ERC20/ERC20.sol\":6137:6158  _totalSupply += value */\n  dup3\n  dup3\n  sload\n  tag_66\n  swap2\n  swap1\n  tag_67\n  jump\t// in\ntag_66:\n  swap3\n  pop\n  pop\n  dup2\n  swap1\n  sstore\n  pop\n    /* \"@openzeppelin/contracts/token/ERC20/ERC20.sol\":5997:6537  if (from == address(0)) {... */\n  jump(tag_68)\ntag_65:\n    /* \"@openzeppelin/contracts/token/ERC20/ERC20.sol\":6189:6208  uint256 fromBalance */\n  0x00\n    /* \"@openzeppelin/contracts/token/ERC20/ERC20.sol\":6211:6220  _balances */\n  0x00\n    /* \"@openzeppelin/contracts/token/ERC20/ERC20.sol\":6211:6226  _balances[from] */\n  0x00\n    /* \"@openzeppelin/contracts/token/ERC20/ERC20.sol\":6221:6225  from */\n  dup6\n    /* \"@openzeppelin/contracts/token/ERC20/ERC20.sol\":6211:6226  _balances[from] */\n  0xffffffffffffffffffffffffffffffffffffffff\n  and\n  0xffffffffffffffffffffffffffffffffffffffff\n  and\n  dup2\n  mstore\n  0x20\n  add\n  swap1\n  dup2\n  mstore\n  0x20\n  add\n  0x00\n  keccak256\n  sload\n    /* \"@openzeppelin/contracts/token/ERC20/ERC20.sol\":6189:6226  uint256 fromBalance = _balances[from] */\n  swap1\n  pop\n    /* \"@openzeppelin/contracts/token/ERC20/ERC20.sol\":6258:6263  value */\n  dup2\n    /* \"@openzeppelin/contracts/token/ERC20/ERC20.sol\":6244:6255  fromBalance */\n  dup2\n    /* \"@openzeppelin/contracts/token/ERC20/ERC20.sol\":6244:6263  fromBalance < value */\n  lt\n    /* \"@openzeppelin/contracts/token/ERC20/ERC20.sol\":6240:6355  if (fromBalance < value) {... */\n  iszero\n  tag_69\n  jumpi\n    /* \"@openzeppelin/contracts/token/ERC20/ERC20.sol\":6315:6319  from */\n  dup4\n    /* \"@openzeppelin/contracts/token/ERC20/ERC20.sol\":6321:6332  fromBalance */\n  dup2\n    /* \"@openzeppelin/contracts/token/ERC20/ERC20.sol\":6334:6339  value */\n  dup4\n    /* \"@openzeppelin/contracts/token/ERC20/ERC20.sol\":6290:6340  ERC20InsufficientBalance(from, fromBalance, value) */\n  mload(0x40)\n  0xe450d38c00000000000000000000000000000000000000000000000000000000\n  dup2\n  mstore\n  0x04\n  add\n  tag_70\n  swap4\n  swap3\n  swap2\n  swap1\n  tag_71\n  jump\t// in\ntag_70:\n  mload(0x40)\n  dup1\n  swap2\n  sub\n  swap1\n  revert\n    /* \"@openzeppelin/contracts/token/ERC20/ERC20.sol\":6240:6355  if (fromBalance < value) {... */\ntag_69:\n    /* \"@openzeppelin/contracts/token/ERC20/ERC20.sol\":6507:6512  value */\n  dup2\n    /* \"@openzeppelin/contracts/token/ERC20/ERC20.sol\":6493:6504  fromBalance */\n  dup2\n    /* \"@openzeppelin/contracts/token/ERC20/ERC20.sol\":6493:6512  fromBalance - value */\n  sub\n    /* \"@openzeppelin/contracts/token/ERC20/ERC20.sol\":6475:6484  _balances */\n  0x00\n    /* \"@openzeppelin/contracts/token/ERC20/ERC20.sol\":6475:6490  _balances[from] */\n  0x00\n    /* \"@openzeppelin/contracts/token/ERC20/ERC20.sol\":6485:6489  from */\n  dup7\n    /* \"@openzeppelin/contracts/token/ERC20/ERC20.sol\":6475:6490  _balances[from] */\n  0xffffffffffffffffffffffffffffffffffffffff\n  and\n  0xffffffffffffffffffffffffffffffffffffffff\n  and\n  dup2\n  mstore\n  0x20\n  add\n  swap1\n  dup2\n  mstore\n  0x20\n  add\n  0x00\n  keccak256\n    /* \"@openzeppelin/contracts/token/ERC20/ERC20.sol\":6475:6512  _balances[from] = fromBalance - value */\n  dup2\n  swap1\n  sstore\n  pop\n    /* \"@openzeppelin/contracts/token/ERC20/ERC20.sol\":6175:6537  {... */\n  pop\n    /* \"@openzeppelin/contracts/token/ERC20/ERC20.sol\":5997:6537  if (from == address(0)) {... */\ntag_68:\n    /* \"@openzeppelin/contracts/token/ERC20/ERC20.sol\":6565:6566  0 */\n  0x00\n    /* \"@openzeppelin/contracts/token/ERC20/ERC20.sol\":6551:6567  to == address(0) */\n  0xffffffffffffffffffffffffffffffffffffffff\n  and\n    /* \"@openzeppelin/contracts/token/ERC20/ERC20.sol\":6551:6553  to */\n  dup3\n    /* \"@openzeppelin/contracts/token/ERC20/ERC20.sol\":6551:6567  to == address(0) */\n  0xffffffffffffffffffffffffffffffffffffffff\n  and\n  sub\n    /* \"@openzeppelin/contracts/token/ERC20/ERC20.sol\":6547:6972  if (to == address(0)) {... */\n  tag_72\n  jumpi\n    /* \"@openzeppelin/contracts/token/ERC20/ERC20.sol\":6730:6735  value */\n  dup1\n    /* \"@openzeppelin/contracts/token/ERC20/ERC20.sol\":6714:6726  _totalSupply */\n  0x02\n  0x00\n    /* \"@openzeppelin/contracts/token/ERC20/ERC20.sol\":6714:6735  _totalSupply -= value */\n  dup3\n  dup3\n  sload\n  sub\n  swap3\n  pop\n  pop\n  dup2\n  swap1\n  sstore\n  pop\n    /* \"@openzeppelin/contracts/token/ERC20/ERC20.sol\":6547:6972  if (to == address(0)) {... */\n  jump(tag_73)\ntag_72:\n    /* \"@openzeppelin/contracts/token/ERC20/ERC20.sol\":6942:6947  value */\n  dup1\n    /* \"@openzeppelin/contracts/token/ERC20/ERC20.sol\":6925:6934  _balances */\n  0x00\n    /* \"@openzeppelin/contracts/token/ERC20/ERC20.sol\":6925:6938  _balances[to] */\n  0x00\n    /* \"@openzeppelin/contracts/token/ERC20/ERC20.sol\":6935:6937  to */\n  dup5\n    /* \"@openzeppelin/contracts/token/ERC20/ERC20.sol\":6925:6938  _balances[to] */\n  0xffffffffffffffffffffffffffffffffffffffff\n  and\n  0xffffffffffffffffffffffffffffffffffffffff\n  and\n  dup2\n  mstore\n  0x20\n  add\n  swap1\n  dup2\n  mstore\n  0x20\n  add\n  0x00\n  keccak256\n  0x00\n    /* \"@openzeppelin/contracts/token/ERC20/ERC20.sol\":6925:6947  _balances[to] += value */\n  dup3\n  dup3\n  sload\n  add\n  swap3\n  pop\n  pop\n  dup2\n  swap1\n  sstore\n  pop\n    /* \"@openzeppelin/contracts/token/ERC20/ERC20.sol\":6547:6972  if (to == address(0)) {... */\ntag_73:\n    /* \"@openzeppelin/contracts/token/ERC20/ERC20.sol\":7002:7004  to */\n  dup2\n    /* \"@openzeppelin/contracts/token/ERC20/ERC20.sol\":6987:7012  Transfer(from, to, value) */\n  0xffffffffffffffffffffffffffffffffffffffff\n  and\n    /* \"@openzeppelin/contracts/token/ERC20/ERC20.sol\":6996:7000  from */\n  dup4\n    /* \"@openzeppelin/contracts/token/ERC20/ERC20.sol\":6987:7012  Transfer(from, to, value) */\n  0xffffffffffffffffffffffffffffffffffffffff\n  and\n  0xddf252ad1be2c89b69c2b068fc378daa952ba7f163c4a11628f55a4df523b3ef\n    /* \"@openzeppelin/contracts/token/ERC20/ERC20.sol\":7006:7011  value */\n  dup4\n    /* \"@openzeppelin/contracts/token/ERC20/ERC20.sol\":6987:7012  Transfer(from, to, value) */\n  mload(0x40)\n  tag_74\n  swap2\n  swap1\n  tag_54\n  jump\t// in\ntag_74:\n  mload(0x40)\n  dup1\n  swap2\n  sub\n  swap1\n  log3\n    /* \"@openzeppelin/contracts/token/ERC20/ERC20.sol\":5912:7019  function _update(address from, address to, uint256 value) internal virtual {... */\n  pop\n  pop\n  pop\n  jump\t// out\n    /* \"@openzeppelin/contracts/security/Pausable.sol\":1615:1699  function paused() public view virtual returns (bool) {... */\ntag_59:\n    /* \"@openzeppelin/contracts/security/Pausable.sol\":1662:1666  bool */\n  0x00\n    /* \"@openzeppelin/contracts/security/Pausable.sol\":1685:1692  _paused */\n  0x05\n  0x14\n  swap1\n  sload\n  swap1\n  0x0100\n  exp\n  swap1\n  div\n  0xff\n  and\n    /* \"@openzeppelin/contracts/security/Pausable.sol\":1678:1692  return _paused */\n  swap1\n  pop\n    /* \"@openzeppelin/contracts/security/Pausable.sol\":1615:1699  function paused() public view virtual returns (bool) {... */\n  swap1\n  jump\t// out\n    /* \"#utility.yul\":7:82   */\ntag_76:\n    /* \"#utility.yul\":40:46   */\n  0x00\n    /* \"#utility.yul\":73:75   */\n  0x40\n    /* \"#utility.yul\":67:76   */\n  mload\n    /* \"#utility.yul\":57:76   */\n  swap1\n  pop\n    /* \"#utility.yul\":7:82   */\n  swap1\n  jump\t// out\n    /* \"#utility.yul\":88:205   */\ntag_77:\n    /* \"#utility.yul\":197:198   */\n  0x00\n    /* \"#utility.yul\":194:195   */\n  0x00\n    /* \"#utility.yul\":187:199   */\n  revert\n    /* \"#utility.yul\":211:328   */\ntag_78:\n    /* \"#utility.yul\":320:321   */\n  0x00\n    /* \"#utility.yul\":317:318   */\n  0x00\n    /* \"#utility.yul\":310:322   */\n  revert\n    /* \"#utility.yul\":334:451   */\ntag_79:\n    /* \"#utility.yul\":443:444   */\n  0x00\n    /* \"#utility.yul\":440:441   */\n  0x00\n    /* \"#utility.yul\":433:445   */\n  revert\n    /* \"#utility.yul\":457:574   */\ntag_80:\n    /* \"#utility.yul\":566:567   */\n  0x00\n    /* \"#utility.yul\":563:564   */\n  0x00\n    /* \"#utility.yul\":556:568   */\n  revert\n    /* \"#utility.yul\":580:682   */\ntag_81:\n    /* \"#utility.yul\":621:627   */\n  0x00\n    /* \"#utility.yul\":672:674   */\n  0x1f\n    /* \"#utility.yul\":668:675   */\n  not\n    /* \"#utility.yul\":663:665   */\n  0x1f\n    /* \"#utility.yul\":656:661   */\n  dup4\n    /* \"#utility.yul\":652:666   */\n  add\n    /* \"#utility.yul\":648:676   */\n  and\n    /* \"#utility.yul\":638:676   */\n  swap1\n  pop\n    /* \"#utility.yul\":580:682   */\n  swap2\n  swap1\n  pop\n  jump\t// out\n    /* \"#utility.yul\":688:868   */\ntag_82:\n    /* \"#utility.yul\":736:813   */\n  0x4e487b7100000000000000000000000000000000000000000000000000000000\n    /* \"#utility.yul\":733:734   */\n  0x00\n    /* \"#utility.yul\":726:814   */\n  mstore\n    /* \"#utility.yul\":833:837   */\n  0x41\n    /* \"#utility.yul\":830:831   */\n  0x04\n    /* \"#utility.yul\":823:838   */\n  mstore\n    /* \"#utility.yul\":857:861   */\n  0x24\n    /* \"#utility.yul\":854:855   */\n  0x00\n    /* \"#utility.yul\":847:862   */\n  revert\n    /* \"#utility.yul\":874:1155   */\ntag_83:\n    /* \"#utility.yul\":957:984   */\n  tag_130\n    /* \"#utility.yul\":979:983   */\n  dup3\n    /* \"#utility.yul\":957:984   */\n  tag_81\n  jump\t// in\ntag_130:\n    /* \"#utility.yul\":949:955   */\n  dup2\n    /* \"#utility.yul\":945:985   */\n  add\n    /* \"#utility.yul\":1087:1093   */\n  dup2\n    /* \"#utility.yul\":1075:1085   */\n  dup2\n    /* \"#utility.yul\":1072:1094   */\n  lt\n    /* \"#utility.yul\":1051:1069   */\n  0xffffffffffffffff\n    /* \"#utility.yul\":1039:1049   */\n  dup3\n    /* \"#utility.yul\":1036:1070   */\n  gt\n    /* \"#utility.yul\":1033:1095   */\n  or\n    /* \"#utility.yul\":1030:1118   */\n  iszero\n  tag_131\n  jumpi\n    /* \"#utility.yul\":1098:1116   */\n  tag_132\n  tag_82\n  jump\t// in\ntag_132:\n    /* \"#utility.yul\":1030:1118   */\ntag_131:\n    /* \"#utility.yul\":1138:1148   */\n  dup1\n    /* \"#utility.yul\":1134:1136   */\n  0x40\n    /* \"#utility.yul\":1127:1149   */\n  mstore\n    /* \"#utility.yul\":917:1155   */\n  pop\n    /* \"#utility.yul\":874:1155   */\n  pop\n  pop\n  jump\t// out\n    /* \"#utility.yul\":1161:1290   */\ntag_84:\n    /* \"#utility.yul\":1195:1201   */\n  0x00\n    /* \"#utility.yul\":1222:1242   */\n  tag_134\n  tag_76\n  jump\t// in\ntag_134:\n    /* \"#utility.yul\":1212:1242   */\n  swap1\n  pop\n    /* \"#utility.yul\":1251:1284   */\n  tag_135\n    /* \"#utility.yul\":1279:1283   */\n  dup3\n    /* \"#utility.yul\":1271:1277   */\n  dup3\n    /* \"#utility.yul\":1251:1284   */\n  tag_83\n  jump\t// in\ntag_135:\n    /* \"#utility.yul\":1161:1290   */\n  swap2\n  swap1\n  pop\n  jump\t// out\n    /* \"#utility.yul\":1296:1604   */\ntag_85:\n    /* \"#utility.yul\":1358:1362   */\n  0x00\n    /* \"#utility.yul\":1448:1466   */\n  0xffffffffffffffff\n    /* \"#utility.yul\":1440:1446   */\n  dup3\n    /* \"#utility.yul\":1437:1467   */\n  gt\n    /* \"#utility.yul\":1434:1490   */\n  iszero\n  tag_137\n  jumpi\n    /* \"#utility.yul\":1470:1488   */\n  tag_138\n  tag_82\n  jump\t// in\ntag_138:\n    /* \"#utility.yul\":1434:1490   */\ntag_137:\n    /* \"#utility.yul\":1508:1537   */\n  tag_139\n    /* \"#utility.yul\":1530:1536   */\n  dup3\n    /* \"#utility.yul\":1508:1537   */\n  tag_81\n  jump\t// in\ntag_139:\n    /* \"#utility.yul\":1500:1537   */\n  swap1\n  pop\n    /* \"#utility.yul\":1592:1596   */\n  0x20\n    /* \"#utility.yul\":1586:1590   */\n  dup2\n    /* \"#utility.yul\":1582:1597   */\n  add\n    /* \"#utility.yul\":1574:1597   */\n  swap1\n  pop\n    /* \"#utility.yul\":1296:1604   */\n  swap2\n  swap1\n  pop\n  jump\t// out\n    /* \"#utility.yul\":1610:1749   */\ntag_86:\n    /* \"#utility.yul\":1699:1705   */\n  dup3\n    /* \"#utility.yul\":1694:1697   */\n  dup2\n    /* \"#utility.yul\":1689:1692   */\n  dup4\n    /* \"#utility.yul\":1683:1706   */\n  mcopy\n    /* \"#utility.yul\":1740:1741   */\n  0x00\n    /* \"#utility.yul\":1731:1737   */\n  dup4\n    /* \"#utility.yul\":1726:1729   */\n  dup4\n    /* \"#utility.yul\":1722:1738   */\n  add\n    /* \"#utility.yul\":1715:1742   */\n  mstore\n    /* \"#utility.yul\":1610:1749   */\n  pop\n  pop\n  pop\n  jump\t// out\n    /* \"#utility.yul\":1755:2189   */\ntag_87:\n    /* \"#utility.yul\":1844:1849   */\n  0x00\n    /* \"#utility.yul\":1869:1935   */\n  tag_142\n    /* \"#utility.yul\":1885:1934   */\n  tag_143\n    /* \"#utility.yul\":1927:1933   */\n  dup5\n    /* \"#utility.yul\":1885:1934   */\n  tag_85\n  jump\t// in\ntag_143:\n    /* \"#utility.yul\":1869:1935   */\n  tag_84\n  jump\t// in\ntag_142:\n    /* \"#utility.yul\":1860:1935   */\n  swap1\n  pop\n    /* \"#utility.yul\":1958:1964   */\n  dup3\n    /* \"#utility.yul\":1951:1956   */\n  dup2\n    /* \"#utility.yul\":1944:1965   */\n  mstore\n    /* \"#utility.yul\":1996:2000   */\n  0x20\n    /* \"#utility.yul\":1989:1994   */\n  dup2\n    /* \"#utility.yul\":1985:2001   */\n  add\n    /* \"#utility.yul\":2034:2037   */\n  dup5\n    /* \"#utility.yul\":2025:2031   */\n  dup5\n    /* \"#utility.yul\":2020:2023   */\n  dup5\n    /* \"#utility.yul\":2016:2032   */\n  add\n    /* \"#utility.yul\":2013:2038   */\n  gt\n    /* \"#utility.yul\":2010:2122   */\n  iszero\n  tag_144\n  jumpi\n    /* \"#utility.yul\":2041:2120   */\n  tag_145\n  tag_80\n  jump\t// in\ntag_145:\n    /* \"#utility.yul\":2010:2122   */\ntag_144:\n    /* \"#utility.yul\":2131:2183   */\n  tag_146\n    /* \"#utility.yul\":2176:2182   */\n  dup5\n    /* \"#utility.yul\":2171:2174   */\n  dup3\n    /* \"#utility.yul\":2166:2169   */\n  dup6\n    /* \"#utility.yul\":2131:2183   */\n  tag_86\n  jump\t// in\ntag_146:\n    /* \"#utility.yul\":1850:2189   */\n  pop\n    /* \"#utility.yul\":1755:2189   */\n  swap4\n  swap3\n  pop\n  pop\n  pop\n  jump\t// out\n    /* \"#utility.yul\":2209:2564   */\ntag_88:\n    /* \"#utility.yul\":2276:2281   */\n  0x00\n    /* \"#utility.yul\":2325:2328   */\n  dup3\n    /* \"#utility.yul\":2318:2322   */\n  0x1f\n    /* \"#utility.yul\":2310:2316   */\n  dup4\n    /* \"#utility.yul\":2306:2323   */\n  add\n    /* \"#utility.yul\":2302:2329   */\n  slt\n    /* \"#utility.yul\":2292:2414   */\n  tag_148\n  jumpi\n    /* \"#utility.yul\":2333:2412   */\n  tag_149\n  tag_79\n  jump\t// in\ntag_149:\n    /* \"#utility.yul\":2292:2414   */\ntag_148:\n    /* \"#utility.yul\":2443:2449   */\n  dup2\n    /* \"#utility.yul\":2437:2450   */\n  mload\n    /* \"#utility.yul\":2468:2558   */\n  tag_150\n    /* \"#utility.yul\":2554:2557   */\n  dup5\n    /* \"#utility.yul\":2546:2552   */\n  dup3\n    /* \"#utility.yul\":2539:2543   */\n  0x20\n    /* \"#utility.yul\":2531:2537   */\n  dup7\n    /* \"#utility.yul\":2527:2544   */\n  add\n    /* \"#utility.yul\":2468:2558   */\n  tag_87\n  jump\t// in\ntag_150:\n    /* \"#utility.yul\":2459:2558   */\n  swap2\n  pop\n    /* \"#utility.yul\":2282:2564   */\n  pop\n    /* \"#utility.yul\":2209:2564   */\n  swap3\n  swap2\n  pop\n  pop\n  jump\t// out\n    /* \"#utility.yul\":2570:3423   */\ntag_3:\n    /* \"#utility.yul\":2669:2675   */\n  0x00\n    /* \"#utility.yul\":2677:2683   */\n  0x00\n    /* \"#utility.yul\":2726:2728   */\n  0x40\n    /* \"#utility.yul\":2714:2723   */\n  dup4\n    /* \"#utility.yul\":2705:2712   */\n  dup6\n    /* \"#utility.yul\":2701:2724   */\n  sub\n    /* \"#utility.yul\":2697:2729   */\n  slt\n    /* \"#utility.yul\":2694:2813   */\n  iszero\n  tag_152\n  jumpi\n    /* \"#utility.yul\":2732:2811   */\n  tag_153\n  tag_77\n  jump\t// in\ntag_153:\n    /* \"#utility.yul\":2694:2813   */\ntag_152:\n    /* \"#utility.yul\":2873:2874   */\n  0x00\n    /* \"#utility.yul\":2862:2871   */\n  dup4\n    /* \"#utility.yul\":2858:2875   */\n  add\n    /* \"#utility.yul\":2852:2876   */\n  mload\n    /* \"#utility.yul\":2903:2921   */\n  0xffffffffffffffff\n    /* \"#utility.yul\":2895:2901   */\n  dup2\n    /* \"#utility.yul\":2892:2922   */\n  gt\n    /* \"#utility.yul\":2889:3006   */\n  iszero\n  tag_154\n  jumpi\n    /* \"#utility.yul\":2925:3004   */\n  tag_155\n  tag_78\n  jump\t// in\ntag_155:\n    /* \"#utility.yul\":2889:3006   */\ntag_154:\n    /* \"#utility.yul\":3030:3104   */\n  tag_156\n    /* \"#utility.yul\":3096:3103   */\n  dup6\n    /* \"#utility.yul\":3087:3093   */\n  dup3\n    /* \"#utility.yul\":3076:3085   */\n  dup7\n    /* \"#utility.yul\":3072:3094   */\n  add\n    /* \"#utility.yul\":3030:3104   */\n  tag_88\n  jump\t// in\ntag_156:\n    /* \"#utility.yul\":3020:3104   */\n  swap3\n  pop\n    /* \"#utility.yul\":2823:3114   */\n  pop\n    /* \"#utility.yul\":3174:3176   */\n  0x20\n    /* \"#utility.yul\":3163:3172   */\n  dup4\n    /* \"#utility.yul\":3159:3177   */\n  add\n    /* \"#utility.yul\":3153:3178   */\n  mload\n    /* \"#utility.yul\":3205:3223   */\n  0xffffffffffffffff\n    /* \"#utility.yul\":3197:3203   */\n  dup2\n    /* \"#utility.yul\":3194:3224   */\n  gt\n    /* \"#utility.yul\":3191:3308   */\n  iszero\n  tag_157\n  jumpi\n    /* \"#utility.yul\":3227:3306   */\n  tag_158\n  tag_78\n  jump\t// in\ntag_158:\n    /* \"#utility.yul\":3191:3308   */\ntag_157:\n    /* \"#utility.yul\":3332:3406   */\n  tag_159\n    /* \"#utility.yul\":3398:3405   */\n  dup6\n    /* \"#utility.yul\":3389:3395   */\n  dup3\n    /* \"#utility.yul\":3378:3387   */\n  dup7\n    /* \"#utility.yul\":3374:3396   */\n  add\n    /* \"#utility.yul\":3332:3406   */\n  tag_88\n  jump\t// in\ntag_159:\n    /* \"#utility.yul\":3322:3406   */\n  swap2\n  pop\n    /* \"#utility.yul\":3124:3416   */\n  pop\n    /* \"#utility.yul\":2570:3423   */\n  swap3\n  pop\n  swap3\n  swap1\n  pop\n  jump\t// out\n    /* \"#utility.yul\":3429:3528   */\ntag_89:\n    /* \"#utility.yul\":3481:3487   */\n  0x00\n    /* \"#utility.yul\":3515:3520   */\n  dup2\n    /* \"#utility.yul\":3509:3521   */\n  mload\n    /* \"#utility.yul\":3499:3521   */\n  swap1\n  pop\n    /* \"#utility.yul\":3429:3528   */\n  swap2\n  swap1\n  pop\n  jump\t// out\n    /* \"#utility.yul\":3534:3714   */\ntag_90:\n    /* \"#utility.yul\":3582:3659   */\n  0x4e487b7100000000000000000000000000000000000000000000000000000000\n    /* \"#utility.yul\":3579:3580   */\n  0x00\n    /* \"#utility.yul\":3572:3660   */\n  mstore\n    /* \"#utility.yul\":3679:3683   */\n  0x22\n    /* \"#utility.yul\":3676:3677   */\n  0x04\n    /* \"#utility.yul\":3669:3684   */\n  mstore\n    /* \"#utility.yul\":3703:3707   */\n  0x24\n    /* \"#utility.yul\":3700:3701   */\n  0x00\n    /* \"#utility.yul\":3693:3708   */\n  revert\n    /* \"#utility.yul\":3720:4040   */\ntag_91:\n    /* \"#utility.yul\":3764:3770   */\n  0x00\n    /* \"#utility.yul\":3801:3802   */\n  0x02\n    /* \"#utility.yul\":3795:3799   */\n  dup3\n    /* \"#utility.yul\":3791:3803   */\n  div\n    /* \"#utility.yul\":3781:3803   */\n  swap1\n  pop\n    /* \"#utility.yul\":3848:3849   */\n  0x01\n    /* \"#utility.yul\":3842:3846   */\n  dup3\n    /* \"#utility.yul\":3838:3850   */\n  and\n    /* \"#utility.yul\":3869:3887   */\n  dup1\n    /* \"#utility.yul\":3859:3940   */\n  tag_163\n  jumpi\n    /* \"#utility.yul\":3925:3929   */\n  0x7f\n    /* \"#utility.yul\":3917:3923   */\n  dup3\n    /* \"#utility.yul\":3913:3930   */\n  and\n    /* \"#utility.yul\":3903:3930   */\n  swap2\n  pop\n    /* \"#utility.yul\":3859:3940   */\ntag_163:\n    /* \"#utility.yul\":3987:3989   */\n  0x20\n    /* \"#utility.yul\":3979:3985   */\n  dup3\n    /* \"#utility.yul\":3976:3990   */\n  lt\n    /* \"#utility.yul\":3956:3974   */\n  dup2\n    /* \"#utility.yul\":3953:3991   */\n  sub\n    /* \"#utility.yul\":3950:4034   */\n  tag_164\n  jumpi\n    /* \"#utility.yul\":4006:4024   */\n  tag_165\n  tag_90\n  jump\t// in\ntag_165:\n    /* \"#utility.yul\":3950:4034   */\ntag_164:\n    /* \"#utility.yul\":3771:4040   */\n  pop\n    /* \"#utility.yul\":3720:4040   */\n  swap2\n  swap1\n  pop\n  jump\t// out\n    /* \"#utility.yul\":4046:4187   */\ntag_92:\n    /* \"#utility.yul\":4095:4099   */\n  0x00\n    /* \"#utility.yul\":4118:4121   */\n  dup2\n    /* \"#utility.yul\":4110:4121   */\n  swap1\n  pop\n    /* \"#utility.yul\":4141:4144   */\n  dup2\n    /* \"#utility.yul\":4138:4139   */\n  0x00\n    /* \"#utility.yul\":4131:4145   */\n  mstore\n    /* \"#utility.yul\":4175:4179   */\n  0x20\n    /* \"#utility.yul\":4172:4173   */\n  0x00\n    /* \"#utility.yul\":4162:4180   */\n  keccak256\n    /* \"#utility.yul\":4154:4180   */\n  swap1\n  pop\n    /* \"#utility.yul\":4046:4187   */\n  swap2\n  swap1\n  pop\n  jump\t// out\n    /* \"#utility.yul\":4193:4286   */\ntag_93:\n    /* \"#utility.yul\":4230:4236   */\n  0x00\n    /* \"#utility.yul\":4277:4279   */\n  0x20\n    /* \"#utility.yul\":4272:4274   */\n  0x1f\n    /* \"#utility.yul\":4265:4270   */\n  dup4\n    /* \"#utility.yul\":4261:4275   */\n  add\n    /* \"#utility.yul\":4257:4280   */\n  div\n    /* \"#utility.yul\":4247:4280   */\n  swap1\n  pop\n    /* \"#utility.yul\":4193:4286   */\n  swap2\n  swap1\n  pop\n  jump\t// out\n    /* \"#utility.yul\":4292:4399   */\ntag_94:\n    /* \"#utility.yul\":4336:4344   */\n  0x00\n    /* \"#utility.yul\":4386:4391   */\n  dup3\n    /* \"#utility.yul\":4380:4384   */\n  dup3\n    /* \"#utility.yul\":4376:4392   */\n  shl\n    /* \"#utility.yul\":4355:4392   */\n  swap1\n  pop\n    /* \"#utility.yul\":4292:4399   */\n  swap3\n  swap2\n  pop\n  pop\n  jump\t// out\n    /* \"#utility.yul\":4405:4798   */\ntag_95:\n    /* \"#utility.yul\":4474:4480   */\n  0x00\n    /* \"#utility.yul\":4524:4525   */\n  0x08\n    /* \"#utility.yul\":4512:4522   */\n  dup4\n    /* \"#utility.yul\":4508:4526   */\n  mul\n    /* \"#utility.yul\":4547:4644   */\n  tag_170\n    /* \"#utility.yul\":4577:4643   */\n  0xffffffffffffffffffffffffffffffffffffffffffffffffffffffffffffffff\n    /* \"#utility.yul\":4566:4575   */\n  dup3\n    /* \"#utility.yul\":4547:4644   */\n  tag_94\n  jump\t// in\ntag_170:\n    /* \"#utility.yul\":4665:4704   */\n  tag_171\n    /* \"#utility.yul\":4695:4703   */\n  dup7\n    /* \"#utility.yul\":4684:4693   */\n  dup4\n    /* \"#utility.yul\":4665:4704   */\n  tag_94\n  jump\t// in\ntag_171:\n    /* \"#utility.yul\":4653:4704   */\n  swap6\n  pop\n    /* \"#utility.yul\":4737:4741   */\n  dup1\n    /* \"#utility.yul\":4733:4742   */\n  not\n    /* \"#utility.yul\":4726:4731   */\n  dup5\n    /* \"#utility.yul\":4722:4743   */\n  and\n    /* \"#utility.yul\":4713:4743   */\n  swap4\n  pop\n    /* \"#utility.yul\":4786:4790   */\n  dup1\n    /* \"#utility.yul\":4776:4784   */\n  dup7\n    /* \"#utility.yul\":4772:4791   */\n  and\n    /* \"#utility.yul\":4765:4770   */\n  dup5\n    /* \"#utility.yul\":4762:4792   */\n  or\n    /* \"#utility.yul\":4752:4792   */\n  swap3\n  pop\n    /* \"#utility.yul\":4481:4798   */\n  pop\n  pop\n    /* \"#utility.yul\":4405:4798   */\n  swap4\n  swap3\n  pop\n  pop\n  pop\n  jump\t// out\n    /* \"#utility.yul\":4804:4881   */\ntag_96:\n    /* \"#utility.yul\":4841:4848   */\n  0x00\n    /* \"#utility.yul\":4870:4875   */\n  dup2\n    /* \"#utility.yul\":4859:4875   */\n  swap1\n  pop\n    /* \"#utility.yul\":4804:4881   */\n  swap2\n  swap1\n  pop\n  jump\t// out\n    /* \"#utility.yul\":4887:4947   */\ntag_97:\n    /* \"#utility.yul\":4915:4918   */\n  0x00\n    /* \"#utility.yul\":4936:4941   */\n  dup2\n    /* \"#utility.yul\":4929:4941   */\n  swap1\n  pop\n    /* \"#utility.yul\":4887:4947   */\n  swap2\n  swap1\n  pop\n  jump\t// out\n    /* \"#utility.yul\":4953:5095   */\ntag_98:\n    /* \"#utility.yul\":5003:5012   */\n  0x00\n    /* \"#utility.yul\":5036:5089   */\n  tag_175\n    /* \"#utility.yul\":5054:5088   */\n  tag_176\n    /* \"#utility.yul\":5063:5087   */\n  tag_177\n    /* \"#utility.yul\":5081:5086   */\n  dup5\n    /* \"#utility.yul\":5063:5087   */\n  tag_96\n  jump\t// in\ntag_177:\n    /* \"#utility.yul\":5054:5088   */\n  tag_97\n  jump\t// in\ntag_176:\n    /* \"#utility.yul\":5036:5089   */\n  tag_96\n  jump\t// in\ntag_175:\n    /* \"#utility.yul\":5023:5089   */\n  swap1\n  pop\n    /* \"#utility.yul\":4953:5095   */\n  swap2\n  swap1\n  pop\n  jump\t// out\n    /* \"#utility.yul\":5101:5176   */\ntag_99:\n    /* \"#utility.yul\":5144:5147   */\n  0x00\n    /* \"#utility.yul\":5165:5170   */\n  dup2\n    /* \"#utility.yul\":5158:5170   */\n  swap1\n  pop\n    /* \"#utility.yul\":5101:5176   */\n  swap2\n  swap1\n  pop\n  jump\t// out\n    /* \"#utility.yul\":5182:5451   */\ntag_100:\n    /* \"#utility.yul\":5292:5331   */\n  tag_180\n    /* \"#utility.yul\":5323:5330   */\n  dup4\n    /* \"#utility.yul\":5292:5331   */\n  tag_98\n  jump\t// in\ntag_180:\n    /* \"#utility.yul\":5353:5444   */\n  tag_181\n    /* \"#utility.yul\":5402:5443   */\n  tag_182\n    /* \"#utility.yul\":5426:5442   */\n  dup3\n    /* \"#utility.yul\":5402:5443   */\n  tag_99\n  jump\t// in\ntag_182:\n    /* \"#utility.yul\":5394:5400   */\n  dup5\n    /* \"#utility.yul\":5387:5391   */\n  dup5\n    /* \"#utility.yul\":5381:5392   */\n  sload\n    /* \"#utility.yul\":5353:5444   */\n  tag_95\n  jump\t// in\ntag_181:\n    /* \"#utility.yul\":5347:5351   */\n  dup3\n    /* \"#utility.yul\":5340:5445   */\n  sstore\n    /* \"#utility.yul\":5258:5451   */\n  pop\n    /* \"#utility.yul\":5182:5451   */\n  pop\n  pop\n  pop\n  jump\t// out\n    /* \"#utility.yul\":5457:5530   */\ntag_101:\n    /* \"#utility.yul\":5502:5505   */\n  0x00\n    /* \"#utility.yul\":5523:5524   */\n  0x00\n    /* \"#utility.yul\":5516:5524   */\n  swap1\n  pop\n    /* \"#utility.yul\":5457:5530   */\n  swap1\n  jump\t// out\n    /* \"#utility.yul\":5536:5725   */\ntag_102:\n    /* \"#utility.yul\":5613:5645   */\n  tag_185\n  tag_101\n  jump\t// in\ntag_185:\n    /* \"#utility.yul\":5654:5719   */\n  tag_186\n    /* \"#utility.yul\":5712:5718   */\n  dup2\n    /* \"#utility.yul\":5704:5710   */\n  dup5\n    /* \"#utility.yul\":5698:5702   */\n  dup5\n    /* \"#utility.yul\":5654:5719   */\n  tag_100\n  jump\t// in\ntag_186:\n    /* \"#utility.yul\":5589:5725   */\n  pop\n    /* \"#utility.yul\":5536:5725   */\n  pop\n  pop\n  jump\t// out\n    /* \"#utility.yul\":5731:5917   */\ntag_103:\n    /* \"#utility.yul\":5791:5911   */\ntag_188:\n    /* \"#utility.yul\":5808:5811   */\n  dup2\n    /* \"#utility.yul\":5801:5806   */\n  dup2\n    /* \"#utility.yul\":5798:5812   */\n  lt\n    /* \"#utility.yul\":5791:5911   */\n  iszero\n  tag_190\n  jumpi\n    /* \"#utility.yul\":5862:5901   */\n  tag_191\n    /* \"#utility.yul\":5899:5900   */\n  0x00\n    /* \"#utility.yul\":5892:5897   */\n  dup3\n    /* \"#utility.yul\":5862:5901   */\n  tag_102\n  jump\t// in\ntag_191:\n    /* \"#utility.yul\":5835:5836   */\n  0x01\n    /* \"#utility.yul\":5828:5833   */\n  dup2\n    /* \"#utility.yul\":5824:5837   */\n  add\n    /* \"#utility.yul\":5815:5837   */\n  swap1\n  pop\n    /* \"#utility.yul\":5791:5911   */\n  jump(tag_188)\ntag_190:\n    /* \"#utility.yul\":5731:5917   */\n  pop\n  pop\n  jump\t// out\n    /* \"#utility.yul\":5923:6466   */\ntag_104:\n    /* \"#utility.yul\":6024:6026   */\n  0x1f\n    /* \"#utility.yul\":6019:6022   */\n  dup3\n    /* \"#utility.yul\":6016:6027   */\n  gt\n    /* \"#utility.yul\":6013:6459   */\n  iszero\n  tag_193\n  jumpi\n    /* \"#utility.yul\":6058:6096   */\n  tag_194\n    /* \"#utility.yul\":6090:6095   */\n  dup2\n    /* \"#utility.yul\":6058:6096   */\n  tag_92\n  jump\t// in\ntag_194:\n    /* \"#utility.yul\":6142:6171   */\n  tag_195\n    /* \"#utility.yul\":6160:6170   */\n  dup5\n    /* \"#utility.yul\":6142:6171   */\n  tag_93\n  jump\t// in\ntag_195:\n    /* \"#utility.yul\":6132:6140   */\n  dup2\n    /* \"#utility.yul\":6128:6172   */\n  add\n    /* \"#utility.yul\":6325:6327   */\n  0x20\n    /* \"#utility.yul\":6313:6323   */\n  dup6\n    /* \"#utility.yul\":6310:6328   */\n  lt\n    /* \"#utility.yul\":6307:6356   */\n  iszero\n  tag_196\n  jumpi\n    /* \"#utility.yul\":6346:6354   */\n  dup2\n    /* \"#utility.yul\":6331:6354   */\n  swap1\n  pop\n    /* \"#utility.yul\":6307:6356   */\ntag_196:\n    /* \"#utility.yul\":6369:6449   */\n  tag_197\n    /* \"#utility.yul\":6425:6447   */\n  tag_198\n    /* \"#utility.yul\":6443:6446   */\n  dup6\n    /* \"#utility.yul\":6425:6447   */\n  tag_93\n  jump\t// in\ntag_198:\n    /* \"#utility.yul\":6415:6423   */\n  dup4\n    /* \"#utility.yul\":6411:6448   */\n  add\n    /* \"#utility.yul\":6398:6409   */\n  dup3\n    /* \"#utility.yul\":6369:6449   */\n  tag_103\n  jump\t// in\ntag_197:\n    /* \"#utility.yul\":6028:6459   */\n  pop\n  pop\n    /* \"#utility.yul\":6013:6459   */\ntag_193:\n    /* \"#utility.yul\":5923:6466   */\n  pop\n  pop\n  pop\n  jump\t// out\n    /* \"#utility.yul\":6472:6589   */\ntag_105:\n    /* \"#utility.yul\":6526:6534   */\n  0x00\n    /* \"#utility.yul\":6576:6581   */\n  dup3\n    /* \"#utility.yul\":6570:6574   */\n  dup3\n    /* \"#utility.yul\":6566:6582   */\n  shr\n    /* \"#utility.yul\":6545:6582   */\n  swap1\n  pop\n    /* \"#utility.yul\":6472:6589   */\n  swap3\n  swap2\n  pop\n  pop\n  jump\t// out\n    /* \"#utility.yul\":6595:6764   */\ntag_106:\n    /* \"#utility.yul\":6639:6645   */\n  0x00\n    /* \"#utility.yul\":6672:6723   */\n  tag_201\n    /* \"#utility.yul\":6720:6721   */\n  0x00\n    /* \"#utility.yul\":6716:6722   */\n  not\n    /* \"#utility.yul\":6708:6713   */\n  dup5\n    /* \"#utility.yul\":6705:6706   */\n  0x08\n    /* \"#utility.yul\":6701:6714   */\n  mul\n    /* \"#utility.yul\":6672:6723   */\n  tag_105\n  jump\t// in\ntag_201:\n    /* \"#utility.yul\":6668:6724   */\n  not\n    /* \"#utility.yul\":6753:6757   */\n  dup1\n    /* \"#utility.yul\":6747:6751   */\n  dup4\n    /* \"#utility.yul\":6743:6758   */\n  and\n    /* \"#utility.yul\":6733:6758   */\n  swap2\n  pop\n    /* \"#utility.yul\":6646:6764   */\n  pop\n    /* \"#utility.yul\":6595:6764   */\n  swap3\n  swap2\n  pop\n  pop\n  jump\t// out\n    /* \"#utility.yul\":6769:7064   */\ntag_107:\n    /* \"#utility.yul\":6845:6849   */\n  0x00\n    /* \"#utility.yul\":6991:7020   */\n  tag_203\n    /* \"#utility.yul\":7016:7019   */\n  dup4\n    /* \"#utility.yul\":7010:7014   */\n  dup4\n    /* \"#utility.yul\":6991:7020   */\n  tag_106\n  jump\t// in\ntag_203:\n    /* \"#utility.yul\":6983:7020   */\n  swap2\n  pop\n    /* \"#utility.yul\":7053:7056   */\n  dup3\n    /* \"#utility.yul\":7050:7051   */\n  0x02\n    /* \"#utility.yul\":7046:7057   */\n  mul\n    /* \"#utility.yul\":7040:7044   */\n  dup3\n    /* \"#utility.yul\":7037:7058   */\n  or\n    /* \"#utility.yul\":7029:7058   */\n  swap1\n  pop\n    /* \"#utility.yul\":6769:7064   */\n  swap3\n  swap2\n  pop\n  pop\n  jump\t// out\n    /* \"#utility.yul\":7069:8464   */\ntag_10:\n    /* \"#utility.yul\":7186:7223   */\n  tag_205\n    /* \"#utility.yul\":7219:7222   */\n  dup3\n    /* \"#utility.yul\":7186:7223   */\n  tag_89\n  jump\t// in\ntag_205:\n    /* \"#utility.yul\":7288:7306   */\n  0xffffffffffffffff\n    /* \"#utility.yul\":7280:7286   */\n  dup2\n    /* \"#utility.yul\":7277:7307   */\n  gt\n    /* \"#utility.yul\":7274:7330   */\n  iszero\n  tag_206\n  jumpi\n    /* \"#utility.yul\":7310:7328   */\n  tag_207\n  tag_82\n  jump\t// in\ntag_207:\n    /* \"#utility.yul\":7274:7330   */\ntag_206:\n    /* \"#utility.yul\":7354:7392   */\n  tag_208\n    /* \"#utility.yul\":7386:7390   */\n  dup3\n    /* \"#utility.yul\":7380:7391   */\n  sload\n    /* \"#utility.yul\":7354:7392   */\n  tag_91\n  jump\t// in\ntag_208:\n    /* \"#utility.yul\":7439:7506   */\n  tag_209\n    /* \"#utility.yul\":7499:7505   */\n  dup3\n    /* \"#utility.yul\":7491:7497   */\n  dup3\n    /* \"#utility.yul\":7485:7489   */\n  dup6\n    /* \"#utility.yul\":7439:7506   */\n  tag_104\n  jump\t// in\ntag_209:\n    /* \"#utility.yul\":7533:7534   */\n  0x00\n    /* \"#utility.yul\":7557:7561   */\n  0x20\n    /* \"#utility.yul\":7544:7561   */\n  swap1\n  pop\n    /* \"#utility.yul\":7589:7591   */\n  0x1f\n    /* \"#utility.yul\":7581:7587   */\n  dup4\n    /* \"#utility.yul\":7578:7592   */\n  gt\n    /* \"#utility.yul\":7606:7607   */\n  0x01\n    /* \"#utility.yul\":7601:8219   */\n  dup2\n  eq\n  tag_211\n  jumpi\n    /* \"#utility.yul\":8263:8264   */\n  0x00\n    /* \"#utility.yul\":8280:8286   */\n  dup5\n    /* \"#utility.yul\":8277:8354   */\n  iszero\n  tag_212\n  jumpi\n    /* \"#utility.yul\":8329:8338   */\n  dup3\n    /* \"#utility.yul\":8324:8327   */\n  dup8\n    /* \"#utility.yul\":8320:8339   */\n  add\n    /* \"#utility.yul\":8314:8340   */\n  mload\n    /* \"#utility.yul\":8305:8340   */\n  swap1\n  pop\n    /* \"#utility.yul\":8277:8354   */\ntag_212:\n    /* \"#utility.yul\":8380:8447   */\n  tag_213\n    /* \"#utility.yul\":8440:8446   */\n  dup6\n    /* \"#utility.yul\":8433:8438   */\n  dup3\n    /* \"#utility.yul\":8380:8447   */\n  tag_107\n  jump\t// in\ntag_213:\n    /* \"#utility.yul\":8374:8378   */\n  dup7\n    /* \"#utility.yul\":8367:8448   */\n  sstore\n    /* \"#utility.yul\":8236:8458   */\n  pop\n    /* \"#utility.yul\":7571:8458   */\n  jump(tag_210)\n    /* \"#utility.yul\":7601:8219   */\ntag_211:\n    /* \"#utility.yul\":7653:7657   */\n  0x1f\n    /* \"#utility.yul\":7649:7658   */\n  not\n    /* \"#utility.yul\":7641:7647   */\n  dup5\n    /* \"#utility.yul\":7637:7659   */\n  and\n    /* \"#utility.yul\":7687:7724   */\n  tag_214\n    /* \"#utility.yul\":7719:7723   */\n  dup7\n    /* \"#utility.yul\":7687:7724   */\n  tag_92\n  jump\t// in\ntag_214:\n    /* \"#utility.yul\":7746:7747   */\n  0x00\n    /* \"#utility.yul\":7760:7968   */\ntag_215:\n    /* \"#utility.yul\":7774:7781   */\n  dup3\n    /* \"#utility.yul\":7771:7772   */\n  dup2\n    /* \"#utility.yul\":7768:7782   */\n  lt\n    /* \"#utility.yul\":7760:7968   */\n  iszero\n  tag_217\n  jumpi\n    /* \"#utility.yul\":7853:7862   */\n  dup5\n    /* \"#utility.yul\":7848:7851   */\n  dup10\n    /* \"#utility.yul\":7844:7863   */\n  add\n    /* \"#utility.yul\":7838:7864   */\n  mload\n    /* \"#utility.yul\":7830:7836   */\n  dup3\n    /* \"#utility.yul\":7823:7865   */\n  sstore\n    /* \"#utility.yul\":7904:7905   */\n  0x01\n    /* \"#utility.yul\":7896:7902   */\n  dup3\n    /* \"#utility.yul\":7892:7906   */\n  add\n    /* \"#utility.yul\":7882:7906   */\n  swap2\n  pop\n    /* \"#utility.yul\":7951:7953   */\n  0x20\n    /* \"#utility.yul\":7940:7949   */\n  dup6\n    /* \"#utility.yul\":7936:7954   */\n  add\n    /* \"#utility.yul\":7923:7954   */\n  swap5\n  pop\n    /* \"#utility.yul\":7797:7801   */\n  0x20\n    /* \"#utility.yul\":7794:7795   */\n  dup2\n    /* \"#utility.yul\":7790:7802   */\n  add\n    /* \"#utility.yul\":7785:7802   */\n  swap1\n  pop\n    /* \"#utility.yul\":7760:7968   */\n  jump(tag_215)\ntag_217:\n    /* \"#utility.yul\":7996:8002   */\n  dup7\n    /* \"#utility.yul\":7987:7994   */\n  dup4\n    /* \"#utility.yul\":7984:8003   */\n  lt\n    /* \"#utility.yul\":7981:8160   */\n  iszero\n  tag_218\n  jumpi\n    /* \"#utility.yul\":8054:8063   */\n  dup5\n    /* \"#utility.yul\":8049:8052   */\n  dup10\n    /* \"#utility.yul\":8045:8064   */\n  add\n    /* \"#utility.yul\":8039:8065   */\n  mload\n    /* \"#utility.yul\":8097:8145   */\n  tag_219\n    /* \"#utility.yul\":8139:8143   */\n  0x1f\n    /* \"#utility.yul\":8131:8137   */\n  dup10\n    /* \"#utility.yul\":8127:8144   */\n  and\n    /* \"#utility.yul\":8116:8125   */\n  dup3\n    /* \"#utility.yul\":8097:8145   */\n  tag_106\n  jump\t// in\ntag_219:\n    /* \"#utility.yul\":8089:8095   */\n  dup4\n    /* \"#utility.yul\":8082:8146   */\n  sstore\n    /* \"#utility.yul\":8004:8160   */\n  pop\n    /* \"#utility.yul\":7981:8160   */\ntag_218:\n    /* \"#utility.yul\":8206:8207   */\n  0x01\n    /* \"#utility.yul\":8202:8203   */\n  0x02\n    /* \"#utility.yul\":8194:8200   */\n  dup9\n    /* \"#utility.yul\":8190:8204   */\n  mul\n    /* \"#utility.yul\":8186:8208   */\n  add\n    /* \"#utility.yul\":8180:8184   */\n  dup9\n    /* \"#utility.yul\":8173:8209   */\n  sstore\n    /* \"#utility.yul\":7608:8219   */\n  pop\n  pop\n  pop\n    /* \"#utility.yul\":7571:8458   */\ntag_210:\n  pop\n    /* \"#utility.yul\":7161:8464   */\n  pop\n  pop\n  pop\n    /* \"#utility.yul\":7069:8464   */\n  pop\n  pop\n  jump\t// out\n    /* \"#utility.yul\":8470:8596   */\ntag_108:\n    /* \"#utility.yul\":8507:8514   */\n  0x00\n    /* \"#utility.yul\":8547:8589   */\n  0xffffffffffffffffffffffffffffffffffffffff\n    /* \"#utility.yul\":8540:8545   */\n  dup3\n    /* \"#utility.yul\":8536:8590   */\n  and\n    /* \"#utility.yul\":8525:8590   */\n  swap1\n  pop\n    /* \"#utility.yul\":8470:8596   */\n  swap2\n  swap1\n  pop\n  jump\t// out\n    /* \"#utility.yul\":8602:8698   */\ntag_109:\n    /* \"#utility.yul\":8639:8646   */\n  0x00\n    /* \"#utility.yul\":8668:8692   */\n  tag_222\n    /* \"#utility.yul\":8686:8691   */\n  dup3\n    /* \"#utility.yul\":8668:8692   */\n  tag_108\n  jump\t// in\ntag_222:\n    /* \"#utility.yul\":8657:8692   */\n  swap1\n  pop\n    /* \"#utility.yul\":8602:8698   */\n  swap2\n  swap1\n  pop\n  jump\t// out\n    /* \"#utility.yul\":8704:8822   */\ntag_110:\n    /* \"#utility.yul\":8791:8815   */\n  tag_224\n    /* \"#utility.yul\":8809:8814   */\n  dup2\n    /* \"#utility.yul\":8791:8815   */\n  tag_109\n  jump\t// in\ntag_224:\n    /* \"#utility.yul\":8786:8789   */\n  dup3\n    /* \"#utility.yul\":8779:8816   */\n  mstore\n    /* \"#utility.yul\":8704:8822   */\n  pop\n  pop\n  jump\t// out\n    /* \"#utility.yul\":8828:9050   */\ntag_15:\n    /* \"#utility.yul\":8921:8925   */\n  0x00\n    /* \"#utility.yul\":8959:8961   */\n  0x20\n    /* \"#utility.yul\":8948:8957   */\n  dup3\n    /* \"#utility.yul\":8944:8962   */\n  add\n    /* \"#utility.yul\":8936:8962   */\n  swap1\n  pop\n    /* \"#utility.yul\":8972:9043   */\n  tag_226\n    /* \"#utility.yul\":9040:9041   */\n  0x00\n    /* \"#utility.yul\":9029:9038   */\n  dup4\n    /* \"#utility.yul\":9025:9042   */\n  add\n    /* \"#utility.yul\":9016:9022   */\n  dup5\n    /* \"#utility.yul\":8972:9043   */\n  tag_110\n  jump\t// in\ntag_226:\n    /* \"#utility.yul\":8828:9050   */\n  swap3\n  swap2\n  pop\n  pop\n  jump\t// out\n    /* \"#utility.yul\":9056:9236   */\ntag_111:\n    /* \"#utility.yul\":9104:9181   */\n  0x4e487b7100000000000000000000000000000000000000000000000000000000\n    /* \"#utility.yul\":9101:9102   */\n  0x00\n    /* \"#utility.yul\":9094:9182   */\n  mstore\n    /* \"#utility.yul\":9201:9205   */\n  0x11\n    /* \"#utility.yul\":9198:9199   */\n  0x04\n    /* \"#utility.yul\":9191:9206   */\n  mstore\n    /* \"#utility.yul\":9225:9229   */\n  0x24\n    /* \"#utility.yul\":9222:9223   */\n  0x00\n    /* \"#utility.yul\":9215:9230   */\n  revert\n    /* \"#utility.yul\":9242:9344   */\ntag_112:\n    /* \"#utility.yul\":9284:9292   */\n  0x00\n    /* \"#utility.yul\":9331:9336   */\n  dup2\n    /* \"#utility.yul\":9328:9329   */\n  0x01\n    /* \"#utility.yul\":9324:9337   */\n  shr\n    /* \"#utility.yul\":9303:9337   */\n  swap1\n  pop\n    /* \"#utility.yul\":9242:9344   */\n  swap2\n  swap1\n  pop\n  jump\t// out\n    /* \"#utility.yul\":9350:10198   */\ntag_113:\n    /* \"#utility.yul\":9411:9416   */\n  0x00\n    /* \"#utility.yul\":9418:9422   */\n  0x00\n    /* \"#utility.yul\":9442:9448   */\n  dup3\n    /* \"#utility.yul\":9433:9448   */\n  swap2\n  pop\n    /* \"#utility.yul\":9466:9471   */\n  dup4\n    /* \"#utility.yul\":9457:9471   */\n  swap1\n  pop\n    /* \"#utility.yul\":9480:10192   */\ntag_230:\n    /* \"#utility.yul\":9501:9502   */\n  0x01\n    /* \"#utility.yul\":9491:9499   */\n  dup6\n    /* \"#utility.yul\":9488:9503   */\n  gt\n    /* \"#utility.yul\":9480:10192   */\n  iszero\n  tag_232\n  jumpi\n    /* \"#utility.yul\":9596:9600   */\n  dup1\n    /* \"#utility.yul\":9591:9594   */\n  dup7\n    /* \"#utility.yul\":9587:9601   */\n  div\n    /* \"#utility.yul\":9581:9585   */\n  dup2\n    /* \"#utility.yul\":9578:9602   */\n  gt\n    /* \"#utility.yul\":9575:9625   */\n  iszero\n  tag_233\n  jumpi\n    /* \"#utility.yul\":9605:9623   */\n  tag_234\n  tag_111\n  jump\t// in\ntag_234:\n    /* \"#utility.yul\":9575:9625   */\ntag_233:\n    /* \"#utility.yul\":9655:9656   */\n  0x01\n    /* \"#utility.yul\":9645:9653   */\n  dup6\n    /* \"#utility.yul\":9641:9657   */\n  and\n    /* \"#utility.yul\":9638:10089   */\n  iszero\n  tag_235\n  jumpi\n    /* \"#utility.yul\":10070:10074   */\n  dup1\n    /* \"#utility.yul\":10063:10068   */\n  dup3\n    /* \"#utility.yul\":10059:10075   */\n  mul\n    /* \"#utility.yul\":10050:10075   */\n  swap2\n  pop\n    /* \"#utility.yul\":9638:10089   */\ntag_235:\n    /* \"#utility.yul\":10120:10124   */\n  dup1\n    /* \"#utility.yul\":10114:10118   */\n  dup2\n    /* \"#utility.yul\":10110:10125   */\n  mul\n    /* \"#utility.yul\":10102:10125   */\n  swap1\n  pop\n    /* \"#utility.yul\":10150:10182   */\n  tag_236\n    /* \"#utility.yul\":10173:10181   */\n  dup6\n    /* \"#utility.yul\":10150:10182   */\n  tag_112\n  jump\t// in\ntag_236:\n    /* \"#utility.yul\":10138:10182   */\n  swap5\n  pop\n    /* \"#utility.yul\":9480:10192   */\n  jump(tag_230)\ntag_232:\n    /* \"#utility.yul\":9350:10198   */\n  swap5\n  pop\n  swap5\n  swap3\n  pop\n  pop\n  pop\n  jump\t// out\n    /* \"#utility.yul\":10204:11277   */\ntag_114:\n    /* \"#utility.yul\":10258:10263   */\n  0x00\n    /* \"#utility.yul\":10449:10457   */\n  dup3\n    /* \"#utility.yul\":10439:10479   */\n  tag_238\n  jumpi\n    /* \"#utility.yul\":10470:10471   */\n  0x01\n    /* \"#utility.yul\":10461:10471   */\n  swap1\n  pop\n    /* \"#utility.yul\":10472:10477   */\n  jump(tag_237)\n    /* \"#utility.yul\":10439:10479   */\ntag_238:\n    /* \"#utility.yul\":10498:10502   */\n  dup2\n    /* \"#utility.yul\":10488:10524   */\n  tag_239\n  jumpi\n    /* \"#utility.yul\":10515:10516   */\n  0x00\n    /* \"#utility.yul\":10506:10516   */\n  swap1\n  pop\n    /* \"#utility.yul\":10517:10522   */\n  jump(tag_237)\n    /* \"#utility.yul\":10488:10524   */\ntag_239:\n    /* \"#utility.yul\":10584:10588   */\n  dup2\n    /* \"#utility.yul\":10632:10633   */\n  0x01\n    /* \"#utility.yul\":10627:10654   */\n  dup2\n  eq\n  tag_241\n  jumpi\n    /* \"#utility.yul\":10668:10669   */\n  0x02\n    /* \"#utility.yul\":10663:10854   */\n  dup2\n  eq\n  tag_242\n  jumpi\n    /* \"#utility.yul\":10577:10854   */\n  jump(tag_240)\n    /* \"#utility.yul\":10627:10654   */\ntag_241:\n    /* \"#utility.yul\":10645:10646   */\n  0x01\n    /* \"#utility.yul\":10636:10646   */\n  swap2\n  pop\n    /* \"#utility.yul\":10647:10652   */\n  pop\n  jump(tag_237)\n    /* \"#utility.yul\":10663:10854   */\ntag_242:\n    /* \"#utility.yul\":10708:10711   */\n  0xff\n    /* \"#utility.yul\":10698:10706   */\n  dup5\n    /* \"#utility.yul\":10695:10712   */\n  gt\n    /* \"#utility.yul\":10692:10735   */\n  iszero\n  tag_243\n  jumpi\n    /* \"#utility.yul\":10715:10733   */\n  tag_244\n  tag_111\n  jump\t// in\ntag_244:\n    /* \"#utility.yul\":10692:10735   */\ntag_243:\n    /* \"#utility.yul\":10764:10772   */\n  dup4\n    /* \"#utility.yul\":10761:10762   */\n  0x02\n    /* \"#utility.yul\":10757:10773   */\n  exp\n    /* \"#utility.yul\":10748:10773   */\n  swap2\n  pop\n    /* \"#utility.yul\":10799:10802   */\n  dup5\n    /* \"#utility.yul\":10792:10797   */\n  dup3\n    /* \"#utility.yul\":10789:10803   */\n  gt\n    /* \"#utility.yul\":10786:10826   */\n  iszero\n  tag_245\n  jumpi\n    /* \"#utility.yul\":10806:10824   */\n  tag_246\n  tag_111\n  jump\t// in\ntag_246:\n    /* \"#utility.yul\":10786:10826   */\ntag_245:\n    /* \"#utility.yul\":10839:10844   */\n  pop\n  jump(tag_237)\n    /* \"#utility.yul\":10577:10854   */\ntag_240:\n  pop\n    /* \"#utility.yul\":10963:10965   */\n  0x20\n    /* \"#utility.yul\":10953:10961   */\n  dup4\n    /* \"#utility.yul\":10950:10966   */\n  lt\n    /* \"#utility.yul\":10944:10947   */\n  0x0133\n    /* \"#utility.yul\":10938:10942   */\n  dup4\n    /* \"#utility.yul\":10935:10948   */\n  lt\n    /* \"#utility.yul\":10931:10967   */\n  and\n    /* \"#utility.yul\":10913:10915   */\n  0x4e\n    /* \"#utility.yul\":10903:10911   */\n  dup5\n    /* \"#utility.yul\":10900:10916   */\n  lt\n    /* \"#utility.yul\":10895:10897   */\n  0x0b\n    /* \"#utility.yul\":10889:10893   */\n  dup5\n    /* \"#utility.yul\":10886:10898   */\n  lt\n    /* \"#utility.yul\":10882:10917   */\n  and\n    /* \"#utility.yul\":10866:10977   */\n  or\n    /* \"#utility.yul\":10863:11109   */\n  iszero\n  tag_247\n  jumpi\n    /* \"#utility.yul\":11019:11027   */\n  dup3\n    /* \"#utility.yul\":11013:11017   */\n  dup3\n    /* \"#utility.yul\":11009:11028   */\n  exp\n    /* \"#utility.yul\":11000:11028   */\n  swap1\n  pop\n    /* \"#utility.yul\":11054:11057   */\n  dup4\n    /* \"#utility.yul\":11047:11052   */\n  dup2\n    /* \"#utility.yul\":11044:11058   */\n  gt\n    /* \"#utility.yul\":11041:11081   */\n  iszero\n  tag_248\n  jumpi\n    /* \"#utility.yul\":11061:11079   */\n  tag_249\n  tag_111\n  jump\t// in\ntag_249:\n    /* \"#utility.yul\":11041:11081   */\ntag_248:\n    /* \"#utility.yul\":11094:11099   */\n  jump(tag_237)\n    /* \"#utility.yul\":10863:11109   */\ntag_247:\n    /* \"#utility.yul\":11134:11176   */\n  tag_250\n    /* \"#utility.yul\":11172:11175   */\n  dup5\n    /* \"#utility.yul\":11162:11170   */\n  dup5\n    /* \"#utility.yul\":11156:11160   */\n  dup5\n    /* \"#utility.yul\":11153:11154   */\n  0x01\n    /* \"#utility.yul\":11134:11176   */\n  tag_113\n  jump\t// in\ntag_250:\n    /* \"#utility.yul\":11119:11176   */\n  swap3\n  pop\n  swap1\n  pop\n    /* \"#utility.yul\":11208:11212   */\n  dup2\n    /* \"#utility.yul\":11203:11206   */\n  dup5\n    /* \"#utility.yul\":11199:11213   */\n  div\n    /* \"#utility.yul\":11192:11197   */\n  dup2\n    /* \"#utility.yul\":11189:11214   */\n  gt\n    /* \"#utility.yul\":11186:11237   */\n  iszero\n  tag_251\n  jumpi\n    /* \"#utility.yul\":11217:11235   */\n  tag_252\n  tag_111\n  jump\t// in\ntag_252:\n    /* \"#utility.yul\":11186:11237   */\ntag_251:\n    /* \"#utility.yul\":11266:11270   */\n  dup2\n    /* \"#utility.yul\":11259:11264   */\n  dup2\n    /* \"#utility.yul\":11255:11271   */\n  mul\n    /* \"#utility.yul\":11246:11271   */\n  swap1\n  pop\n    /* \"#utility.yul\":10204:11277   */\ntag_237:\n  swap4\n  swap3\n  pop\n  pop\n  pop\n  jump\t// out\n    /* \"#utility.yul\":11283:11369   */\ntag_115:\n    /* \"#utility.yul\":11318:11325   */\n  0x00\n    /* \"#utility.yul\":11358:11362   */\n  0xff\n    /* \"#utility.yul\":11351:11356   */\n  dup3\n    /* \"#utility.yul\":11347:11363   */\n  and\n    /* \"#utility.yul\":11336:11363   */\n  swap1\n  pop\n    /* \"#utility.yul\":11283:11369   */\n  swap2\n  swap1\n  pop\n  jump\t// out\n    /* \"#utility.yul\":11375:11656   */\ntag_24:\n    /* \"#utility.yul\":11433:11438   */\n  0x00\n    /* \"#utility.yul\":11457:11480   */\n  tag_255\n    /* \"#utility.yul\":11475:11479   */\n  dup3\n    /* \"#utility.yul\":11457:11480   */\n  tag_96\n  jump\t// in\ntag_255:\n    /* \"#utility.yul\":11449:11480   */\n  swap2\n  pop\n    /* \"#utility.yul\":11501:11526   */\n  tag_256\n    /* \"#utility.yul\":11517:11525   */\n  dup4\n    /* \"#utility.yul\":11501:11526   */\n  tag_115\n  jump\t// in\ntag_256:\n    /* \"#utility.yul\":11489:11526   */\n  swap3\n  pop\n    /* \"#utility.yul\":11545:11649   */\n  tag_257\n    /* \"#utility.yul\":11582:11648   */\n  0xffffffffffffffffffffffffffffffffffffffffffffffffffffffffffffffff\n    /* \"#utility.yul\":11572:11580   */\n  dup5\n    /* \"#utility.yul\":11566:11570   */\n  dup5\n    /* \"#utility.yul\":11545:11649   */\n  tag_114\n  jump\t// in\ntag_257:\n    /* \"#utility.yul\":11536:11649   */\n  swap1\n  pop\n    /* \"#utility.yul\":11375:11656   */\n  swap3\n  swap2\n  pop\n  pop\n  jump\t// out\n    /* \"#utility.yul\":11662:12072   */\ntag_26:\n    /* \"#utility.yul\":11702:11709   */\n  0x00\n    /* \"#utility.yul\":11725:11745   */\n  tag_259\n    /* \"#utility.yul\":11743:11744   */\n  dup3\n    /* \"#utility.yul\":11725:11745   */\n  tag_96\n  jump\t// in\ntag_259:\n    /* \"#utility.yul\":11720:11745   */\n  swap2\n  pop\n    /* \"#utility.yul\":11759:11779   */\n  tag_260\n    /* \"#utility.yul\":11777:11778   */\n  dup4\n    /* \"#utility.yul\":11759:11779   */\n  tag_96\n  jump\t// in\ntag_260:\n    /* \"#utility.yul\":11754:11779   */\n  swap3\n  pop\n    /* \"#utility.yul\":11814:11815   */\n  dup3\n    /* \"#utility.yul\":11811:11812   */\n  dup3\n    /* \"#utility.yul\":11807:11816   */\n  mul\n    /* \"#utility.yul\":11836:11866   */\n  tag_261\n    /* \"#utility.yul\":11854:11865   */\n  dup2\n    /* \"#utility.yul\":11836:11866   */\n  tag_96\n  jump\t// in\ntag_261:\n    /* \"#utility.yul\":11825:11866   */\n  swap2\n  pop\n    /* \"#utility.yul\":12015:12016   */\n  dup3\n    /* \"#utility.yul\":12006:12013   */\n  dup3\n    /* \"#utility.yul\":12002:12017   */\n  div\n    /* \"#utility.yul\":11999:12000   */\n  dup5\n    /* \"#utility.yul\":11996:12018   */\n  eq\n    /* \"#utility.yul\":11976:11977   */\n  dup4\n    /* \"#utility.yul\":11969:11978   */\n  iszero\n    /* \"#utility.yul\":11949:12032   */\n  or\n    /* \"#utility.yul\":11926:12065   */\n  tag_262\n  jumpi\n    /* \"#utility.yul\":12045:12063   */\n  tag_263\n  tag_111\n  jump\t// in\ntag_263:\n    /* \"#utility.yul\":11926:12065   */\ntag_262:\n    /* \"#utility.yul\":11710:12072   */\n  pop\n    /* \"#utility.yul\":11662:12072   */\n  swap3\n  swap2\n  pop\n  pop\n  jump\t// out\n    /* \"#utility.yul\":12078:12258   */\ntag_116:\n    /* \"#utility.yul\":12126:12203   */\n  0x4e487b7100000000000000000000000000000000000000000000000000000000\n    /* \"#utility.yul\":12123:12124   */\n  0x00\n    /* \"#utility.yul\":12116:12204   */\n  mstore\n    /* \"#utility.yul\":12223:12227   */\n  0x12\n    /* \"#utility.yul\":12220:12221   */\n  0x04\n    /* \"#utility.yul\":12213:12228   */\n  mstore\n    /* \"#utility.yul\":12247:12251   */\n  0x24\n    /* \"#utility.yul\":12244:12245   */\n  0x00\n    /* \"#utility.yul\":12237:12252   */\n  revert\n    /* \"#utility.yul\":12264:12449   */\ntag_47:\n    /* \"#utility.yul\":12304:12305   */\n  0x00\n    /* \"#utility.yul\":12321:12341   */\n  tag_266\n    /* \"#utility.yul\":12339:12340   */\n  dup3\n    /* \"#utility.yul\":12321:12341   */\n  tag_96\n  jump\t// in\ntag_266:\n    /* \"#utility.yul\":12316:12341   */\n  swap2\n  pop\n    /* \"#utility.yul\":12355:12375   */\n  tag_267\n    /* \"#utility.yul\":12373:12374   */\n  dup4\n    /* \"#utility.yul\":12355:12375   */\n  tag_96\n  jump\t// in\ntag_267:\n    /* \"#utility.yul\":12350:12375   */\n  swap3\n  pop\n    /* \"#utility.yul\":12394:12395   */\n  dup3\n    /* \"#utility.yul\":12384:12419   */\n  tag_268\n  jumpi\n    /* \"#utility.yul\":12399:12417   */\n  tag_269\n  tag_116\n  jump\t// in\ntag_269:\n    /* \"#utility.yul\":12384:12419   */\ntag_268:\n    /* \"#utility.yul\":12441:12442   */\n  dup3\n    /* \"#utility.yul\":12438:12439   */\n  dup3\n    /* \"#utility.yul\":12434:12443   */\n  div\n    /* \"#utility.yul\":12429:12443   */\n  swap1\n  pop\n    /* \"#utility.yul\":12264:12449   */\n  swap3\n  swap2\n  pop\n  pop\n  jump\t// out\n    /* \"#utility.yul\":12455:12649   */\ntag_49:\n    /* \"#utility.yul\":12495:12499   */\n  0x00\n    /* \"#utility.yul\":12515:12535   */\n  tag_271\n    /* \"#utility.yul\":12533:12534   */\n  dup3\n    /* \"#utility.yul\":12515:12535   */\n  tag_96\n  jump\t// in\ntag_271:\n    /* \"#utility.yul\":12510:12535   */\n  swap2\n  pop\n    /* \"#utility.yul\":12549:12569   */\n  tag_272\n    /* \"#utility.yul\":12567:12568   */\n  dup4\n    /* \"#utility.yul\":12549:12569   */\n  tag_96\n  jump\t// in\ntag_272:\n    /* \"#utility.yul\":12544:12569   */\n  swap3\n  pop\n    /* \"#utility.yul\":12593:12594   */\n  dup3\n    /* \"#utility.yul\":12590:12591   */\n  dup3\n    /* \"#utility.yul\":12586:12595   */\n  sub\n    /* \"#utility.yul\":12578:12595   */\n  swap1\n  pop\n    /* \"#utility.yul\":12617:12618   */\n  dup2\n    /* \"#utility.yul\":12611:12615   */\n  dup2\n    /* \"#utility.yul\":12608:12619   */\n  gt\n    /* \"#utility.yul\":12605:12642   */\n  iszero\n  tag_273\n  jumpi\n    /* \"#utility.yul\":12622:12640   */\n  tag_274\n  tag_111\n  jump\t// in\ntag_274:\n    /* \"#utility.yul\":12605:12642   */\ntag_273:\n    /* \"#utility.yul\":12455:12649   */\n  swap3\n  swap2\n  pop\n  pop\n  jump\t// out\n    /* \"#utility.yul\":12655:12773   */\ntag_117:\n    /* \"#utility.yul\":12742:12766   */\n  tag_276\n    /* \"#utility.yul\":12760:12765   */\n  dup2\n    /* \"#utility.yul\":12742:12766   */\n  tag_96\n  jump\t// in\ntag_276:\n    /* \"#utility.yul\":12737:12740   */\n  dup3\n    /* \"#utility.yul\":12730:12767   */\n  mstore\n    /* \"#utility.yul\":12655:12773   */\n  pop\n  pop\n  jump\t// out\n    /* \"#utility.yul\":12779:13001   */\ntag_54:\n    /* \"#utility.yul\":12872:12876   */\n  0x00\n    /* \"#utility.yul\":12910:12912   */\n  0x20\n    /* \"#utility.yul\":12899:12908   */\n  dup3\n    /* \"#utility.yul\":12895:12913   */\n  add\n    /* \"#utility.yul\":12887:12913   */\n  swap1\n  pop\n    /* \"#utility.yul\":12923:12994   */\n  tag_278\n    /* \"#utility.yul\":12991:12992   */\n  0x00\n    /* \"#utility.yul\":12980:12989   */\n  dup4\n    /* \"#utility.yul\":12976:12993   */\n  add\n    /* \"#utility.yul\":12967:12973   */\n  dup5\n    /* \"#utility.yul\":12923:12994   */\n  tag_117\n  jump\t// in\ntag_278:\n    /* \"#utility.yul\":12779:13001   */\n  swap3\n  swap2\n  pop\n  pop\n  jump\t// out\n    /* \"#utility.yul\":13007:13176   */\ntag_118:\n    /* \"#utility.yul\":13091:13102   */\n  0x00\n    /* \"#utility.yul\":13125:13131   */\n  dup3\n    /* \"#utility.yul\":13120:13123   */\n  dup3\n    /* \"#utility.yul\":13113:13132   */\n  mstore\n    /* \"#utility.yul\":13165:13169   */\n  0x20\n    /* \"#utility.yul\":13160:13163   */\n  dup3\n    /* \"#utility.yul\":13156:13170   */\n  add\n    /* \"#utility.yul\":13141:13170   */\n  swap1\n  pop\n    /* \"#utility.yul\":13007:13176   */\n  swap3\n  swap2\n  pop\n  pop\n  jump\t// out\n    /* \"#utility.yul\":13182:13348   */\ntag_119:\n    /* \"#utility.yul\":13322:13340   */\n  0x5061757361626c653a2070617573656400000000000000000000000000000000\n    /* \"#utility.yul\":13318:13319   */\n  0x00\n    /* \"#utility.yul\":13310:13316   */\n  dup3\n    /* \"#utility.yul\":13306:13320   */\n  add\n    /* \"#utility.yul\":13299:13341   */\n  mstore\n    /* \"#utility.yul\":13182:13348   */\n  pop\n  jump\t// out\n    /* \"#utility.yul\":13354:13720   */\ntag_120:\n    /* \"#utility.yul\":13496:13499   */\n  0x00\n    /* \"#utility.yul\":13517:13584   */\n  tag_282\n    /* \"#utility.yul\":13581:13583   */\n  0x10\n    /* \"#utility.yul\":13576:13579   */\n  dup4\n    /* \"#utility.yul\":13517:13584   */\n  tag_118\n  jump\t// in\ntag_282:\n    /* \"#utility.yul\":13510:13584   */\n  swap2\n  pop\n    /* \"#utility.yul\":13593:13686   */\n  tag_283\n    /* \"#utility.yul\":13682:13685   */\n  dup3\n    /* \"#utility.yul\":13593:13686   */\n  tag_119\n  jump\t// in\ntag_283:\n    /* \"#utility.yul\":13711:13713   */\n  0x20\n    /* \"#utility.yul\":13706:13709   */\n  dup3\n    /* \"#utility.yul\":13702:13714   */\n  add\n    /* \"#utility.yul\":13695:13714   */\n  swap1\n  pop\n    /* \"#utility.yul\":13354:13720   */\n  swap2\n  swap1\n  pop\n  jump\t// out\n    /* \"#utility.yul\":13726:14145   */\ntag_62:\n    /* \"#utility.yul\":13892:13896   */\n  0x00\n    /* \"#utility.yul\":13930:13932   */\n  0x20\n    /* \"#utility.yul\":13919:13928   */\n  dup3\n    /* \"#utility.yul\":13915:13933   */\n  add\n    /* \"#utility.yul\":13907:13933   */\n  swap1\n  pop\n    /* \"#utility.yul\":13979:13988   */\n  dup2\n    /* \"#utility.yul\":13973:13977   */\n  dup2\n    /* \"#utility.yul\":13969:13989   */\n  sub\n    /* \"#utility.yul\":13965:13966   */\n  0x00\n    /* \"#utility.yul\":13954:13963   */\n  dup4\n    /* \"#utility.yul\":13950:13967   */\n  add\n    /* \"#utility.yul\":13943:13990   */\n  mstore\n    /* \"#utility.yul\":14007:14138   */\n  tag_285\n    /* \"#utility.yul\":14133:14137   */\n  dup2\n    /* \"#utility.yul\":14007:14138   */\n  tag_120\n  jump\t// in\ntag_285:\n    /* \"#utility.yul\":13999:14138   */\n  swap1\n  pop\n    /* \"#utility.yul\":13726:14145   */\n  swap2\n  swap1\n  pop\n  jump\t// out\n    /* \"#utility.yul\":14151:14342   */\ntag_67:\n    /* \"#utility.yul\":14191:14194   */\n  0x00\n    /* \"#utility.yul\":14210:14230   */\n  tag_287\n    /* \"#utility.yul\":14228:14229   */\n  dup3\n    /* \"#utility.yul\":14210:14230   */\n  tag_96\n  jump\t// in\ntag_287:\n    /* \"#utility.yul\":14205:14230   */\n  swap2\n  pop\n    /* \"#utility.yul\":14244:14264   */\n  tag_288\n    /* \"#utility.yul\":14262:14263   */\n  dup4\n    /* \"#utility.yul\":14244:14264   */\n  tag_96\n  jump\t// in\ntag_288:\n    /* \"#utility.yul\":14239:14264   */\n  swap3\n  pop\n    /* \"#utility.yul\":14287:14288   */\n  dup3\n    /* \"#utility.yul\":14284:14285   */\n  dup3\n    /* \"#utility.yul\":14280:14289   */\n  add\n    /* \"#utility.yul\":14273:14289   */\n  swap1\n  pop\n    /* \"#utility.yul\":14308:14311   */\n  dup1\n    /* \"#utility.yul\":14305:14306   */\n  dup3\n    /* \"#utility.yul\":14302:14312   */\n  gt\n    /* \"#utility.yul\":14299:14335   */\n  iszero\n  tag_289\n  jumpi\n    /* \"#utility.yul\":14315:14333   */\n  tag_290\n  tag_111\n  jump\t// in\ntag_290:\n    /* \"#utility.yul\":14299:14335   */\ntag_289:\n    /* \"#utility.yul\":14151:14342   */\n  swap3\n  swap2\n  pop\n  pop\n  jump\t// out\n    /* \"#utility.yul\":14348:14790   */\ntag_71:\n    /* \"#utility.yul\":14497:14501   */\n  0x00\n    /* \"#utility.yul\":14535:14537   */\n  0x60\n    /* \"#utility.yul\":14524:14533   */\n  dup3\n    /* \"#utility.yul\":14520:14538   */\n  add\n    /* \"#utility.yul\":14512:14538   */\n  swap1\n  pop\n    /* \"#utility.yul\":14548:14619   */\n  tag_292\n    /* \"#utility.yul\":14616:14617   */\n  0x00\n    /* \"#utility.yul\":14605:14614   */\n  dup4\n    /* \"#utility.yul\":14601:14618   */\n  add\n    /* \"#utility.yul\":14592:14598   */\n  dup7\n    /* \"#utility.yul\":14548:14619   */\n  tag_110\n  jump\t// in\ntag_292:\n    /* \"#utility.yul\":14629:14701   */\n  tag_293\n    /* \"#utility.yul\":14697:14699   */\n  0x20\n    /* \"#utility.yul\":14686:14695   */\n  dup4\n    /* \"#utility.yul\":14682:14700   */\n  add\n    /* \"#utility.yul\":14673:14679   */\n  dup6\n    /* \"#utility.yul\":14629:14701   */\n  tag_117\n  jump\t// in\ntag_293:\n    /* \"#utility.yul\":14711:14783   */\n  tag_294\n    /* \"#utility.yul\":14779:14781   */\n  0x40\n    /* \"#utility.yul\":14768:14777   */\n  dup4\n    /* \"#utility.yul\":14764:14782   */\n  add\n    /* \"#utility.yul\":14755:14761   */\n  dup5\n    /* \"#utility.yul\":14711:14783   */\n  tag_117\n  jump\t// in\ntag_294:\n    /* \"#utility.yul\":14348:14790   */\n  swap5\n  swap4\n  pop\n  pop\n  pop\n  pop\n  jump\t// out\n    /* \"contracts/Qandeel.sol\":311:2509  contract QandellToken is ERC20, Ownable, Pausable {... */\ntag_28:\n  dataSize(sub_0)\n  dup1\n  dataOffset(sub_0)\n  0x00\n  codecopy\n  0x00\n  return\nstop\n\nsub_0: assembly {\n        /* \"contracts/Qandeel.sol\":311:2509  contract QandellToken is ERC20, Ownable, Pausable {... */\n      mstore(0x40, 0x80)\n      callvalue\n      dup1\n      iszero\n      tag_1\n      jumpi\n      revert(0x00, 0x00)\n    tag_1:\n      pop\n      jumpi(tag_2, lt(calldatasize, 0x04))\n      shr(0xe0, calldataload(0x00))\n      dup1\n      0x715018a6\n      gt\n      tag_23\n      jumpi\n      dup1\n      0xc4081a4c\n      gt\n      tag_24\n      jumpi\n      dup1\n      0xc4081a4c\n      eq\n      tag_18\n      jumpi\n      dup1\n      0xdd62ed3e\n      eq\n      tag_19\n      jumpi\n      dup1\n      0xe499cc8b\n      eq\n      tag_20\n      jumpi\n      dup1\n      0xea414b28\n      eq\n      tag_21\n      jumpi\n      dup1\n      0xf2fde38b\n      eq\n      tag_22\n      jumpi\n      jump(tag_2)\n    tag_24:\n      dup1\n      0x715018a6\n      eq\n      tag_13\n      jumpi\n      dup1\n      0x8da5cb5b\n      eq\n      tag_14\n      jumpi\n      dup1\n      0x95d89b41\n      eq\n      tag_15\n      jumpi\n      dup1\n      0xa071dcf4\n      eq\n      tag_16\n      jumpi\n      dup1\n      0xa9059cbb\n      eq\n      tag_17\n      jumpi\n      jump(tag_2)\n    tag_23:\n      dup1\n      0x2dc0562d\n      gt\n      tag_25\n      jumpi\n      dup1\n      0x2dc0562d\n      eq\n      tag_8\n      jumpi\n      dup1\n      0x313ce567\n      eq\n      tag_9\n      jumpi\n      dup1\n      0x40c10f19\n      eq\n      tag_10\n      jumpi\n      dup1\n      0x5c975abb\n      eq\n      tag_11\n      jumpi\n      dup1\n      0x70a08231\n      eq\n      tag_12\n      jumpi\n      jump(tag_2)\n    tag_25:\n      dup1\n      0x06fdde03\n      eq\n      tag_3\n      jumpi\n      dup1\n      0x095ea7b3\n      eq\n      tag_4\n      jumpi\n      dup1\n      0x18160ddd\n      eq\n      tag_5\n      jumpi\n      dup1\n      0x23b872dd\n      eq\n      tag_6\n      jumpi\n      dup1\n      0x297fc08f\n      eq\n      tag_7\n      jumpi\n    tag_2:\n      revert(0x00, 0x00)\n        /* \"@openzeppelin/contracts/token/ERC20/ERC20.sol\":1760:1849  function name() public view virtual returns (string memory) {... */\n    tag_3:\n      tag_26\n      tag_27\n      jump\t// in\n    tag_26:\n      mload(0x40)\n      tag_28\n      swap2\n      swap1\n      tag_29\n      jump\t// in\n    tag_28:\n      mload(0x40)\n      dup1\n      swap2\n      sub\n      swap1\n      return\n        /* \"@openzeppelin/contracts/token/ERC20/ERC20.sol\":3902:4088  function approve(address spender, uint256 value) public virtual returns (bool) {... */\n    tag_4:\n      tag_30\n      0x04\n      dup1\n      calldatasize\n      sub\n      dup2\n      add\n      swap1\n      tag_31\n      swap2\n      swap1\n      tag_32\n      jump\t// in\n    tag_31:\n      tag_33\n      jump\t// in\n    tag_30:\n      mload(0x40)\n      tag_34\n      swap2\n      swap1\n      tag_35\n      jump\t// in\n    tag_34:\n      mload(0x40)\n      dup1\n      swap2\n      sub\n      swap1\n      return\n        /* \"@openzeppelin/contracts/token/ERC20/ERC20.sol\":2803:2900  function totalSupply() public view virtual returns (uint256) {... */\n    tag_5:\n      tag_36\n      tag_37\n      jump\t// in\n    tag_36:\n      mload(0x40)\n      tag_38\n      swap2\n      swap1\n      tag_39\n      jump\t// in\n    tag_38:\n      mload(0x40)\n      dup1\n      swap2\n      sub\n      swap1\n      return\n        /* \"@openzeppelin/contracts/token/ERC20/ERC20.sol\":4680:4924  function transferFrom(address from, address to, uint256 value) public virtual returns (bool) {... */\n    tag_6:\n      tag_40\n      0x04\n      dup1\n      calldatasize\n      sub\n      dup2\n      add\n      swap1\n      tag_41\n      swap2\n      swap1\n      tag_42\n      jump\t// in\n    tag_41:\n      tag_43\n      jump\t// in\n    tag_40:\n      mload(0x40)\n      tag_44\n      swap2\n      swap1\n      tag_35\n      jump\t// in\n    tag_44:\n      mload(0x40)\n      dup1\n      swap2\n      sub\n      swap1\n      return\n        /* \"contracts/Qandeel.sol\":1880:1948  function onContracts() public onlyOwner{... */\n    tag_7:\n      tag_45\n      tag_46\n      jump\t// in\n    tag_45:\n      stop\n        /* \"contracts/Qandeel.sol\":674:698  address public taxWallet */\n    tag_8:\n      tag_47\n      tag_48\n      jump\t// in\n    tag_47:\n      mload(0x40)\n      tag_49\n      swap2\n      swap1\n      tag_50\n      jump\t// in\n    tag_49:\n      mload(0x40)\n      dup1\n      swap2\n      sub\n      swap1\n      return\n        /* \"@openzeppelin/contracts/token/ERC20/ERC20.sol\":2688:2770  function decimals() public view virtual returns (uint8) {... */\n    tag_9:\n      tag_51\n      tag_52\n      jump\t// in\n    tag_51:\n      mload(0x40)\n      tag_53\n      swap2\n      swap1\n      tag_54\n      jump\t// in\n    tag_53:\n      mload(0x40)\n      dup1\n      swap2\n      sub\n      swap1\n      return\n        /* \"contracts/Qandeel.sol\":2411:2506  function mint(address to, uint256 amount) public onlyOwner {... */\n    tag_10:\n      tag_55\n      0x04\n      dup1\n      calldatasize\n      sub\n      dup2\n      add\n      swap1\n      tag_56\n      swap2\n      swap1\n      tag_32\n      jump\t// in\n    tag_56:\n      tag_57\n      jump\t// in\n    tag_55:\n      stop\n        /* \"@openzeppelin/contracts/security/Pausable.sol\":1615:1699  function paused() public view virtual returns (bool) {... */\n    tag_11:\n      tag_58\n      tag_59\n      jump\t// in\n    tag_58:\n      mload(0x40)\n      tag_60\n      swap2\n      swap1\n      tag_35\n      jump\t// in\n    tag_60:\n      mload(0x40)\n      dup1\n      swap2\n      sub\n      swap1\n      return\n        /* \"@openzeppelin/contracts/token/ERC20/ERC20.sol\":2933:3049  function balanceOf(address account) public view virtual returns (uint256) {... */\n    tag_12:\n      tag_61\n      0x04\n      dup1\n      calldatasize\n      sub\n      dup2\n      add\n      swap1\n      tag_62\n      swap2\n      swap1\n      tag_63\n      jump\t// in\n    tag_62:\n      tag_64\n      jump\t// in\n    tag_61:\n      mload(0x40)\n      tag_65\n      swap2\n      swap1\n      tag_39\n      jump\t// in\n    tag_65:\n      mload(0x40)\n      dup1\n      swap2\n      sub\n      swap1\n      return\n        /* \"@openzeppelin/contracts/access/Ownable.sol\":2293:2394  function renounceOwnership() public virtual onlyOwner {... */\n    tag_13:\n      tag_66\n      tag_67\n      jump\t// in\n    tag_66:\n      stop\n        /* \"@openzeppelin/contracts/access/Ownable.sol\":1638:1723  function owner() public view virtual returns (address) {... */\n    tag_14:\n      tag_68\n      tag_69\n      jump\t// in\n    tag_68:\n      mload(0x40)\n      tag_70\n      swap2\n      swap1\n      tag_50\n      jump\t// in\n    tag_70:\n      mload(0x40)\n      dup1\n      swap2\n      sub\n      swap1\n      return\n        /* \"@openzeppelin/contracts/token/ERC20/ERC20.sol\":1962:2055  function symbol() public view virtual returns (string memory) {... */\n    tag_15:\n      tag_71\n      tag_72\n      jump\t// in\n    tag_71:\n      mload(0x40)\n      tag_73\n      swap2\n      swap1\n      tag_29\n      jump\t// in\n    tag_73:\n      mload(0x40)\n      dup1\n      swap2\n      sub\n      swap1\n      return\n        /* \"contracts/Qandeel.sol\":610:635  uint256 public taxFee = 5 */\n    tag_16:\n      tag_74\n      tag_75\n      jump\t// in\n    tag_74:\n      mload(0x40)\n      tag_76\n      swap2\n      swap1\n      tag_39\n      jump\t// in\n    tag_76:\n      mload(0x40)\n      dup1\n      swap2\n      sub\n      swap1\n      return\n        /* \"@openzeppelin/contracts/token/ERC20/ERC20.sol\":3244:3422  function transfer(address to, uint256 value) public virtual returns (bool) {... */\n    tag_17:\n      tag_77\n      0x04\n      dup1\n      calldatasize\n      sub\n      dup2\n      add\n      swap1\n      tag_78\n      swap2\n      swap1\n      tag_32\n      jump\t// in\n    tag_78:\n      tag_79\n      jump\t// in\n    tag_77:\n      mload(0x40)\n      tag_80\n      swap2\n      swap1\n      tag_35\n      jump\t// in\n    tag_80:\n      mload(0x40)\n      dup1\n      swap2\n      sub\n      swap1\n      return\n        /* \"contracts/Qandeel.sol\":2006:2175  function setTaxFee(uint256 newFee) public onlyOwner {... */\n    tag_18:\n      tag_81\n      0x04\n      dup1\n      calldatasize\n      sub\n      dup2\n      add\n      swap1\n      tag_82\n      swap2\n      swap1\n      tag_83\n      jump\t// in\n    tag_82:\n      tag_84\n      jump\t// in\n    tag_81:\n      stop\n        /* \"@openzeppelin/contracts/token/ERC20/ERC20.sol\":3455:3595  function allowance(address owner, address spender) public view virtual returns (uint256) {... */\n    tag_19:\n      tag_85\n      0x04\n      dup1\n      calldatasize\n      sub\n      dup2\n      add\n      swap1\n      tag_86\n      swap2\n      swap1\n      tag_87\n      jump\t// in\n    tag_86:\n      tag_88\n      jump\t// in\n    tag_85:\n      mload(0x40)\n      tag_89\n      swap2\n      swap1\n      tag_39\n      jump\t// in\n    tag_89:\n      mload(0x40)\n      dup1\n      swap2\n      sub\n      swap1\n      return\n        /* \"contracts/Qandeel.sol\":1807:1874  function offContracts() public onlyOwner{... */\n    tag_20:\n      tag_90\n      tag_91\n      jump\t// in\n    tag_90:\n      stop\n        /* \"contracts/Qandeel.sol\":2219:2369  function setTaxWallet(address newTaxWallet) public onlyOwner {... */\n    tag_21:\n      tag_92\n      0x04\n      dup1\n      calldatasize\n      sub\n      dup2\n      add\n      swap1\n      tag_93\n      swap2\n      swap1\n      tag_63\n      jump\t// in\n    tag_93:\n      tag_94\n      jump\t// in\n    tag_92:\n      stop\n        /* \"@openzeppelin/contracts/access/Ownable.sol\":2543:2758  function transferOwnership(address newOwner) public virtual onlyOwner {... */\n    tag_22:\n      tag_95\n      0x04\n      dup1\n      calldatasize\n      sub\n      dup2\n      add\n      swap1\n      tag_96\n      swap2\n      swap1\n      tag_63\n      jump\t// in\n    tag_96:\n      tag_97\n      jump\t// in\n    tag_95:\n      stop\n        /* \"@openzeppelin/contracts/token/ERC20/ERC20.sol\":1760:1849  function name() public view virtual returns (string memory) {... */\n    tag_27:\n        /* \"@openzeppelin/contracts/token/ERC20/ERC20.sol\":1805:1818  string memory */\n      0x60\n        /* \"@openzeppelin/contracts/token/ERC20/ERC20.sol\":1837:1842  _name */\n      0x03\n        /* \"@openzeppelin/contracts/token/ERC20/ERC20.sol\":1830:1842  return _name */\n      dup1\n      sload\n      tag_99\n      swap1\n      tag_100\n      jump\t// in\n    tag_99:\n      dup1\n      0x1f\n      add\n      0x20\n      dup1\n      swap2\n      div\n      mul\n      0x20\n      add\n      mload(0x40)\n      swap1\n      dup2\n      add\n      0x40\n      mstore\n      dup1\n      swap3\n      swap2\n      swap1\n      dup2\n      dup2\n      mstore\n      0x20\n      add\n      dup3\n      dup1\n      sload\n      tag_101\n      swap1\n      tag_100\n      jump\t// in\n    tag_101:\n      dup1\n      iszero\n      tag_102\n      jumpi\n      dup1\n      0x1f\n      lt\n      tag_103\n      jumpi\n      0x0100\n      dup1\n      dup4\n      sload\n      div\n      mul\n      dup4\n      mstore\n      swap2\n      0x20\n      add\n      swap2\n      jump(tag_102)\n    tag_103:\n      dup3\n      add\n      swap2\n      swap1\n      0x00\n      mstore\n      keccak256(0x00, 0x20)\n      swap1\n    tag_104:\n      dup2\n      sload\n      dup2\n      mstore\n      swap1\n      0x01\n      add\n      swap1\n      0x20\n      add\n      dup1\n      dup4\n      gt\n      tag_104\n      jumpi\n      dup3\n      swap1\n      sub\n      0x1f\n      and\n      dup3\n      add\n      swap2\n    tag_102:\n      pop\n      pop\n      pop\n      pop\n      pop\n      swap1\n      pop\n        /* \"@openzeppelin/contracts/token/ERC20/ERC20.sol\":1760:1849  function name() public view virtual returns (string memory) {... */\n      swap1\n      jump\t// out\n        /* \"@openzeppelin/contracts/token/ERC20/ERC20.sol\":3902:4088  function approve(address spender, uint256 value) public virtual returns (bool) {... */\n    tag_33:\n        /* \"@openzeppelin/contracts/token/ERC20/ERC20.sol\":3975:3979  bool */\n      0x00\n        /* \"@openzeppelin/contracts/token/ERC20/ERC20.sol\":3991:4004  address owner */\n      0x00\n        /* \"@openzeppelin/contracts/token/ERC20/ERC20.sol\":4007:4019  _msgSender() */\n      tag_106\n        /* \"@openzeppelin/contracts/token/ERC20/ERC20.sol\":4007:4017  _msgSender */\n      tag_107\n        /* \"@openzeppelin/contracts/token/ERC20/ERC20.sol\":4007:4019  _msgSender() */\n      jump\t// in\n    tag_106:\n        /* \"@openzeppelin/contracts/token/ERC20/ERC20.sol\":3991:4019  address owner = _msgSender() */\n      swap1\n      pop\n        /* \"@openzeppelin/contracts/token/ERC20/ERC20.sol\":4029:4060  _approve(owner, spender, value) */\n      tag_108\n        /* \"@openzeppelin/contracts/token/ERC20/ERC20.sol\":4038:4043  owner */\n      dup2\n        /* \"@openzeppelin/contracts/token/ERC20/ERC20.sol\":4045:4052  spender */\n      dup6\n        /* \"@openzeppelin/contracts/token/ERC20/ERC20.sol\":4054:4059  value */\n      dup6\n        /* \"@openzeppelin/contracts/token/ERC20/ERC20.sol\":4029:4037  _approve */\n      tag_109\n        /* \"@openzeppelin/contracts/token/ERC20/ERC20.sol\":4029:4060  _approve(owner, spender, value) */\n      jump\t// in\n    tag_108:\n        /* \"@openzeppelin/contracts/token/ERC20/ERC20.sol\":4077:4081  true */\n      0x01\n        /* \"@openzeppelin/contracts/token/ERC20/ERC20.sol\":4070:4081  return true */\n      swap2\n      pop\n      pop\n        /* \"@openzeppelin/contracts/token/ERC20/ERC20.sol\":3902:4088  function approve(address spender, uint256 value) public virtual returns (bool) {... */\n      swap3\n      swap2\n      pop\n      pop\n      jump\t// out\n        /* \"@openzeppelin/contracts/token/ERC20/ERC20.sol\":2803:2900  function totalSupply() public view virtual returns (uint256) {... */\n    tag_37:\n        /* \"@openzeppelin/contracts/token/ERC20/ERC20.sol\":2855:2862  uint256 */\n      0x00\n        /* \"@openzeppelin/contracts/token/ERC20/ERC20.sol\":2881:2893  _totalSupply */\n      sload(0x02)\n        /* \"@openzeppelin/contracts/token/ERC20/ERC20.sol\":2874:2893  return _totalSupply */\n      swap1\n      pop\n        /* \"@openzeppelin/contracts/token/ERC20/ERC20.sol\":2803:2900  function totalSupply() public view virtual returns (uint256) {... */\n      swap1\n      jump\t// out\n        /* \"@openzeppelin/contracts/token/ERC20/ERC20.sol\":4680:4924  function transferFrom(address from, address to, uint256 value) public virtual returns (bool) {... */\n    tag_43:\n        /* \"@openzeppelin/contracts/token/ERC20/ERC20.sol\":4767:4771  bool */\n      0x00\n        /* \"@openzeppelin/contracts/token/ERC20/ERC20.sol\":4783:4798  address spender */\n      0x00\n        /* \"@openzeppelin/contracts/token/ERC20/ERC20.sol\":4801:4813  _msgSender() */\n      tag_112\n        /* \"@openzeppelin/contracts/token/ERC20/ERC20.sol\":4801:4811  _msgSender */\n      tag_107\n        /* \"@openzeppelin/contracts/token/ERC20/ERC20.sol\":4801:4813  _msgSender() */\n      jump\t// in\n    tag_112:\n        /* \"@openzeppelin/contracts/token/ERC20/ERC20.sol\":4783:4813  address spender = _msgSender() */\n      swap1\n      pop\n        /* \"@openzeppelin/contracts/token/ERC20/ERC20.sol\":4823:4860  _spendAllowance(from, spender, value) */\n      tag_113\n        /* \"@openzeppelin/contracts/token/ERC20/ERC20.sol\":4839:4843  from */\n      dup6\n        /* \"@openzeppelin/contracts/token/ERC20/ERC20.sol\":4845:4852  spender */\n      dup3\n        /* \"@openzeppelin/contracts/token/ERC20/ERC20.sol\":4854:4859  value */\n      dup6\n        /* \"@openzeppelin/contracts/token/ERC20/ERC20.sol\":4823:4838  _spendAllowance */\n      tag_114\n        /* \"@openzeppelin/contracts/token/ERC20/ERC20.sol\":4823:4860  _spendAllowance(from, spender, value) */\n      jump\t// in\n    tag_113:\n        /* \"@openzeppelin/contracts/token/ERC20/ERC20.sol\":4870:4896  _transfer(from, to, value) */\n      tag_115\n        /* \"@openzeppelin/contracts/token/ERC20/ERC20.sol\":4880:4884  from */\n      dup6\n        /* \"@openzeppelin/contracts/token/ERC20/ERC20.sol\":4886:4888  to */\n      dup6\n        /* \"@openzeppelin/contracts/token/ERC20/ERC20.sol\":4890:4895  value */\n      dup6\n        /* \"@openzeppelin/contracts/token/ERC20/ERC20.sol\":4870:4879  _transfer */\n      tag_116\n        /* \"@openzeppelin/contracts/token/ERC20/ERC20.sol\":4870:4896  _transfer(from, to, value) */\n      jump\t// in\n    tag_115:\n        /* \"@openzeppelin/contracts/token/ERC20/ERC20.sol\":4913:4917  true */\n      0x01\n        /* \"@openzeppelin/contracts/token/ERC20/ERC20.sol\":4906:4917  return true */\n      swap2\n      pop\n      pop\n        /* \"@openzeppelin/contracts/token/ERC20/ERC20.sol\":4680:4924  function transferFrom(address from, address to, uint256 value) public virtual returns (bool) {... */\n      swap4\n      swap3\n      pop\n      pop\n      pop\n      jump\t// out\n        /* \"contracts/Qandeel.sol\":1880:1948  function onContracts() public onlyOwner{... */\n    tag_46:\n        /* \"@openzeppelin/contracts/access/Ownable.sol\":1531:1544  _checkOwner() */\n      tag_118\n        /* \"@openzeppelin/contracts/access/Ownable.sol\":1531:1542  _checkOwner */\n      tag_119\n        /* \"@openzeppelin/contracts/access/Ownable.sol\":1531:1544  _checkOwner() */\n      jump\t// in\n    tag_118:\n        /* \"contracts/Qandeel.sol\":1930:1940  _unpause() */\n      tag_121\n        /* \"contracts/Qandeel.sol\":1930:1938  _unpause */\n      tag_122\n        /* \"contracts/Qandeel.sol\":1930:1940  _unpause() */\n      jump\t// in\n    tag_121:\n        /* \"contracts/Qandeel.sol\":1880:1948  function onContracts() public onlyOwner{... */\n      jump\t// out\n        /* \"contracts/Qandeel.sol\":674:698  address public taxWallet */\n    tag_48:\n      0x07\n      0x00\n      swap1\n      sload\n      swap1\n      0x0100\n      exp\n      swap1\n      div\n      0xffffffffffffffffffffffffffffffffffffffff\n      and\n      dup2\n      jump\t// out\n        /* \"@openzeppelin/contracts/token/ERC20/ERC20.sol\":2688:2770  function decimals() public view virtual returns (uint8) {... */\n    tag_52:\n        /* \"@openzeppelin/contracts/token/ERC20/ERC20.sol\":2737:2742  uint8 */\n      0x00\n        /* \"@openzeppelin/contracts/token/ERC20/ERC20.sol\":2761:2763  18 */\n      0x12\n        /* \"@openzeppelin/contracts/token/ERC20/ERC20.sol\":2754:2763  return 18 */\n      swap1\n      pop\n        /* \"@openzeppelin/contracts/token/ERC20/ERC20.sol\":2688:2770  function decimals() public view virtual returns (uint8) {... */\n      swap1\n      jump\t// out\n        /* \"contracts/Qandeel.sol\":2411:2506  function mint(address to, uint256 amount) public onlyOwner {... */\n    tag_57:\n        /* \"@openzeppelin/contracts/access/Ownable.sol\":1531:1544  _checkOwner() */\n      tag_125\n        /* \"@openzeppelin/contracts/access/Ownable.sol\":1531:1542  _checkOwner */\n      tag_119\n        /* \"@openzeppelin/contracts/access/Ownable.sol\":1531:1544  _checkOwner() */\n      jump\t// in\n    tag_125:\n        /* \"contracts/Qandeel.sol\":2481:2498  _mint(to, amount) */\n      tag_127\n        /* \"contracts/Qandeel.sol\":2487:2489  to */\n      dup3\n        /* \"contracts/Qandeel.sol\":2491:2497  amount */\n      dup3\n        /* \"contracts/Qandeel.sol\":2481:2486  _mint */\n      tag_128\n        /* \"contracts/Qandeel.sol\":2481:2498  _mint(to, amount) */\n      jump\t// in\n    tag_127:\n        /* \"contracts/Qandeel.sol\":2411:2506  function mint(address to, uint256 amount) public onlyOwner {... */\n      pop\n      pop\n      jump\t// out\n        /* \"@openzeppelin/contracts/security/Pausable.sol\":1615:1699  function paused() public view virtual returns (bool) {... */\n    tag_59:\n        /* \"@openzeppelin/contracts/security/Pausable.sol\":1662:1666  bool */\n      0x00\n        /* \"@openzeppelin/contracts/security/Pausable.sol\":1685:1692  _paused */\n      0x05\n      0x14\n      swap1\n      sload\n      swap1\n      0x0100\n      exp\n      swap1\n      div\n      0xff\n      and\n        /* \"@openzeppelin/contracts/security/Pausable.sol\":1678:1692  return _paused */\n      swap1\n      pop\n        /* \"@openzeppelin/contracts/security/Pausable.sol\":1615:1699  function paused() public view virtual returns (bool) {... */\n      swap1\n      jump\t// out\n        /* \"@openzeppelin/contracts/token/ERC20/ERC20.sol\":2933:3049  function balanceOf(address account) public view virtual returns (uint256) {... */\n    tag_64:\n        /* \"@openzeppelin/contracts/token/ERC20/ERC20.sol\":2998:3005  uint256 */\n      0x00\n        /* \"@openzeppelin/contracts/token/ERC20/ERC20.sol\":3024:3033  _balances */\n      0x00\n        /* \"@openzeppelin/contracts/token/ERC20/ERC20.sol\":3024:3042  _balances[account] */\n      0x00\n        /* \"@openzeppelin/contracts/token/ERC20/ERC20.sol\":3034:3041  account */\n      dup4\n        /* \"@openzeppelin/contracts/token/ERC20/ERC20.sol\":3024:3042  _balances[account] */\n      0xffffffffffffffffffffffffffffffffffffffff\n      and\n      0xffffffffffffffffffffffffffffffffffffffff\n      and\n      dup2\n      mstore\n      0x20\n      add\n      swap1\n      dup2\n      mstore\n      0x20\n      add\n      0x00\n      keccak256\n      sload\n        /* \"@openzeppelin/contracts/token/ERC20/ERC20.sol\":3017:3042  return _balances[account] */\n      swap1\n      pop\n        /* \"@openzeppelin/contracts/token/ERC20/ERC20.sol\":2933:3049  function balanceOf(address account) public view virtual returns (uint256) {... */\n      swap2\n      swap1\n      pop\n      jump\t// out\n        /* \"@openzeppelin/contracts/access/Ownable.sol\":2293:2394  function renounceOwnership() public virtual onlyOwner {... */\n    tag_67:\n        /* \"@openzeppelin/contracts/access/Ownable.sol\":1531:1544  _checkOwner() */\n      tag_132\n        /* \"@openzeppelin/contracts/access/Ownable.sol\":1531:1542  _checkOwner */\n      tag_119\n        /* \"@openzeppelin/contracts/access/Ownable.sol\":1531:1544  _checkOwner() */\n      jump\t// in\n    tag_132:\n        /* \"@openzeppelin/contracts/access/Ownable.sol\":2357:2387  _transferOwnership(address(0)) */\n      tag_134\n        /* \"@openzeppelin/contracts/access/Ownable.sol\":2384:2385  0 */\n      0x00\n        /* \"@openzeppelin/contracts/access/Ownable.sol\":2357:2375  _transferOwnership */\n      tag_135\n        /* \"@openzeppelin/contracts/access/Ownable.sol\":2357:2387  _transferOwnership(address(0)) */\n      jump\t// in\n    tag_134:\n        /* \"@openzeppelin/contracts/access/Ownable.sol\":2293:2394  function renounceOwnership() public virtual onlyOwner {... */\n      jump\t// out\n        /* \"@openzeppelin/contracts/access/Ownable.sol\":1638:1723  function owner() public view virtual returns (address) {... */\n    tag_69:\n        /* \"@openzeppelin/contracts/access/Ownable.sol\":1684:1691  address */\n      0x00\n        /* \"@openzeppelin/contracts/access/Ownable.sol\":1710:1716  _owner */\n      0x05\n      0x00\n      swap1\n      sload\n      swap1\n      0x0100\n      exp\n      swap1\n      div\n      0xffffffffffffffffffffffffffffffffffffffff\n      and\n        /* \"@openzeppelin/contracts/access/Ownable.sol\":1703:1716  return _owner */\n      swap1\n      pop\n        /* \"@openzeppelin/contracts/access/Ownable.sol\":1638:1723  function owner() public view virtual returns (address) {... */\n      swap1\n      jump\t// out\n        /* \"@openzeppelin/contracts/token/ERC20/ERC20.sol\":1962:2055  function symbol() public view virtual returns (string memory) {... */\n    tag_72:\n        /* \"@openzeppelin/contracts/token/ERC20/ERC20.sol\":2009:2022  string memory */\n      0x60\n        /* \"@openzeppelin/contracts/token/ERC20/ERC20.sol\":2041:2048  _symbol */\n      0x04\n        /* \"@openzeppelin/contracts/token/ERC20/ERC20.sol\":2034:2048  return _symbol */\n      dup1\n      sload\n      tag_138\n      swap1\n      tag_100\n      jump\t// in\n    tag_138:\n      dup1\n      0x1f\n      add\n      0x20\n      dup1\n      swap2\n      div\n      mul\n      0x20\n      add\n      mload(0x40)\n      swap1\n      dup2\n      add\n      0x40\n      mstore\n      dup1\n      swap3\n      swap2\n      swap1\n      dup2\n      dup2\n      mstore\n      0x20\n      add\n      dup3\n      dup1\n      sload\n      tag_139\n      swap1\n      tag_100\n      jump\t// in\n    tag_139:\n      dup1\n      iszero\n      tag_140\n      jumpi\n      dup1\n      0x1f\n      lt\n      tag_141\n      jumpi\n      0x0100\n      dup1\n      dup4\n      sload\n      div\n      mul\n      dup4\n      mstore\n      swap2\n      0x20\n      add\n      swap2\n      jump(tag_140)\n    tag_141:\n      dup3\n      add\n      swap2\n      swap1\n      0x00\n      mstore\n      keccak256(0x00, 0x20)\n      swap1\n    tag_142:\n      dup2\n      sload\n      dup2\n      mstore\n      swap1\n      0x01\n      add\n      swap1\n      0x20\n      add\n      dup1\n      dup4\n      gt\n      tag_142\n      jumpi\n      dup3\n      swap1\n      sub\n      0x1f\n      and\n      dup3\n      add\n      swap2\n    tag_140:\n      pop\n      pop\n      pop\n      pop\n      pop\n      swap1\n      pop\n        /* \"@openzeppelin/contracts/token/ERC20/ERC20.sol\":1962:2055  function symbol() public view virtual returns (string memory) {... */\n      swap1\n      jump\t// out\n        /* \"contracts/Qandeel.sol\":610:635  uint256 public taxFee = 5 */\n    tag_75:\n      sload(0x06)\n      dup2\n      jump\t// out\n        /* \"@openzeppelin/contracts/token/ERC20/ERC20.sol\":3244:3422  function transfer(address to, uint256 value) public virtual returns (bool) {... */\n    tag_79:\n        /* \"@openzeppelin/contracts/token/ERC20/ERC20.sol\":3313:3317  bool */\n      0x00\n        /* \"@openzeppelin/contracts/token/ERC20/ERC20.sol\":3329:3342  address owner */\n      0x00\n        /* \"@openzeppelin/contracts/token/ERC20/ERC20.sol\":3345:3357  _msgSender() */\n      tag_144\n        /* \"@openzeppelin/contracts/token/ERC20/ERC20.sol\":3345:3355  _msgSender */\n      tag_107\n        /* \"@openzeppelin/contracts/token/ERC20/ERC20.sol\":3345:3357  _msgSender() */\n      jump\t// in\n    tag_144:\n        /* \"@openzeppelin/contracts/token/ERC20/ERC20.sol\":3329:3357  address owner = _msgSender() */\n      swap1\n      pop\n        /* \"@openzeppelin/contracts/token/ERC20/ERC20.sol\":3367:3394  _transfer(owner, to, value) */\n      tag_145\n        /* \"@openzeppelin/contracts/token/ERC20/ERC20.sol\":3377:3382  owner */\n      dup2\n        /* \"@openzeppelin/contracts/token/ERC20/ERC20.sol\":3384:3386  to */\n      dup6\n        /* \"@openzeppelin/contracts/token/ERC20/ERC20.sol\":3388:3393  value */\n      dup6\n        /* \"@openzeppelin/contracts/token/ERC20/ERC20.sol\":3367:3376  _transfer */\n      tag_116\n        /* \"@openzeppelin/contracts/token/ERC20/ERC20.sol\":3367:3394  _transfer(owner, to, value) */\n      jump\t// in\n    tag_145:\n        /* \"@openzeppelin/contracts/token/ERC20/ERC20.sol\":3411:3415  true */\n      0x01\n        /* \"@openzeppelin/contracts/token/ERC20/ERC20.sol\":3404:3415  return true */\n      swap2\n      pop\n      pop\n        /* \"@openzeppelin/contracts/token/ERC20/ERC20.sol\":3244:3422  function transfer(address to, uint256 value) public virtual returns (bool) {... */\n      swap3\n      swap2\n      pop\n      pop\n      jump\t// out\n        /* \"contracts/Qandeel.sol\":2006:2175  function setTaxFee(uint256 newFee) public onlyOwner {... */\n    tag_84:\n        /* \"@openzeppelin/contracts/access/Ownable.sol\":1531:1544  _checkOwner() */\n      tag_147\n        /* \"@openzeppelin/contracts/access/Ownable.sol\":1531:1542  _checkOwner */\n      tag_119\n        /* \"@openzeppelin/contracts/access/Ownable.sol\":1531:1544  _checkOwner() */\n      jump\t// in\n    tag_147:\n        /* \"contracts/Qandeel.sol\":2087:2089  10 */\n      0x0a\n        /* \"contracts/Qandeel.sol\":2077:2083  newFee */\n      dup2\n        /* \"contracts/Qandeel.sol\":2077:2089  newFee <= 10 */\n      gt\n      iszero\n        /* \"contracts/Qandeel.sol\":2069:2104  require(newFee <= 10, \"Max is 10%\") */\n      tag_149\n      jumpi\n      mload(0x40)\n      0x08c379a000000000000000000000000000000000000000000000000000000000\n      dup2\n      mstore\n      0x04\n      add\n      tag_150\n      swap1\n      tag_151\n      jump\t// in\n    tag_150:\n      mload(0x40)\n      dup1\n      swap2\n      sub\n      swap1\n      revert\n    tag_149:\n        /* \"contracts/Qandeel.sol\":2124:2130  newFee */\n      dup1\n        /* \"contracts/Qandeel.sol\":2115:2121  taxFee */\n      0x06\n        /* \"contracts/Qandeel.sol\":2115:2130  taxFee = newFee */\n      dup2\n      swap1\n      sstore\n      pop\n        /* \"contracts/Qandeel.sol\":2146:2167  TaxFeeChanged(newFee) */\n      0x7fc0bc3c16857357fdcc6d787ab6ac15be81359b9699c234fdcce90765df3894\n        /* \"contracts/Qandeel.sol\":2160:2166  newFee */\n      dup2\n        /* \"contracts/Qandeel.sol\":2146:2167  TaxFeeChanged(newFee) */\n      mload(0x40)\n      tag_152\n      swap2\n      swap1\n      tag_39\n      jump\t// in\n    tag_152:\n      mload(0x40)\n      dup1\n      swap2\n      sub\n      swap1\n      log1\n        /* \"contracts/Qandeel.sol\":2006:2175  function setTaxFee(uint256 newFee) public onlyOwner {... */\n      pop\n      jump\t// out\n        /* \"@openzeppelin/contracts/token/ERC20/ERC20.sol\":3455:3595  function allowance(address owner, address spender) public view virtual returns (uint256) {... */\n    tag_88:\n        /* \"@openzeppelin/contracts/token/ERC20/ERC20.sol\":3535:3542  uint256 */\n      0x00\n        /* \"@openzeppelin/contracts/token/ERC20/ERC20.sol\":3561:3572  _allowances */\n      0x01\n        /* \"@openzeppelin/contracts/token/ERC20/ERC20.sol\":3561:3579  _allowances[owner] */\n      0x00\n        /* \"@openzeppelin/contracts/token/ERC20/ERC20.sol\":3573:3578  owner */\n      dup5\n        /* \"@openzeppelin/contracts/token/ERC20/ERC20.sol\":3561:3579  _allowances[owner] */\n      0xffffffffffffffffffffffffffffffffffffffff\n      and\n      0xffffffffffffffffffffffffffffffffffffffff\n      and\n      dup2\n      mstore\n      0x20\n      add\n      swap1\n      dup2\n      mstore\n      0x20\n      add\n      0x00\n      keccak256\n        /* \"@openzeppelin/contracts/token/ERC20/ERC20.sol\":3561:3588  _allowances[owner][spender] */\n      0x00\n        /* \"@openzeppelin/contracts/token/ERC20/ERC20.sol\":3580:3587  spender */\n      dup4\n        /* \"@openzeppelin/contracts/token/ERC20/ERC20.sol\":3561:3588  _allowances[owner][spender] */\n      0xffffffffffffffffffffffffffffffffffffffff\n      and\n      0xffffffffffffffffffffffffffffffffffffffff\n      and\n      dup2\n      mstore\n      0x20\n      add\n      swap1\n      dup2\n      mstore\n      0x20\n      add\n      0x00\n      keccak256\n      sload\n        /* \"@openzeppelin/contracts/token/ERC20/ERC20.sol\":3554:3588  return _allowances[owner][spender] */\n      swap1\n      pop\n        /* \"@openzeppelin/contracts/token/ERC20/ERC20.sol\":3455:3595  function allowance(address owner, address spender) public view virtual returns (uint256) {... */\n      swap3\n      swap2\n      pop\n      pop\n      jump\t// out\n        /* \"contracts/Qandeel.sol\":1807:1874  function offContracts() public onlyOwner{... */\n    tag_91:\n        /* \"@openzeppelin/contracts/access/Ownable.sol\":1531:1544  _checkOwner() */\n      tag_155\n        /* \"@openzeppelin/contracts/access/Ownable.sol\":1531:1542  _checkOwner */\n      tag_119\n        /* \"@openzeppelin/contracts/access/Ownable.sol\":1531:1544  _checkOwner() */\n      jump\t// in\n    tag_155:\n        /* \"contracts/Qandeel.sol\":1858:1866  _pause() */\n      tag_157\n        /* \"contracts/Qandeel.sol\":1858:1864  _pause */\n      tag_158\n        /* \"contracts/Qandeel.sol\":1858:1866  _pause() */\n      jump\t// in\n    tag_157:\n        /* \"contracts/Qandeel.sol\":1807:1874  function offContracts() public onlyOwner{... */\n      jump\t// out\n        /* \"contracts/Qandeel.sol\":2219:2369  function setTaxWallet(address newTaxWallet) public onlyOwner {... */\n    tag_94:\n        /* \"@openzeppelin/contracts/access/Ownable.sol\":1531:1544  _checkOwner() */\n      tag_160\n        /* \"@openzeppelin/contracts/access/Ownable.sol\":1531:1542  _checkOwner */\n      tag_119\n        /* \"@openzeppelin/contracts/access/Ownable.sol\":1531:1544  _checkOwner() */\n      jump\t// in\n    tag_160:\n        /* \"contracts/Qandeel.sol\":2303:2315  newTaxWallet */\n      dup1\n        /* \"contracts/Qandeel.sol\":2291:2300  taxWallet */\n      0x07\n      0x00\n        /* \"contracts/Qandeel.sol\":2291:2315  taxWallet = newTaxWallet */\n      0x0100\n      exp\n      dup2\n      sload\n      dup2\n      0xffffffffffffffffffffffffffffffffffffffff\n      mul\n      not\n      and\n      swap1\n      dup4\n      0xffffffffffffffffffffffffffffffffffffffff\n      and\n      mul\n      or\n      swap1\n      sstore\n      pop\n        /* \"contracts/Qandeel.sol\":2348:2360  newTaxWallet */\n      dup1\n        /* \"contracts/Qandeel.sol\":2331:2361  TaxWalletChanged(newTaxWallet) */\n      0xffffffffffffffffffffffffffffffffffffffff\n      and\n      0xa263b61aab5ebdcff20c4c0c74c2589ea5ab52149abde19eca17ad52217899\n      mload(0x40)\n      mload(0x40)\n      dup1\n      swap2\n      sub\n      swap1\n      log2\n        /* \"contracts/Qandeel.sol\":2219:2369  function setTaxWallet(address newTaxWallet) public onlyOwner {... */\n      pop\n      jump\t// out\n        /* \"@openzeppelin/contracts/access/Ownable.sol\":2543:2758  function transferOwnership(address newOwner) public virtual onlyOwner {... */\n    tag_97:\n        /* \"@openzeppelin/contracts/access/Ownable.sol\":1531:1544  _checkOwner() */\n      tag_163\n        /* \"@openzeppelin/contracts/access/Ownable.sol\":1531:1542  _checkOwner */\n      tag_119\n        /* \"@openzeppelin/contracts/access/Ownable.sol\":1531:1544  _checkOwner() */\n      jump\t// in\n    tag_163:\n        /* \"@openzeppelin/contracts/access/Ownable.sol\":2647:2648  0 */\n      0x00\n        /* \"@openzeppelin/contracts/access/Ownable.sol\":2627:2649  newOwner == address(0) */\n      0xffffffffffffffffffffffffffffffffffffffff\n      and\n        /* \"@openzeppelin/contracts/access/Ownable.sol\":2627:2635  newOwner */\n      dup2\n        /* \"@openzeppelin/contracts/access/Ownable.sol\":2627:2649  newOwner == address(0) */\n      0xffffffffffffffffffffffffffffffffffffffff\n      and\n      sub\n        /* \"@openzeppelin/contracts/access/Ownable.sol\":2623:2714  if (newOwner == address(0)) {... */\n      tag_165\n      jumpi\n        /* \"@openzeppelin/contracts/access/Ownable.sol\":2700:2701  0 */\n      0x00\n        /* \"@openzeppelin/contracts/access/Ownable.sol\":2672:2703  OwnableInvalidOwner(address(0)) */\n      mload(0x40)\n      0x1e4fbdf700000000000000000000000000000000000000000000000000000000\n      dup2\n      mstore\n      0x04\n      add\n      tag_166\n      swap2\n      swap1\n      tag_50\n      jump\t// in\n    tag_166:\n      mload(0x40)\n      dup1\n      swap2\n      sub\n      swap1\n      revert\n        /* \"@openzeppelin/contracts/access/Ownable.sol\":2623:2714  if (newOwner == address(0)) {... */\n    tag_165:\n        /* \"@openzeppelin/contracts/access/Ownable.sol\":2723:2751  _transferOwnership(newOwner) */\n      tag_167\n        /* \"@openzeppelin/contracts/access/Ownable.sol\":2742:2750  newOwner */\n      dup2\n        /* \"@openzeppelin/contracts/access/Ownable.sol\":2723:2741  _transferOwnership */\n      tag_135\n        /* \"@openzeppelin/contracts/access/Ownable.sol\":2723:2751  _transferOwnership(newOwner) */\n      jump\t// in\n    tag_167:\n        /* \"@openzeppelin/contracts/access/Ownable.sol\":2543:2758  function transferOwnership(address newOwner) public virtual onlyOwner {... */\n      pop\n      jump\t// out\n        /* \"@openzeppelin/contracts/utils/Context.sol\":656:752  function _msgSender() internal view virtual returns (address) {... */\n    tag_107:\n        /* \"@openzeppelin/contracts/utils/Context.sol\":709:716  address */\n      0x00\n        /* \"@openzeppelin/contracts/utils/Context.sol\":735:745  msg.sender */\n      caller\n        /* \"@openzeppelin/contracts/utils/Context.sol\":728:745  return msg.sender */\n      swap1\n      pop\n        /* \"@openzeppelin/contracts/utils/Context.sol\":656:752  function _msgSender() internal view virtual returns (address) {... */\n      swap1\n      jump\t// out\n        /* \"@openzeppelin/contracts/token/ERC20/ERC20.sol\":8630:8758  function _approve(address owner, address spender, uint256 value) internal {... */\n    tag_109:\n        /* \"@openzeppelin/contracts/token/ERC20/ERC20.sol\":8714:8751  _approve(owner, spender, value, true) */\n      tag_170\n        /* \"@openzeppelin/contracts/token/ERC20/ERC20.sol\":8723:8728  owner */\n      dup4\n        /* \"@openzeppelin/contracts/token/ERC20/ERC20.sol\":8730:8737  spender */\n      dup4\n        /* \"@openzeppelin/contracts/token/ERC20/ERC20.sol\":8739:8744  value */\n      dup4\n        /* \"@openzeppelin/contracts/token/ERC20/ERC20.sol\":8746:8750  true */\n      0x01\n        /* \"@openzeppelin/contracts/token/ERC20/ERC20.sol\":8714:8722  _approve */\n      tag_171\n        /* \"@openzeppelin/contracts/token/ERC20/ERC20.sol\":8714:8751  _approve(owner, spender, value, true) */\n      jump\t// in\n    tag_170:\n        /* \"@openzeppelin/contracts/token/ERC20/ERC20.sol\":8630:8758  function _approve(address owner, address spender, uint256 value) internal {... */\n      pop\n      pop\n      pop\n      jump\t// out\n        /* \"@openzeppelin/contracts/token/ERC20/ERC20.sol\":10321:10797  function _spendAllowance(address owner, address spender, uint256 value) internal virtual {... */\n    tag_114:\n        /* \"@openzeppelin/contracts/token/ERC20/ERC20.sol\":10420:10444  uint256 currentAllowance */\n      0x00\n        /* \"@openzeppelin/contracts/token/ERC20/ERC20.sol\":10447:10472  allowance(owner, spender) */\n      tag_173\n        /* \"@openzeppelin/contracts/token/ERC20/ERC20.sol\":10457:10462  owner */\n      dup5\n        /* \"@openzeppelin/contracts/token/ERC20/ERC20.sol\":10464:10471  spender */\n      dup5\n        /* \"@openzeppelin/contracts/token/ERC20/ERC20.sol\":10447:10456  allowance */\n      tag_88\n        /* \"@openzeppelin/contracts/token/ERC20/ERC20.sol\":10447:10472  allowance(owner, spender) */\n      jump\t// in\n    tag_173:\n        /* \"@openzeppelin/contracts/token/ERC20/ERC20.sol\":10420:10472  uint256 currentAllowance = allowance(owner, spender) */\n      swap1\n      pop\n        /* \"@openzeppelin/contracts/token/ERC20/ERC20.sol\":10505:10522  type(uint256).max */\n      0xffffffffffffffffffffffffffffffffffffffffffffffffffffffffffffffff\n        /* \"@openzeppelin/contracts/token/ERC20/ERC20.sol\":10486:10502  currentAllowance */\n      dup2\n        /* \"@openzeppelin/contracts/token/ERC20/ERC20.sol\":10486:10522  currentAllowance < type(uint256).max */\n      lt\n        /* \"@openzeppelin/contracts/token/ERC20/ERC20.sol\":10482:10791  if (currentAllowance < type(uint256).max) {... */\n      iszero\n      tag_174\n      jumpi\n        /* \"@openzeppelin/contracts/token/ERC20/ERC20.sol\":10561:10566  value */\n      dup2\n        /* \"@openzeppelin/contracts/token/ERC20/ERC20.sol\":10542:10558  currentAllowance */\n      dup2\n        /* \"@openzeppelin/contracts/token/ERC20/ERC20.sol\":10542:10566  currentAllowance < value */\n      lt\n        /* \"@openzeppelin/contracts/token/ERC20/ERC20.sol\":10538:10668  if (currentAllowance < value) {... */\n      iszero\n      tag_175\n      jumpi\n        /* \"@openzeppelin/contracts/token/ERC20/ERC20.sol\":10620:10627  spender */\n      dup3\n        /* \"@openzeppelin/contracts/token/ERC20/ERC20.sol\":10629:10645  currentAllowance */\n      dup2\n        /* \"@openzeppelin/contracts/token/ERC20/ERC20.sol\":10647:10652  value */\n      dup4\n        /* \"@openzeppelin/contracts/token/ERC20/ERC20.sol\":10593:10653  ERC20InsufficientAllowance(spender, currentAllowance, value) */\n      mload(0x40)\n      0xfb8f41b200000000000000000000000000000000000000000000000000000000\n      dup2\n      mstore\n      0x04\n      add\n      tag_176\n      swap4\n      swap3\n      swap2\n      swap1\n      tag_177\n      jump\t// in\n    tag_176:\n      mload(0x40)\n      dup1\n      swap2\n      sub\n      swap1\n      revert\n        /* \"@openzeppelin/contracts/token/ERC20/ERC20.sol\":10538:10668  if (currentAllowance < value) {... */\n    tag_175:\n        /* \"@openzeppelin/contracts/token/ERC20/ERC20.sol\":10709:10766  _approve(owner, spender, currentAllowance - value, false) */\n      tag_178\n        /* \"@openzeppelin/contracts/token/ERC20/ERC20.sol\":10718:10723  owner */\n      dup5\n        /* \"@openzeppelin/contracts/token/ERC20/ERC20.sol\":10725:10732  spender */\n      dup5\n        /* \"@openzeppelin/contracts/token/ERC20/ERC20.sol\":10753:10758  value */\n      dup5\n        /* \"@openzeppelin/contracts/token/ERC20/ERC20.sol\":10734:10750  currentAllowance */\n      dup5\n        /* \"@openzeppelin/contracts/token/ERC20/ERC20.sol\":10734:10758  currentAllowance - value */\n      sub\n        /* \"@openzeppelin/contracts/token/ERC20/ERC20.sol\":10760:10765  false */\n      0x00\n        /* \"@openzeppelin/contracts/token/ERC20/ERC20.sol\":10709:10717  _approve */\n      tag_171\n        /* \"@openzeppelin/contracts/token/ERC20/ERC20.sol\":10709:10766  _approve(owner, spender, currentAllowance - value, false) */\n      jump\t// in\n    tag_178:\n        /* \"@openzeppelin/contracts/token/ERC20/ERC20.sol\":10482:10791  if (currentAllowance < type(uint256).max) {... */\n    tag_174:\n        /* \"@openzeppelin/contracts/token/ERC20/ERC20.sol\":10410:10797  {... */\n      pop\n        /* \"@openzeppelin/contracts/token/ERC20/ERC20.sol\":10321:10797  function _spendAllowance(address owner, address spender, uint256 value) internal virtual {... */\n      pop\n      pop\n      pop\n      jump\t// out\n        /* \"@openzeppelin/contracts/token/ERC20/ERC20.sol\":5297:5597  function _transfer(address from, address to, uint256 value) internal {... */\n    tag_116:\n        /* \"@openzeppelin/contracts/token/ERC20/ERC20.sol\":5396:5397  0 */\n      0x00\n        /* \"@openzeppelin/contracts/token/ERC20/ERC20.sol\":5380:5398  from == address(0) */\n      0xffffffffffffffffffffffffffffffffffffffff\n      and\n        /* \"@openzeppelin/contracts/token/ERC20/ERC20.sol\":5380:5384  from */\n      dup4\n        /* \"@openzeppelin/contracts/token/ERC20/ERC20.sol\":5380:5398  from == address(0) */\n      0xffffffffffffffffffffffffffffffffffffffff\n      and\n      sub\n        /* \"@openzeppelin/contracts/token/ERC20/ERC20.sol\":5376:5462  if (from == address(0)) {... */\n      tag_180\n      jumpi\n        /* \"@openzeppelin/contracts/token/ERC20/ERC20.sol\":5448:5449  0 */\n      0x00\n        /* \"@openzeppelin/contracts/token/ERC20/ERC20.sol\":5421:5451  ERC20InvalidSender(address(0)) */\n      mload(0x40)\n      0x96c6fd1e00000000000000000000000000000000000000000000000000000000\n      dup2\n      mstore\n      0x04\n      add\n      tag_181\n      swap2\n      swap1\n      tag_50\n      jump\t// in\n    tag_181:\n      mload(0x40)\n      dup1\n      swap2\n      sub\n      swap1\n      revert\n        /* \"@openzeppelin/contracts/token/ERC20/ERC20.sol\":5376:5462  if (from == address(0)) {... */\n    tag_180:\n        /* \"@openzeppelin/contracts/token/ERC20/ERC20.sol\":5489:5490  0 */\n      0x00\n        /* \"@openzeppelin/contracts/token/ERC20/ERC20.sol\":5475:5491  to == address(0) */\n      0xffffffffffffffffffffffffffffffffffffffff\n      and\n        /* \"@openzeppelin/contracts/token/ERC20/ERC20.sol\":5475:5477  to */\n      dup3\n        /* \"@openzeppelin/contracts/token/ERC20/ERC20.sol\":5475:5491  to == address(0) */\n      0xffffffffffffffffffffffffffffffffffffffff\n      and\n      sub\n        /* \"@openzeppelin/contracts/token/ERC20/ERC20.sol\":5471:5557  if (to == address(0)) {... */\n      tag_182\n      jumpi\n        /* \"@openzeppelin/contracts/token/ERC20/ERC20.sol\":5543:5544  0 */\n      0x00\n        /* \"@openzeppelin/contracts/token/ERC20/ERC20.sol\":5514:5546  ERC20InvalidReceiver(address(0)) */\n      mload(0x40)\n      0xec442f0500000000000000000000000000000000000000000000000000000000\n      dup2\n      mstore\n      0x04\n      add\n      tag_183\n      swap2\n      swap1\n      tag_50\n      jump\t// in\n    tag_183:\n      mload(0x40)\n      dup1\n      swap2\n      sub\n      swap1\n      revert\n        /* \"@openzeppelin/contracts/token/ERC20/ERC20.sol\":5471:5557  if (to == address(0)) {... */\n    tag_182:\n        /* \"@openzeppelin/contracts/token/ERC20/ERC20.sol\":5566:5590  _update(from, to, value) */\n      tag_184\n        /* \"@openzeppelin/contracts/token/ERC20/ERC20.sol\":5574:5578  from */\n      dup4\n        /* \"@openzeppelin/contracts/token/ERC20/ERC20.sol\":5580:5582  to */\n      dup4\n        /* \"@openzeppelin/contracts/token/ERC20/ERC20.sol\":5584:5589  value */\n      dup4\n        /* \"@openzeppelin/contracts/token/ERC20/ERC20.sol\":5566:5573  _update */\n      tag_185\n        /* \"@openzeppelin/contracts/token/ERC20/ERC20.sol\":5566:5590  _update(from, to, value) */\n      jump\t// in\n    tag_184:\n        /* \"@openzeppelin/contracts/token/ERC20/ERC20.sol\":5297:5597  function _transfer(address from, address to, uint256 value) internal {... */\n      pop\n      pop\n      pop\n      jump\t// out\n        /* \"@openzeppelin/contracts/access/Ownable.sol\":1796:1958  function _checkOwner() internal view virtual {... */\n    tag_119:\n        /* \"@openzeppelin/contracts/access/Ownable.sol\":1866:1878  _msgSender() */\n      tag_187\n        /* \"@openzeppelin/contracts/access/Ownable.sol\":1866:1876  _msgSender */\n      tag_107\n        /* \"@openzeppelin/contracts/access/Ownable.sol\":1866:1878  _msgSender() */\n      jump\t// in\n    tag_187:\n        /* \"@openzeppelin/contracts/access/Ownable.sol\":1855:1878  owner() != _msgSender() */\n      0xffffffffffffffffffffffffffffffffffffffff\n      and\n        /* \"@openzeppelin/contracts/access/Ownable.sol\":1855:1862  owner() */\n      tag_188\n        /* \"@openzeppelin/contracts/access/Ownable.sol\":1855:1860  owner */\n      tag_69\n        /* \"@openzeppelin/contracts/access/Ownable.sol\":1855:1862  owner() */\n      jump\t// in\n    tag_188:\n        /* \"@openzeppelin/contracts/access/Ownable.sol\":1855:1878  owner() != _msgSender() */\n      0xffffffffffffffffffffffffffffffffffffffff\n      and\n      eq\n        /* \"@openzeppelin/contracts/access/Ownable.sol\":1851:1952  if (owner() != _msgSender()) {... */\n      tag_189\n      jumpi\n        /* \"@openzeppelin/contracts/access/Ownable.sol\":1928:1940  _msgSender() */\n      tag_190\n        /* \"@openzeppelin/contracts/access/Ownable.sol\":1928:1938  _msgSender */\n      tag_107\n        /* \"@openzeppelin/contracts/access/Ownable.sol\":1928:1940  _msgSender() */\n      jump\t// in\n    tag_190:\n        /* \"@openzeppelin/contracts/access/Ownable.sol\":1901:1941  OwnableUnauthorizedAccount(_msgSender()) */\n      mload(0x40)\n      0x118cdaa700000000000000000000000000000000000000000000000000000000\n      dup2\n      mstore\n      0x04\n      add\n      tag_191\n      swap2\n      swap1\n      tag_50\n      jump\t// in\n    tag_191:\n      mload(0x40)\n      dup1\n      swap2\n      sub\n      swap1\n      revert\n        /* \"@openzeppelin/contracts/access/Ownable.sol\":1851:1952  if (owner() != _msgSender()) {... */\n    tag_189:\n        /* \"@openzeppelin/contracts/access/Ownable.sol\":1796:1958  function _checkOwner() internal view virtual {... */\n      jump\t// out\n        /* \"@openzeppelin/contracts/security/Pausable.sol\":2433:2550  function _unpause() internal virtual whenPaused {... */\n    tag_122:\n        /* \"@openzeppelin/contracts/security/Pausable.sol\":1486:1502  _requirePaused() */\n      tag_193\n        /* \"@openzeppelin/contracts/security/Pausable.sol\":1486:1500  _requirePaused */\n      tag_194\n        /* \"@openzeppelin/contracts/security/Pausable.sol\":1486:1502  _requirePaused() */\n      jump\t// in\n    tag_193:\n        /* \"@openzeppelin/contracts/security/Pausable.sol\":2501:2506  false */\n      0x00\n        /* \"@openzeppelin/contracts/security/Pausable.sol\":2491:2498  _paused */\n      0x05\n      0x14\n        /* \"@openzeppelin/contracts/security/Pausable.sol\":2491:2506  _paused = false */\n      0x0100\n      exp\n      dup2\n      sload\n      dup2\n      0xff\n      mul\n      not\n      and\n      swap1\n      dup4\n      iszero\n      iszero\n      mul\n      or\n      swap1\n      sstore\n      pop\n        /* \"@openzeppelin/contracts/security/Pausable.sol\":2521:2543  Unpaused(_msgSender()) */\n      0x5db9ee0a495bf2e6ff9c91a7834c1ba4fdd244a5e8aa4e537bd38aeae4b073aa\n        /* \"@openzeppelin/contracts/security/Pausable.sol\":2530:2542  _msgSender() */\n      tag_196\n        /* \"@openzeppelin/contracts/security/Pausable.sol\":2530:2540  _msgSender */\n      tag_107\n        /* \"@openzeppelin/contracts/security/Pausable.sol\":2530:2542  _msgSender() */\n      jump\t// in\n    tag_196:\n        /* \"@openzeppelin/contracts/security/Pausable.sol\":2521:2543  Unpaused(_msgSender()) */\n      mload(0x40)\n      tag_197\n      swap2\n      swap1\n      tag_50\n      jump\t// in\n    tag_197:\n      mload(0x40)\n      dup1\n      swap2\n      sub\n      swap1\n      log1\n        /* \"@openzeppelin/contracts/security/Pausable.sol\":2433:2550  function _unpause() internal virtual whenPaused {... */\n      jump\t// out\n        /* \"@openzeppelin/contracts/token/ERC20/ERC20.sol\":7362:7570  function _mint(address account, uint256 value) internal {... */\n    tag_128:\n        /* \"@openzeppelin/contracts/token/ERC20/ERC20.sol\":7451:7452  0 */\n      0x00\n        /* \"@openzeppelin/contracts/token/ERC20/ERC20.sol\":7432:7453  account == address(0) */\n      0xffffffffffffffffffffffffffffffffffffffff\n      and\n        /* \"@openzeppelin/contracts/token/ERC20/ERC20.sol\":7432:7439  account */\n      dup3\n        /* \"@openzeppelin/contracts/token/ERC20/ERC20.sol\":7432:7453  account == address(0) */\n      0xffffffffffffffffffffffffffffffffffffffff\n      and\n      sub\n        /* \"@openzeppelin/contracts/token/ERC20/ERC20.sol\":7428:7519  if (account == address(0)) {... */\n      tag_199\n      jumpi\n        /* \"@openzeppelin/contracts/token/ERC20/ERC20.sol\":7505:7506  0 */\n      0x00\n        /* \"@openzeppelin/contracts/token/ERC20/ERC20.sol\":7476:7508  ERC20InvalidReceiver(address(0)) */\n      mload(0x40)\n      0xec442f0500000000000000000000000000000000000000000000000000000000\n      dup2\n      mstore\n      0x04\n      add\n      tag_200\n      swap2\n      swap1\n      tag_50\n      jump\t// in\n    tag_200:\n      mload(0x40)\n      dup1\n      swap2\n      sub\n      swap1\n      revert\n        /* \"@openzeppelin/contracts/token/ERC20/ERC20.sol\":7428:7519  if (account == address(0)) {... */\n    tag_199:\n        /* \"@openzeppelin/contracts/token/ERC20/ERC20.sol\":7528:7563  _update(address(0), account, value) */\n      tag_201\n        /* \"@openzeppelin/contracts/token/ERC20/ERC20.sol\":7544:7545  0 */\n      0x00\n        /* \"@openzeppelin/contracts/token/ERC20/ERC20.sol\":7548:7555  account */\n      dup4\n        /* \"@openzeppelin/contracts/token/ERC20/ERC20.sol\":7557:7562  value */\n      dup4\n        /* \"@openzeppelin/contracts/token/ERC20/ERC20.sol\":7528:7535  _update */\n      tag_185\n        /* \"@openzeppelin/contracts/token/ERC20/ERC20.sol\":7528:7563  _update(address(0), account, value) */\n      jump\t// in\n    tag_201:\n        /* \"@openzeppelin/contracts/token/ERC20/ERC20.sol\":7362:7570  function _mint(address account, uint256 value) internal {... */\n      pop\n      pop\n      jump\t// out\n        /* \"@openzeppelin/contracts/access/Ownable.sol\":2912:3099  function _transferOwnership(address newOwner) internal virtual {... */\n    tag_135:\n        /* \"@openzeppelin/contracts/access/Ownable.sol\":2985:3001  address oldOwner */\n      0x00\n        /* \"@openzeppelin/contracts/access/Ownable.sol\":3004:3010  _owner */\n      0x05\n      0x00\n      swap1\n      sload\n      swap1\n      0x0100\n      exp\n      swap1\n      div\n      0xffffffffffffffffffffffffffffffffffffffff\n      and\n        /* \"@openzeppelin/contracts/access/Ownable.sol\":2985:3010  address oldOwner = _owner */\n      swap1\n      pop\n        /* \"@openzeppelin/contracts/access/Ownable.sol\":3029:3037  newOwner */\n      dup2\n        /* \"@openzeppelin/contracts/access/Ownable.sol\":3020:3026  _owner */\n      0x05\n      0x00\n        /* \"@openzeppelin/contracts/access/Ownable.sol\":3020:3037  _owner = newOwner */\n      0x0100\n      exp\n      dup2\n      sload\n      dup2\n      0xffffffffffffffffffffffffffffffffffffffff\n      mul\n      not\n      and\n      swap1\n      dup4\n      0xffffffffffffffffffffffffffffffffffffffff\n      and\n      mul\n      or\n      swap1\n      sstore\n      pop\n        /* \"@openzeppelin/contracts/access/Ownable.sol\":3083:3091  newOwner */\n      dup2\n        /* \"@openzeppelin/contracts/access/Ownable.sol\":3052:3092  OwnershipTransferred(oldOwner, newOwner) */\n      0xffffffffffffffffffffffffffffffffffffffff\n      and\n        /* \"@openzeppelin/contracts/access/Ownable.sol\":3073:3081  oldOwner */\n      dup2\n        /* \"@openzeppelin/contracts/access/Ownable.sol\":3052:3092  OwnershipTransferred(oldOwner, newOwner) */\n      0xffffffffffffffffffffffffffffffffffffffff\n      and\n      0x8be0079c531659141344cd1fd0a4f28419497f9722a3daafe3b4186f6b6457e0\n      mload(0x40)\n      mload(0x40)\n      dup1\n      swap2\n      sub\n      swap1\n      log3\n        /* \"@openzeppelin/contracts/access/Ownable.sol\":2975:3099  {... */\n      pop\n        /* \"@openzeppelin/contracts/access/Ownable.sol\":2912:3099  function _transferOwnership(address newOwner) internal virtual {... */\n      pop\n      jump\t// out\n        /* \"@openzeppelin/contracts/security/Pausable.sol\":2186:2301  function _pause() internal virtual whenNotPaused {... */\n    tag_158:\n        /* \"@openzeppelin/contracts/security/Pausable.sol\":1239:1258  _requireNotPaused() */\n      tag_204\n        /* \"@openzeppelin/contracts/security/Pausable.sol\":1239:1256  _requireNotPaused */\n      tag_205\n        /* \"@openzeppelin/contracts/security/Pausable.sol\":1239:1258  _requireNotPaused() */\n      jump\t// in\n    tag_204:\n        /* \"@openzeppelin/contracts/security/Pausable.sol\":2255:2259  true */\n      0x01\n        /* \"@openzeppelin/contracts/security/Pausable.sol\":2245:2252  _paused */\n      0x05\n      0x14\n        /* \"@openzeppelin/contracts/security/Pausable.sol\":2245:2259  _paused = true */\n      0x0100\n      exp\n      dup2\n      sload\n      dup2\n      0xff\n      mul\n      not\n      and\n      swap1\n      dup4\n      iszero\n      iszero\n      mul\n      or\n      swap1\n      sstore\n      pop\n        /* \"@openzeppelin/contracts/security/Pausable.sol\":2274:2294  Paused(_msgSender()) */\n      0x62e78cea01bee320cd4e420270b5ea74000d11b0c9f74754ebdbfc544b05a258\n        /* \"@openzeppelin/contracts/security/Pausable.sol\":2281:2293  _msgSender() */\n      tag_207\n        /* \"@openzeppelin/contracts/security/Pausable.sol\":2281:2291  _msgSender */\n      tag_107\n        /* \"@openzeppelin/contracts/security/Pausable.sol\":2281:2293  _msgSender() */\n      jump\t// in\n    tag_207:\n        /* \"@openzeppelin/contracts/security/Pausable.sol\":2274:2294  Paused(_msgSender()) */\n      mload(0x40)\n      tag_208\n      swap2\n      swap1\n      tag_50\n      jump\t// in\n    tag_208:\n      mload(0x40)\n      dup1\n      swap2\n      sub\n      swap1\n      log1\n        /* \"@openzeppelin/contracts/security/Pausable.sol\":2186:2301  function _pause() internal virtual whenNotPaused {... */\n      jump\t// out\n        /* \"@openzeppelin/contracts/token/ERC20/ERC20.sol\":9607:10039  function _approve(address owner, address spender, uint256 value, bool emitEvent) internal virtual {... */\n    tag_171:\n        /* \"@openzeppelin/contracts/token/ERC20/ERC20.sol\":9736:9737  0 */\n      0x00\n        /* \"@openzeppelin/contracts/token/ERC20/ERC20.sol\":9719:9738  owner == address(0) */\n      0xffffffffffffffffffffffffffffffffffffffff\n      and\n        /* \"@openzeppelin/contracts/token/ERC20/ERC20.sol\":9719:9724  owner */\n      dup5\n        /* \"@openzeppelin/contracts/token/ERC20/ERC20.sol\":9719:9738  owner == address(0) */\n      0xffffffffffffffffffffffffffffffffffffffff\n      and\n      sub\n        /* \"@openzeppelin/contracts/token/ERC20/ERC20.sol\":9715:9804  if (owner == address(0)) {... */\n      tag_210\n      jumpi\n        /* \"@openzeppelin/contracts/token/ERC20/ERC20.sol\":9790:9791  0 */\n      0x00\n        /* \"@openzeppelin/contracts/token/ERC20/ERC20.sol\":9761:9793  ERC20InvalidApprover(address(0)) */\n      mload(0x40)\n      0xe602df0500000000000000000000000000000000000000000000000000000000\n      dup2\n      mstore\n      0x04\n      add\n      tag_211\n      swap2\n      swap1\n      tag_50\n      jump\t// in\n    tag_211:\n      mload(0x40)\n      dup1\n      swap2\n      sub\n      swap1\n      revert\n        /* \"@openzeppelin/contracts/token/ERC20/ERC20.sol\":9715:9804  if (owner == address(0)) {... */\n    tag_210:\n        /* \"@openzeppelin/contracts/token/ERC20/ERC20.sol\":9836:9837  0 */\n      0x00\n        /* \"@openzeppelin/contracts/token/ERC20/ERC20.sol\":9817:9838  spender == address(0) */\n      0xffffffffffffffffffffffffffffffffffffffff\n      and\n        /* \"@openzeppelin/contracts/token/ERC20/ERC20.sol\":9817:9824  spender */\n      dup4\n        /* \"@openzeppelin/contracts/token/ERC20/ERC20.sol\":9817:9838  spender == address(0) */\n      0xffffffffffffffffffffffffffffffffffffffff\n      and\n      sub\n        /* \"@openzeppelin/contracts/token/ERC20/ERC20.sol\":9813:9903  if (spender == address(0)) {... */\n      tag_212\n      jumpi\n        /* \"@openzeppelin/contracts/token/ERC20/ERC20.sol\":9889:9890  0 */\n      0x00\n        /* \"@openzeppelin/contracts/token/ERC20/ERC20.sol\":9861:9892  ERC20InvalidSpender(address(0)) */\n      mload(0x40)\n      0x94280d6200000000000000000000000000000000000000000000000000000000\n      dup2\n      mstore\n      0x04\n      add\n      tag_213\n      swap2\n      swap1\n      tag_50\n      jump\t// in\n    tag_213:\n      mload(0x40)\n      dup1\n      swap2\n      sub\n      swap1\n      revert\n        /* \"@openzeppelin/contracts/token/ERC20/ERC20.sol\":9813:9903  if (spender == address(0)) {... */\n    tag_212:\n        /* \"@openzeppelin/contracts/token/ERC20/ERC20.sol\":9942:9947  value */\n      dup2\n        /* \"@openzeppelin/contracts/token/ERC20/ERC20.sol\":9912:9923  _allowances */\n      0x01\n        /* \"@openzeppelin/contracts/token/ERC20/ERC20.sol\":9912:9930  _allowances[owner] */\n      0x00\n        /* \"@openzeppelin/contracts/token/ERC20/ERC20.sol\":9924:9929  owner */\n      dup7\n        /* \"@openzeppelin/contracts/token/ERC20/ERC20.sol\":9912:9930  _allowances[owner] */\n      0xffffffffffffffffffffffffffffffffffffffff\n      and\n      0xffffffffffffffffffffffffffffffffffffffff\n      and\n      dup2\n      mstore\n      0x20\n      add\n      swap1\n      dup2\n      mstore\n      0x20\n      add\n      0x00\n      keccak256\n        /* \"@openzeppelin/contracts/token/ERC20/ERC20.sol\":9912:9939  _allowances[owner][spender] */\n      0x00\n        /* \"@openzeppelin/contracts/token/ERC20/ERC20.sol\":9931:9938  spender */\n      dup6\n        /* \"@openzeppelin/contracts/token/ERC20/ERC20.sol\":9912:9939  _allowances[owner][spender] */\n      0xffffffffffffffffffffffffffffffffffffffff\n      and\n      0xffffffffffffffffffffffffffffffffffffffff\n      and\n      dup2\n      mstore\n      0x20\n      add\n      swap1\n      dup2\n      mstore\n      0x20\n      add\n      0x00\n      keccak256\n        /* \"@openzeppelin/contracts/token/ERC20/ERC20.sol\":9912:9947  _allowances[owner][spender] = value */\n      dup2\n      swap1\n      sstore\n      pop\n        /* \"@openzeppelin/contracts/token/ERC20/ERC20.sol\":9961:9970  emitEvent */\n      dup1\n        /* \"@openzeppelin/contracts/token/ERC20/ERC20.sol\":9957:10033  if (emitEvent) {... */\n      iszero\n      tag_214\n      jumpi\n        /* \"@openzeppelin/contracts/token/ERC20/ERC20.sol\":10007:10014  spender */\n      dup3\n        /* \"@openzeppelin/contracts/token/ERC20/ERC20.sol\":9991:10022  Approval(owner, spender, value) */\n      0xffffffffffffffffffffffffffffffffffffffff\n      and\n        /* \"@openzeppelin/contracts/token/ERC20/ERC20.sol\":10000:10005  owner */\n      dup5\n        /* \"@openzeppelin/contracts/token/ERC20/ERC20.sol\":9991:10022  Approval(owner, spender, value) */\n      0xffffffffffffffffffffffffffffffffffffffff\n      and\n      0x8c5be1e5ebec7d5bd14f71427d1e84f3dd0314c0f7b2291e5b200ac8c7c3b925\n        /* \"@openzeppelin/contracts/token/ERC20/ERC20.sol\":10016:10021  value */\n      dup5\n        /* \"@openzeppelin/contracts/token/ERC20/ERC20.sol\":9991:10022  Approval(owner, spender, value) */\n      mload(0x40)\n      tag_215\n      swap2\n      swap1\n      tag_39\n      jump\t// in\n    tag_215:\n      mload(0x40)\n      dup1\n      swap2\n      sub\n      swap1\n      log3\n        /* \"@openzeppelin/contracts/token/ERC20/ERC20.sol\":9957:10033  if (emitEvent) {... */\n    tag_214:\n        /* \"@openzeppelin/contracts/token/ERC20/ERC20.sol\":9607:10039  function _approve(address owner, address spender, uint256 value, bool emitEvent) internal virtual {... */\n      pop\n      pop\n      pop\n      pop\n      jump\t// out\n        /* \"contracts/Qandeel.sol\":1108:1748  function _update(address from, address to, uint256 value) internal override whenNotPaused {... */\n    tag_185:\n        /* \"@openzeppelin/contracts/security/Pausable.sol\":1239:1258  _requireNotPaused() */\n      tag_217\n        /* \"@openzeppelin/contracts/security/Pausable.sol\":1239:1256  _requireNotPaused */\n      tag_205\n        /* \"@openzeppelin/contracts/security/Pausable.sol\":1239:1258  _requireNotPaused() */\n      jump\t// in\n    tag_217:\n        /* \"contracts/Qandeel.sol\":1308:1309  0 */\n      0x00\n        /* \"contracts/Qandeel.sol\":1292:1310  from != address(0) */\n      0xffffffffffffffffffffffffffffffffffffffff\n      and\n        /* \"contracts/Qandeel.sol\":1292:1296  from */\n      dup4\n        /* \"contracts/Qandeel.sol\":1292:1310  from != address(0) */\n      0xffffffffffffffffffffffffffffffffffffffff\n      and\n      eq\n      iszero\n        /* \"contracts/Qandeel.sol\":1292:1330  from != address(0) && to != address(0) */\n      dup1\n      iszero\n      tag_219\n      jumpi\n      pop\n        /* \"contracts/Qandeel.sol\":1328:1329  0 */\n      0x00\n        /* \"contracts/Qandeel.sol\":1314:1330  to != address(0) */\n      0xffffffffffffffffffffffffffffffffffffffff\n      and\n        /* \"contracts/Qandeel.sol\":1314:1316  to */\n      dup3\n        /* \"contracts/Qandeel.sol\":1314:1330  to != address(0) */\n      0xffffffffffffffffffffffffffffffffffffffff\n      and\n      eq\n      iszero\n        /* \"contracts/Qandeel.sol\":1292:1330  from != address(0) && to != address(0) */\n    tag_219:\n        /* \"contracts/Qandeel.sol\":1292:1349  from != address(0) && to != address(0) && from != owner() */\n      dup1\n      iszero\n      tag_220\n      jumpi\n      pop\n        /* \"contracts/Qandeel.sol\":1342:1349  owner() */\n      tag_221\n        /* \"contracts/Qandeel.sol\":1342:1347  owner */\n      tag_69\n        /* \"contracts/Qandeel.sol\":1342:1349  owner() */\n      jump\t// in\n    tag_221:\n        /* \"contracts/Qandeel.sol\":1334:1349  from != owner() */\n      0xffffffffffffffffffffffffffffffffffffffff\n      and\n        /* \"contracts/Qandeel.sol\":1334:1338  from */\n      dup4\n        /* \"contracts/Qandeel.sol\":1334:1349  from != owner() */\n      0xffffffffffffffffffffffffffffffffffffffff\n      and\n      eq\n      iszero\n        /* \"contracts/Qandeel.sol\":1292:1349  from != address(0) && to != address(0) && from != owner() */\n    tag_220:\n        /* \"contracts/Qandeel.sol\":1288:1741  if (from != address(0) && to != address(0) && from != owner()) {... */\n      iszero\n      tag_222\n      jumpi\n        /* \"contracts/Qandeel.sol\":1380:1391  uint256 tax */\n      0x00\n        /* \"contracts/Qandeel.sol\":1413:1416  100 */\n      0x64\n        /* \"contracts/Qandeel.sol\":1403:1409  taxFee */\n      sload(0x06)\n        /* \"contracts/Qandeel.sol\":1395:1400  value */\n      dup4\n        /* \"contracts/Qandeel.sol\":1395:1409  value * taxFee */\n      tag_223\n      swap2\n      swap1\n      tag_224\n      jump\t// in\n    tag_223:\n        /* \"contracts/Qandeel.sol\":1394:1416  (value * taxFee) / 100 */\n      tag_225\n      swap2\n      swap1\n      tag_226\n      jump\t// in\n    tag_225:\n        /* \"contracts/Qandeel.sol\":1380:1416  uint256 tax = (value * taxFee) / 100 */\n      swap1\n      pop\n        /* \"contracts/Qandeel.sol\":1437:1455  uint256 sendAmount */\n      0x00\n        /* \"contracts/Qandeel.sol\":1466:1469  tax */\n      dup2\n        /* \"contracts/Qandeel.sol\":1458:1463  value */\n      dup4\n        /* \"contracts/Qandeel.sol\":1458:1469  value - tax */\n      tag_227\n      swap2\n      swap1\n      tag_228\n      jump\t// in\n    tag_227:\n        /* \"contracts/Qandeel.sol\":1437:1469  uint256 sendAmount = value - tax */\n      swap1\n      pop\n        /* \"contracts/Qandeel.sol\":1501:1536  super._update(from, taxWallet, tax) */\n      tag_229\n        /* \"contracts/Qandeel.sol\":1515:1519  from */\n      dup6\n        /* \"contracts/Qandeel.sol\":1521:1530  taxWallet */\n      0x07\n      0x00\n      swap1\n      sload\n      swap1\n      0x0100\n      exp\n      swap1\n      div\n      0xffffffffffffffffffffffffffffffffffffffff\n      and\n        /* \"contracts/Qandeel.sol\":1532:1535  tax */\n      dup5\n        /* \"contracts/Qandeel.sol\":1501:1514  super._update */\n      tag_230\n        /* \"contracts/Qandeel.sol\":1501:1536  super._update(from, taxWallet, tax) */\n      jump\t// in\n    tag_229:\n        /* \"contracts/Qandeel.sol\":1552:1587  super._update(from, to, sendAmount) */\n      tag_231\n        /* \"contracts/Qandeel.sol\":1566:1570  from */\n      dup6\n        /* \"contracts/Qandeel.sol\":1572:1574  to */\n      dup6\n        /* \"contracts/Qandeel.sol\":1576:1586  sendAmount */\n      dup4\n        /* \"contracts/Qandeel.sol\":1552:1565  super._update */\n      tag_230\n        /* \"contracts/Qandeel.sol\":1552:1587  super._update(from, to, sendAmount) */\n      jump\t// in\n    tag_231:\n        /* \"contracts/Qandeel.sol\":1635:1639  from */\n      dup5\n        /* \"contracts/Qandeel.sol\":1622:1645  TaxCollected(from, tax) */\n      0xffffffffffffffffffffffffffffffffffffffff\n      and\n      0x7f1b726f82f7a14636a7a5932448f1bce683188520ba3150fd8423989353ebf2\n        /* \"contracts/Qandeel.sol\":1641:1644  tax */\n      dup4\n        /* \"contracts/Qandeel.sol\":1622:1645  TaxCollected(from, tax) */\n      mload(0x40)\n      tag_232\n      swap2\n      swap1\n      tag_39\n      jump\t// in\n    tag_232:\n      mload(0x40)\n      dup1\n      swap2\n      sub\n      swap1\n      log2\n        /* \"contracts/Qandeel.sol\":1351:1678  {... */\n      pop\n      pop\n        /* \"contracts/Qandeel.sol\":1288:1741  if (from != address(0) && to != address(0) && from != owner()) {... */\n      jump(tag_233)\n    tag_222:\n        /* \"contracts/Qandeel.sol\":1699:1729  super._update(from, to, value) */\n      tag_234\n        /* \"contracts/Qandeel.sol\":1713:1717  from */\n      dup4\n        /* \"contracts/Qandeel.sol\":1719:1721  to */\n      dup4\n        /* \"contracts/Qandeel.sol\":1723:1728  value */\n      dup4\n        /* \"contracts/Qandeel.sol\":1699:1712  super._update */\n      tag_230\n        /* \"contracts/Qandeel.sol\":1699:1729  super._update(from, to, value) */\n      jump\t// in\n    tag_234:\n        /* \"contracts/Qandeel.sol\":1288:1741  if (from != address(0) && to != address(0) && from != owner()) {... */\n    tag_233:\n        /* \"contracts/Qandeel.sol\":1108:1748  function _update(address from, address to, uint256 value) internal override whenNotPaused {... */\n      pop\n      pop\n      pop\n      jump\t// out\n        /* \"@openzeppelin/contracts/security/Pausable.sol\":1945:2051  function _requirePaused() internal view virtual {... */\n    tag_194:\n        /* \"@openzeppelin/contracts/security/Pausable.sol\":2011:2019  paused() */\n      tag_236\n        /* \"@openzeppelin/contracts/security/Pausable.sol\":2011:2017  paused */\n      tag_59\n        /* \"@openzeppelin/contracts/security/Pausable.sol\":2011:2019  paused() */\n      jump\t// in\n    tag_236:\n        /* \"@openzeppelin/contracts/security/Pausable.sol\":2003:2044  require(paused(), \"Pausable: not paused\") */\n      tag_237\n      jumpi\n      mload(0x40)\n      0x08c379a000000000000000000000000000000000000000000000000000000000\n      dup2\n      mstore\n      0x04\n      add\n      tag_238\n      swap1\n      tag_239\n      jump\t// in\n    tag_238:\n      mload(0x40)\n      dup1\n      swap2\n      sub\n      swap1\n      revert\n    tag_237:\n        /* \"@openzeppelin/contracts/security/Pausable.sol\":1945:2051  function _requirePaused() internal view virtual {... */\n      jump\t// out\n        /* \"@openzeppelin/contracts/security/Pausable.sol\":1767:1873  function _requireNotPaused() internal view virtual {... */\n    tag_205:\n        /* \"@openzeppelin/contracts/security/Pausable.sol\":1837:1845  paused() */\n      tag_241\n        /* \"@openzeppelin/contracts/security/Pausable.sol\":1837:1843  paused */\n      tag_59\n        /* \"@openzeppelin/contracts/security/Pausable.sol\":1837:1845  paused() */\n      jump\t// in\n    tag_241:\n        /* \"@openzeppelin/contracts/security/Pausable.sol\":1836:1845  !paused() */\n      iszero\n        /* \"@openzeppelin/contracts/security/Pausable.sol\":1828:1866  require(!paused(), \"Pausable: paused\") */\n      tag_242\n      jumpi\n      mload(0x40)\n      0x08c379a000000000000000000000000000000000000000000000000000000000\n      dup2\n      mstore\n      0x04\n      add\n      tag_243\n      swap1\n      tag_244\n      jump\t// in\n    tag_243:\n      mload(0x40)\n      dup1\n      swap2\n      sub\n      swap1\n      revert\n    tag_242:\n        /* \"@openzeppelin/contracts/security/Pausable.sol\":1767:1873  function _requireNotPaused() internal view virtual {... */\n      jump\t// out\n        /* \"@openzeppelin/contracts/token/ERC20/ERC20.sol\":5912:7019  function _update(address from, address to, uint256 value) internal virtual {... */\n    tag_230:\n        /* \"@openzeppelin/contracts/token/ERC20/ERC20.sol\":6017:6018  0 */\n      0x00\n        /* \"@openzeppelin/contracts/token/ERC20/ERC20.sol\":6001:6019  from == address(0) */\n      0xffffffffffffffffffffffffffffffffffffffff\n      and\n        /* \"@openzeppelin/contracts/token/ERC20/ERC20.sol\":6001:6005  from */\n      dup4\n        /* \"@openzeppelin/contracts/token/ERC20/ERC20.sol\":6001:6019  from == address(0) */\n      0xffffffffffffffffffffffffffffffffffffffff\n      and\n      sub\n        /* \"@openzeppelin/contracts/token/ERC20/ERC20.sol\":5997:6537  if (from == address(0)) {... */\n      tag_246\n      jumpi\n        /* \"@openzeppelin/contracts/token/ERC20/ERC20.sol\":6153:6158  value */\n      dup1\n        /* \"@openzeppelin/contracts/token/ERC20/ERC20.sol\":6137:6149  _totalSupply */\n      0x02\n      0x00\n        /* \"@openzeppelin/contracts/token/ERC20/ERC20.sol\":6137:6158  _totalSupply += value */\n      dup3\n      dup3\n      sload\n      tag_247\n      swap2\n      swap1\n      tag_248\n      jump\t// in\n    tag_247:\n      swap3\n      pop\n      pop\n      dup2\n      swap1\n      sstore\n      pop\n        /* \"@openzeppelin/contracts/token/ERC20/ERC20.sol\":5997:6537  if (from == address(0)) {... */\n      jump(tag_249)\n    tag_246:\n        /* \"@openzeppelin/contracts/token/ERC20/ERC20.sol\":6189:6208  uint256 fromBalance */\n      0x00\n        /* \"@openzeppelin/contracts/token/ERC20/ERC20.sol\":6211:6220  _balances */\n      0x00\n        /* \"@openzeppelin/contracts/token/ERC20/ERC20.sol\":6211:6226  _balances[from] */\n      0x00\n        /* \"@openzeppelin/contracts/token/ERC20/ERC20.sol\":6221:6225  from */\n      dup6\n        /* \"@openzeppelin/contracts/token/ERC20/ERC20.sol\":6211:6226  _balances[from] */\n      0xffffffffffffffffffffffffffffffffffffffff\n      and\n      0xffffffffffffffffffffffffffffffffffffffff\n      and\n      dup2\n      mstore\n      0x20\n      add\n      swap1\n      dup2\n      mstore\n      0x20\n      add\n      0x00\n      keccak256\n      sload\n        /* \"@openzeppelin/contracts/token/ERC20/ERC20.sol\":6189:6226  uint256 fromBalance = _balances[from] */\n      swap1\n      pop\n        /* \"@openzeppelin/contracts/token/ERC20/ERC20.sol\":6258:6263  value */\n      dup2\n        /* \"@openzeppelin/contracts/token/ERC20/ERC20.sol\":6244:6255  fromBalance */\n      dup2\n        /* \"@openzeppelin/contracts/token/ERC20/ERC20.sol\":6244:6263  fromBalance < value */\n      lt\n        /* \"@openzeppelin/contracts/token/ERC20/ERC20.sol\":6240:6355  if (fromBalance < value) {... */\n      iszero\n      tag_250\n      jumpi\n        /* \"@openzeppelin/contracts/token/ERC20/ERC20.sol\":6315:6319  from */\n      dup4\n        /* \"@openzeppelin/contracts/token/ERC20/ERC20.sol\":6321:6332  fromBalance */\n      dup2\n        /* \"@openzeppelin/contracts/token/ERC20/ERC20.sol\":6334:6339  value */\n      dup4\n        /* \"@openzeppelin/contracts/token/ERC20/ERC20.sol\":6290:6340  ERC20InsufficientBalance(from, fromBalance, value) */\n      mload(0x40)\n      0xe450d38c00000000000000000000000000000000000000000000000000000000\n      dup2\n      mstore\n      0x04\n      add\n      tag_251\n      swap4\n      swap3\n      swap2\n      swap1\n      tag_177\n      jump\t// in\n    tag_251:\n      mload(0x40)\n      dup1\n      swap2\n      sub\n      swap1\n      revert\n        /* \"@openzeppelin/contracts/token/ERC20/ERC20.sol\":6240:6355  if (fromBalance < value) {... */\n    tag_250:\n        /* \"@openzeppelin/contracts/token/ERC20/ERC20.sol\":6507:6512  value */\n      dup2\n        /* \"@openzeppelin/contracts/token/ERC20/ERC20.sol\":6493:6504  fromBalance */\n      dup2\n        /* \"@openzeppelin/contracts/token/ERC20/ERC20.sol\":6493:6512  fromBalance - value */\n      sub\n        /* \"@openzeppelin/contracts/token/ERC20/ERC20.sol\":6475:6484  _balances */\n      0x00\n        /* \"@openzeppelin/contracts/token/ERC20/ERC20.sol\":6475:6490  _balances[from] */\n      0x00\n        /* \"@openzeppelin/contracts/token/ERC20/ERC20.sol\":6485:6489  from */\n      dup7\n        /* \"@openzeppelin/contracts/token/ERC20/ERC20.sol\":6475:6490  _balances[from] */\n      0xffffffffffffffffffffffffffffffffffffffff\n      and\n      0xffffffffffffffffffffffffffffffffffffffff\n      and\n      dup2\n      mstore\n      0x20\n      add\n      swap1\n      dup2\n      mstore\n      0x20\n      add\n      0x00\n      keccak256\n        /* \"@openzeppelin/contracts/token/ERC20/ERC20.sol\":6475:6512  _balances[from] = fromBalance - value */\n      dup2\n      swap1\n      sstore\n      pop\n        /* \"@openzeppelin/contracts/token/ERC20/ERC20.sol\":6175:6537  {... */\n      pop\n        /* \"@openzeppelin/contracts/token/ERC20/ERC20.sol\":5997:6537  if (from == address(0)) {... */\n    tag_249:\n        /* \"@openzeppelin/contracts/token/ERC20/ERC20.sol\":6565:6566  0 */\n      0x00\n        /* \"@openzeppelin/contracts/token/ERC20/ERC20.sol\":6551:6567  to == address(0) */\n      0xffffffffffffffffffffffffffffffffffffffff\n      and\n        /* \"@openzeppelin/contracts/token/ERC20/ERC20.sol\":6551:6553  to */\n      dup3\n        /* \"@openzeppelin/contracts/token/ERC20/ERC20.sol\":6551:6567  to == address(0) */\n      0xffffffffffffffffffffffffffffffffffffffff\n      and\n      sub\n        /* \"@openzeppelin/contracts/token/ERC20/ERC20.sol\":6547:6972  if (to == address(0)) {... */\n      tag_252\n      jumpi\n        /* \"@openzeppelin/contracts/token/ERC20/ERC20.sol\":6730:6735  value */\n      dup1\n        /* \"@openzeppelin/contracts/token/ERC20/ERC20.sol\":6714:6726  _totalSupply */\n      0x02\n      0x00\n        /* \"@openzeppelin/contracts/token/ERC20/ERC20.sol\":6714:6735  _totalSupply -= value */\n      dup3\n      dup3\n      sload\n      sub\n      swap3\n      pop\n      pop\n      dup2\n      swap1\n      sstore\n      pop\n        /* \"@openzeppelin/contracts/token/ERC20/ERC20.sol\":6547:6972  if (to == address(0)) {... */\n      jump(tag_253)\n    tag_252:\n        /* \"@openzeppelin/contracts/token/ERC20/ERC20.sol\":6942:6947  value */\n      dup1\n        /* \"@openzeppelin/contracts/token/ERC20/ERC20.sol\":6925:6934  _balances */\n      0x00\n        /* \"@openzeppelin/contracts/token/ERC20/ERC20.sol\":6925:6938  _balances[to] */\n      0x00\n        /* \"@openzeppelin/contracts/token/ERC20/ERC20.sol\":6935:6937  to */\n      dup5\n        /* \"@openzeppelin/contracts/token/ERC20/ERC20.sol\":6925:6938  _balances[to] */\n      0xffffffffffffffffffffffffffffffffffffffff\n      and\n      0xffffffffffffffffffffffffffffffffffffffff\n      and\n      dup2\n      mstore\n      0x20\n      add\n      swap1\n      dup2\n      mstore\n      0x20\n      add\n      0x00\n      keccak256\n      0x00\n        /* \"@openzeppelin/contracts/token/ERC20/ERC20.sol\":6925:6947  _balances[to] += value */\n      dup3\n      dup3\n      sload\n      add\n      swap3\n      pop\n      pop\n      dup2\n      swap1\n      sstore\n      pop\n        /* \"@openzeppelin/contracts/token/ERC20/ERC20.sol\":6547:6972  if (to == address(0)) {... */\n    tag_253:\n        /* \"@openzeppelin/contracts/token/ERC20/ERC20.sol\":7002:7004  to */\n      dup2\n        /* \"@openzeppelin/contracts/token/ERC20/ERC20.sol\":6987:7012  Transfer(from, to, value) */\n      0xffffffffffffffffffffffffffffffffffffffff\n      and\n        /* \"@openzeppelin/contracts/token/ERC20/ERC20.sol\":6996:7000  from */\n      dup4\n        /* \"@openzeppelin/contracts/token/ERC20/ERC20.sol\":6987:7012  Transfer(from, to, value) */\n      0xffffffffffffffffffffffffffffffffffffffff\n      and\n      0xddf252ad1be2c89b69c2b068fc378daa952ba7f163c4a11628f55a4df523b3ef\n        /* \"@openzeppelin/contracts/token/ERC20/ERC20.sol\":7006:7011  value */\n      dup4\n        /* \"@openzeppelin/contracts/token/ERC20/ERC20.sol\":6987:7012  Transfer(from, to, value) */\n      mload(0x40)\n      tag_254\n      swap2\n      swap1\n      tag_39\n      jump\t// in\n    tag_254:\n      mload(0x40)\n      dup1\n      swap2\n      sub\n      swap1\n      log3\n        /* \"@openzeppelin/contracts/token/ERC20/ERC20.sol\":5912:7019  function _update(address from, address to, uint256 value) internal virtual {... */\n      pop\n      pop\n      pop\n      jump\t// out\n        /* \"#utility.yul\":7:106   */\n    tag_255:\n        /* \"#utility.yul\":59:65   */\n      0x00\n        /* \"#utility.yul\":93:98   */\n      dup2\n        /* \"#utility.yul\":87:99   */\n      mload\n        /* \"#utility.yul\":77:99   */\n      swap1\n      pop\n        /* \"#utility.yul\":7:106   */\n      swap2\n      swap1\n      pop\n      jump\t// out\n        /* \"#utility.yul\":112:281   */\n    tag_256:\n        /* \"#utility.yul\":196:207   */\n      0x00\n        /* \"#utility.yul\":230:236   */\n      dup3\n        /* \"#utility.yul\":225:228   */\n      dup3\n        /* \"#utility.yul\":218:237   */\n      mstore\n        /* \"#utility.yul\":270:274   */\n      0x20\n        /* \"#utility.yul\":265:268   */\n      dup3\n        /* \"#utility.yul\":261:275   */\n      add\n        /* \"#utility.yul\":246:275   */\n      swap1\n      pop\n        /* \"#utility.yul\":112:281   */\n      swap3\n      swap2\n      pop\n      pop\n      jump\t// out\n        /* \"#utility.yul\":287:426   */\n    tag_257:\n        /* \"#utility.yul\":376:382   */\n      dup3\n        /* \"#utility.yul\":371:374   */\n      dup2\n        /* \"#utility.yul\":366:369   */\n      dup4\n        /* \"#utility.yul\":360:383   */\n      mcopy\n        /* \"#utility.yul\":417:418   */\n      0x00\n        /* \"#utility.yul\":408:414   */\n      dup4\n        /* \"#utility.yul\":403:406   */\n      dup4\n        /* \"#utility.yul\":399:415   */\n      add\n        /* \"#utility.yul\":392:419   */\n      mstore\n        /* \"#utility.yul\":287:426   */\n      pop\n      pop\n      pop\n      jump\t// out\n        /* \"#utility.yul\":432:534   */\n    tag_258:\n        /* \"#utility.yul\":473:479   */\n      0x00\n        /* \"#utility.yul\":524:526   */\n      0x1f\n        /* \"#utility.yul\":520:527   */\n      not\n        /* \"#utility.yul\":515:517   */\n      0x1f\n        /* \"#utility.yul\":508:513   */\n      dup4\n        /* \"#utility.yul\":504:518   */\n      add\n        /* \"#utility.yul\":500:528   */\n      and\n        /* \"#utility.yul\":490:528   */\n      swap1\n      pop\n        /* \"#utility.yul\":432:534   */\n      swap2\n      swap1\n      pop\n      jump\t// out\n        /* \"#utility.yul\":540:917   */\n    tag_259:\n        /* \"#utility.yul\":628:631   */\n      0x00\n        /* \"#utility.yul\":656:695   */\n      tag_291\n        /* \"#utility.yul\":689:694   */\n      dup3\n        /* \"#utility.yul\":656:695   */\n      tag_255\n      jump\t// in\n    tag_291:\n        /* \"#utility.yul\":711:782   */\n      tag_292\n        /* \"#utility.yul\":775:781   */\n      dup2\n        /* \"#utility.yul\":770:773   */\n      dup6\n        /* \"#utility.yul\":711:782   */\n      tag_256\n      jump\t// in\n    tag_292:\n        /* \"#utility.yul\":704:782   */\n      swap4\n      pop\n        /* \"#utility.yul\":791:856   */\n      tag_293\n        /* \"#utility.yul\":849:855   */\n      dup2\n        /* \"#utility.yul\":844:847   */\n      dup6\n        /* \"#utility.yul\":837:841   */\n      0x20\n        /* \"#utility.yul\":830:835   */\n      dup7\n        /* \"#utility.yul\":826:842   */\n      add\n        /* \"#utility.yul\":791:856   */\n      tag_257\n      jump\t// in\n    tag_293:\n        /* \"#utility.yul\":881:910   */\n      tag_294\n        /* \"#utility.yul\":903:909   */\n      dup2\n        /* \"#utility.yul\":881:910   */\n      tag_258\n      jump\t// in\n    tag_294:\n        /* \"#utility.yul\":876:879   */\n      dup5\n        /* \"#utility.yul\":872:911   */\n      add\n        /* \"#utility.yul\":865:911   */\n      swap2\n      pop\n        /* \"#utility.yul\":632:917   */\n      pop\n        /* \"#utility.yul\":540:917   */\n      swap3\n      swap2\n      pop\n      pop\n      jump\t// out\n        /* \"#utility.yul\":923:1236   */\n    tag_29:\n        /* \"#utility.yul\":1036:1040   */\n      0x00\n        /* \"#utility.yul\":1074:1076   */\n      0x20\n        /* \"#utility.yul\":1063:1072   */\n      dup3\n        /* \"#utility.yul\":1059:1077   */\n      add\n        /* \"#utility.yul\":1051:1077   */\n      swap1\n      pop\n        /* \"#utility.yul\":1123:1132   */\n      dup2\n        /* \"#utility.yul\":1117:1121   */\n      dup2\n        /* \"#utility.yul\":1113:1133   */\n      sub\n        /* \"#utility.yul\":1109:1110   */\n      0x00\n        /* \"#utility.yul\":1098:1107   */\n      dup4\n        /* \"#utility.yul\":1094:1111   */\n      add\n        /* \"#utility.yul\":1087:1134   */\n      mstore\n        /* \"#utility.yul\":1151:1229   */\n      tag_296\n        /* \"#utility.yul\":1224:1228   */\n      dup2\n        /* \"#utility.yul\":1215:1221   */\n      dup5\n        /* \"#utility.yul\":1151:1229   */\n      tag_259\n      jump\t// in\n    tag_296:\n        /* \"#utility.yul\":1143:1229   */\n      swap1\n      pop\n        /* \"#utility.yul\":923:1236   */\n      swap3\n      swap2\n      pop\n      pop\n      jump\t// out\n        /* \"#utility.yul\":1323:1440   */\n    tag_261:\n        /* \"#utility.yul\":1432:1433   */\n      0x00\n        /* \"#utility.yul\":1429:1430   */\n      0x00\n        /* \"#utility.yul\":1422:1434   */\n      revert\n        /* \"#utility.yul\":1569:1695   */\n    tag_263:\n        /* \"#utility.yul\":1606:1613   */\n      0x00\n        /* \"#utility.yul\":1646:1688   */\n      0xffffffffffffffffffffffffffffffffffffffff\n        /* \"#utility.yul\":1639:1644   */\n      dup3\n        /* \"#utility.yul\":1635:1689   */\n      and\n        /* \"#utility.yul\":1624:1689   */\n      swap1\n      pop\n        /* \"#utility.yul\":1569:1695   */\n      swap2\n      swap1\n      pop\n      jump\t// out\n        /* \"#utility.yul\":1701:1797   */\n    tag_264:\n        /* \"#utility.yul\":1738:1745   */\n      0x00\n        /* \"#utility.yul\":1767:1791   */\n      tag_302\n        /* \"#utility.yul\":1785:1790   */\n      dup3\n        /* \"#utility.yul\":1767:1791   */\n      tag_263\n      jump\t// in\n    tag_302:\n        /* \"#utility.yul\":1756:1791   */\n      swap1\n      pop\n        /* \"#utility.yul\":1701:1797   */\n      swap2\n      swap1\n      pop\n      jump\t// out\n        /* \"#utility.yul\":1803:1925   */\n    tag_265:\n        /* \"#utility.yul\":1876:1900   */\n      tag_304\n        /* \"#utility.yul\":1894:1899   */\n      dup2\n        /* \"#utility.yul\":1876:1900   */\n      tag_264\n      jump\t// in\n    tag_304:\n        /* \"#utility.yul\":1869:1874   */\n      dup2\n        /* \"#utility.yul\":1866:1901   */\n      eq\n        /* \"#utility.yul\":1856:1919   */\n      tag_305\n      jumpi\n        /* \"#utility.yul\":1915:1916   */\n      0x00\n        /* \"#utility.yul\":1912:1913   */\n      0x00\n        /* \"#utility.yul\":1905:1917   */\n      revert\n        /* \"#utility.yul\":1856:1919   */\n    tag_305:\n        /* \"#utility.yul\":1803:1925   */\n      pop\n      jump\t// out\n        /* \"#utility.yul\":1931:2070   */\n    tag_266:\n        /* \"#utility.yul\":1977:1982   */\n      0x00\n        /* \"#utility.yul\":2015:2021   */\n      dup2\n        /* \"#utility.yul\":2002:2022   */\n      calldataload\n        /* \"#utility.yul\":1993:2022   */\n      swap1\n      pop\n        /* \"#utility.yul\":2031:2064   */\n      tag_307\n        /* \"#utility.yul\":2058:2063   */\n      dup2\n        /* \"#utility.yul\":2031:2064   */\n      tag_265\n      jump\t// in\n    tag_307:\n        /* \"#utility.yul\":1931:2070   */\n      swap3\n      swap2\n      pop\n      pop\n      jump\t// out\n        /* \"#utility.yul\":2076:2153   */\n    tag_267:\n        /* \"#utility.yul\":2113:2120   */\n      0x00\n        /* \"#utility.yul\":2142:2147   */\n      dup2\n        /* \"#utility.yul\":2131:2147   */\n      swap1\n      pop\n        /* \"#utility.yul\":2076:2153   */\n      swap2\n      swap1\n      pop\n      jump\t// out\n        /* \"#utility.yul\":2159:2281   */\n    tag_268:\n        /* \"#utility.yul\":2232:2256   */\n      tag_310\n        /* \"#utility.yul\":2250:2255   */\n      dup2\n        /* \"#utility.yul\":2232:2256   */\n      tag_267\n      jump\t// in\n    tag_310:\n        /* \"#utility.yul\":2225:2230   */\n      dup2\n        /* \"#utility.yul\":2222:2257   */\n      eq\n        /* \"#utility.yul\":2212:2275   */\n      tag_311\n      jumpi\n        /* \"#utility.yul\":2271:2272   */\n      0x00\n        /* \"#utility.yul\":2268:2269   */\n      0x00\n        /* \"#utility.yul\":2261:2273   */\n      revert\n        /* \"#utility.yul\":2212:2275   */\n    tag_311:\n        /* \"#utility.yul\":2159:2281   */\n      pop\n      jump\t// out\n        /* \"#utility.yul\":2287:2426   */\n    tag_269:\n        /* \"#utility.yul\":2333:2338   */\n      0x00\n        /* \"#utility.yul\":2371:2377   */\n      dup2\n        /* \"#utility.yul\":2358:2378   */\n      calldataload\n        /* \"#utility.yul\":2349:2378   */\n      swap1\n      pop\n        /* \"#utility.yul\":2387:2420   */\n      tag_313\n        /* \"#utility.yul\":2414:2419   */\n      dup2\n        /* \"#utility.yul\":2387:2420   */\n      tag_268\n      jump\t// in\n    tag_313:\n        /* \"#utility.yul\":2287:2426   */\n      swap3\n      swap2\n      pop\n      pop\n      jump\t// out\n        /* \"#utility.yul\":2432:2906   */\n    tag_32:\n        /* \"#utility.yul\":2500:2506   */\n      0x00\n        /* \"#utility.yul\":2508:2514   */\n      0x00\n        /* \"#utility.yul\":2557:2559   */\n      0x40\n        /* \"#utility.yul\":2545:2554   */\n      dup4\n        /* \"#utility.yul\":2536:2543   */\n      dup6\n        /* \"#utility.yul\":2532:2555   */\n      sub\n        /* \"#utility.yul\":2528:2560   */\n      slt\n        /* \"#utility.yul\":2525:2644   */\n      iszero\n      tag_315\n      jumpi\n        /* \"#utility.yul\":2563:2642   */\n      tag_316\n      tag_261\n      jump\t// in\n    tag_316:\n        /* \"#utility.yul\":2525:2644   */\n    tag_315:\n        /* \"#utility.yul\":2683:2684   */\n      0x00\n        /* \"#utility.yul\":2708:2761   */\n      tag_317\n        /* \"#utility.yul\":2753:2760   */\n      dup6\n        /* \"#utility.yul\":2744:2750   */\n      dup3\n        /* \"#utility.yul\":2733:2742   */\n      dup7\n        /* \"#utility.yul\":2729:2751   */\n      add\n        /* \"#utility.yul\":2708:2761   */\n      tag_266\n      jump\t// in\n    tag_317:\n        /* \"#utility.yul\":2698:2761   */\n      swap3\n      pop\n        /* \"#utility.yul\":2654:2771   */\n      pop\n        /* \"#utility.yul\":2810:2812   */\n      0x20\n        /* \"#utility.yul\":2836:2889   */\n      tag_318\n        /* \"#utility.yul\":2881:2888   */\n      dup6\n        /* \"#utility.yul\":2872:2878   */\n      dup3\n        /* \"#utility.yul\":2861:2870   */\n      dup7\n        /* \"#utility.yul\":2857:2879   */\n      add\n        /* \"#utility.yul\":2836:2889   */\n      tag_269\n      jump\t// in\n    tag_318:\n        /* \"#utility.yul\":2826:2889   */\n      swap2\n      pop\n        /* \"#utility.yul\":2781:2899   */\n      pop\n        /* \"#utility.yul\":2432:2906   */\n      swap3\n      pop\n      swap3\n      swap1\n      pop\n      jump\t// out\n        /* \"#utility.yul\":2912:3002   */\n    tag_270:\n        /* \"#utility.yul\":2946:2953   */\n      0x00\n        /* \"#utility.yul\":2989:2994   */\n      dup2\n        /* \"#utility.yul\":2982:2995   */\n      iszero\n        /* \"#utility.yul\":2975:2996   */\n      iszero\n        /* \"#utility.yul\":2964:2996   */\n      swap1\n      pop\n        /* \"#utility.yul\":2912:3002   */\n      swap2\n      swap1\n      pop\n      jump\t// out\n        /* \"#utility.yul\":3008:3117   */\n    tag_271:\n        /* \"#utility.yul\":3089:3110   */\n      tag_321\n        /* \"#utility.yul\":3104:3109   */\n      dup2\n        /* \"#utility.yul\":3089:3110   */\n      tag_270\n      jump\t// in\n    tag_321:\n        /* \"#utility.yul\":3084:3087   */\n      dup3\n        /* \"#utility.yul\":3077:3111   */\n      mstore\n        /* \"#utility.yul\":3008:3117   */\n      pop\n      pop\n      jump\t// out\n        /* \"#utility.yul\":3123:3333   */\n    tag_35:\n        /* \"#utility.yul\":3210:3214   */\n      0x00\n        /* \"#utility.yul\":3248:3250   */\n      0x20\n        /* \"#utility.yul\":3237:3246   */\n      dup3\n        /* \"#utility.yul\":3233:3251   */\n      add\n        /* \"#utility.yul\":3225:3251   */\n      swap1\n      pop\n        /* \"#utility.yul\":3261:3326   */\n      tag_323\n        /* \"#utility.yul\":3323:3324   */\n      0x00\n        /* \"#utility.yul\":3312:3321   */\n      dup4\n        /* \"#utility.yul\":3308:3325   */\n      add\n        /* \"#utility.yul\":3299:3305   */\n      dup5\n        /* \"#utility.yul\":3261:3326   */\n      tag_271\n      jump\t// in\n    tag_323:\n        /* \"#utility.yul\":3123:3333   */\n      swap3\n      swap2\n      pop\n      pop\n      jump\t// out\n        /* \"#utility.yul\":3339:3457   */\n    tag_272:\n        /* \"#utility.yul\":3426:3450   */\n      tag_325\n        /* \"#utility.yul\":3444:3449   */\n      dup2\n        /* \"#utility.yul\":3426:3450   */\n      tag_267\n      jump\t// in\n    tag_325:\n        /* \"#utility.yul\":3421:3424   */\n      dup3\n        /* \"#utility.yul\":3414:3451   */\n      mstore\n        /* \"#utility.yul\":3339:3457   */\n      pop\n      pop\n      jump\t// out\n        /* \"#utility.yul\":3463:3685   */\n    tag_39:\n        /* \"#utility.yul\":3556:3560   */\n      0x00\n        /* \"#utility.yul\":3594:3596   */\n      0x20\n        /* \"#utility.yul\":3583:3592   */\n      dup3\n        /* \"#utility.yul\":3579:3597   */\n      add\n        /* \"#utility.yul\":3571:3597   */\n      swap1\n      pop\n        /* \"#utility.yul\":3607:3678   */\n      tag_327\n        /* \"#utility.yul\":3675:3676   */\n      0x00\n        /* \"#utility.yul\":3664:3673   */\n      dup4\n        /* \"#utility.yul\":3660:3677   */\n      add\n        /* \"#utility.yul\":3651:3657   */\n      dup5\n        /* \"#utility.yul\":3607:3678   */\n      tag_272\n      jump\t// in\n    tag_327:\n        /* \"#utility.yul\":3463:3685   */\n      swap3\n      swap2\n      pop\n      pop\n      jump\t// out\n        /* \"#utility.yul\":3691:4310   */\n    tag_42:\n        /* \"#utility.yul\":3768:3774   */\n      0x00\n        /* \"#utility.yul\":3776:3782   */\n      0x00\n        /* \"#utility.yul\":3784:3790   */\n      0x00\n        /* \"#utility.yul\":3833:3835   */\n      0x60\n        /* \"#utility.yul\":3821:3830   */\n      dup5\n        /* \"#utility.yul\":3812:3819   */\n      dup7\n        /* \"#utility.yul\":3808:3831   */\n      sub\n        /* \"#utility.yul\":3804:3836   */\n      slt\n        /* \"#utility.yul\":3801:3920   */\n      iszero\n      tag_329\n      jumpi\n        /* \"#utility.yul\":3839:3918   */\n      tag_330\n      tag_261\n      jump\t// in\n    tag_330:\n        /* \"#utility.yul\":3801:3920   */\n    tag_329:\n        /* \"#utility.yul\":3959:3960   */\n      0x00\n        /* \"#utility.yul\":3984:4037   */\n      tag_331\n        /* \"#utility.yul\":4029:4036   */\n      dup7\n        /* \"#utility.yul\":4020:4026   */\n      dup3\n        /* \"#utility.yul\":4009:4018   */\n      dup8\n        /* \"#utility.yul\":4005:4027   */\n      add\n        /* \"#utility.yul\":3984:4037   */\n      tag_266\n      jump\t// in\n    tag_331:\n        /* \"#utility.yul\":3974:4037   */\n      swap4\n      pop\n        /* \"#utility.yul\":3930:4047   */\n      pop\n        /* \"#utility.yul\":4086:4088   */\n      0x20\n        /* \"#utility.yul\":4112:4165   */\n      tag_332\n        /* \"#utility.yul\":4157:4164   */\n      dup7\n        /* \"#utility.yul\":4148:4154   */\n      dup3\n        /* \"#utility.yul\":4137:4146   */\n      dup8\n        /* \"#utility.yul\":4133:4155   */\n      add\n        /* \"#utility.yul\":4112:4165   */\n      tag_266\n      jump\t// in\n    tag_332:\n        /* \"#utility.yul\":4102:4165   */\n      swap3\n      pop\n        /* \"#utility.yul\":4057:4175   */\n      pop\n        /* \"#utility.yul\":4214:4216   */\n      0x40\n        /* \"#utility.yul\":4240:4293   */\n      tag_333\n        /* \"#utility.yul\":4285:4292   */\n      dup7\n        /* \"#utility.yul\":4276:4282   */\n      dup3\n        /* \"#utility.yul\":4265:4274   */\n      dup8\n        /* \"#utility.yul\":4261:4283   */\n      add\n        /* \"#utility.yul\":4240:4293   */\n      tag_269\n      jump\t// in\n    tag_333:\n        /* \"#utility.yul\":4230:4293   */\n      swap2\n      pop\n        /* \"#utility.yul\":4185:4303   */\n      pop\n        /* \"#utility.yul\":3691:4310   */\n      swap3\n      pop\n      swap3\n      pop\n      swap3\n      jump\t// out\n        /* \"#utility.yul\":4316:4434   */\n    tag_273:\n        /* \"#utility.yul\":4403:4427   */\n      tag_335\n        /* \"#utility.yul\":4421:4426   */\n      dup2\n        /* \"#utility.yul\":4403:4427   */\n      tag_264\n      jump\t// in\n    tag_335:\n        /* \"#utility.yul\":4398:4401   */\n      dup3\n        /* \"#utility.yul\":4391:4428   */\n      mstore\n        /* \"#utility.yul\":4316:4434   */\n      pop\n      pop\n      jump\t// out\n        /* \"#utility.yul\":4440:4662   */\n    tag_50:\n        /* \"#utility.yul\":4533:4537   */\n      0x00\n        /* \"#utility.yul\":4571:4573   */\n      0x20\n        /* \"#utility.yul\":4560:4569   */\n      dup3\n        /* \"#utility.yul\":4556:4574   */\n      add\n        /* \"#utility.yul\":4548:4574   */\n      swap1\n      pop\n        /* \"#utility.yul\":4584:4655   */\n      tag_337\n        /* \"#utility.yul\":4652:4653   */\n      0x00\n        /* \"#utility.yul\":4641:4650   */\n      dup4\n        /* \"#utility.yul\":4637:4654   */\n      add\n        /* \"#utility.yul\":4628:4634   */\n      dup5\n        /* \"#utility.yul\":4584:4655   */\n      tag_273\n      jump\t// in\n    tag_337:\n        /* \"#utility.yul\":4440:4662   */\n      swap3\n      swap2\n      pop\n      pop\n      jump\t// out\n        /* \"#utility.yul\":4668:4754   */\n    tag_274:\n        /* \"#utility.yul\":4703:4710   */\n      0x00\n        /* \"#utility.yul\":4743:4747   */\n      0xff\n        /* \"#utility.yul\":4736:4741   */\n      dup3\n        /* \"#utility.yul\":4732:4748   */\n      and\n        /* \"#utility.yul\":4721:4748   */\n      swap1\n      pop\n        /* \"#utility.yul\":4668:4754   */\n      swap2\n      swap1\n      pop\n      jump\t// out\n        /* \"#utility.yul\":4760:4872   */\n    tag_275:\n        /* \"#utility.yul\":4843:4865   */\n      tag_340\n        /* \"#utility.yul\":4859:4864   */\n      dup2\n        /* \"#utility.yul\":4843:4865   */\n      tag_274\n      jump\t// in\n    tag_340:\n        /* \"#utility.yul\":4838:4841   */\n      dup3\n        /* \"#utility.yul\":4831:4866   */\n      mstore\n        /* \"#utility.yul\":4760:4872   */\n      pop\n      pop\n      jump\t// out\n        /* \"#utility.yul\":4878:5092   */\n    tag_54:\n        /* \"#utility.yul\":4967:4971   */\n      0x00\n        /* \"#utility.yul\":5005:5007   */\n      0x20\n        /* \"#utility.yul\":4994:5003   */\n      dup3\n        /* \"#utility.yul\":4990:5008   */\n      add\n        /* \"#utility.yul\":4982:5008   */\n      swap1\n      pop\n        /* \"#utility.yul\":5018:5085   */\n      tag_342\n        /* \"#utility.yul\":5082:5083   */\n      0x00\n        /* \"#utility.yul\":5071:5080   */\n      dup4\n        /* \"#utility.yul\":5067:5084   */\n      add\n        /* \"#utility.yul\":5058:5064   */\n      dup5\n        /* \"#utility.yul\":5018:5085   */\n      tag_275\n      jump\t// in\n    tag_342:\n        /* \"#utility.yul\":4878:5092   */\n      swap3\n      swap2\n      pop\n      pop\n      jump\t// out\n        /* \"#utility.yul\":5098:5427   */\n    tag_63:\n        /* \"#utility.yul\":5157:5163   */\n      0x00\n        /* \"#utility.yul\":5206:5208   */\n      0x20\n        /* \"#utility.yul\":5194:5203   */\n      dup3\n        /* \"#utility.yul\":5185:5192   */\n      dup5\n        /* \"#utility.yul\":5181:5204   */\n      sub\n        /* \"#utility.yul\":5177:5209   */\n      slt\n        /* \"#utility.yul\":5174:5293   */\n      iszero\n      tag_344\n      jumpi\n        /* \"#utility.yul\":5212:5291   */\n      tag_345\n      tag_261\n      jump\t// in\n    tag_345:\n        /* \"#utility.yul\":5174:5293   */\n    tag_344:\n        /* \"#utility.yul\":5332:5333   */\n      0x00\n        /* \"#utility.yul\":5357:5410   */\n      tag_346\n        /* \"#utility.yul\":5402:5409   */\n      dup5\n        /* \"#utility.yul\":5393:5399   */\n      dup3\n        /* \"#utility.yul\":5382:5391   */\n      dup6\n        /* \"#utility.yul\":5378:5400   */\n      add\n        /* \"#utility.yul\":5357:5410   */\n      tag_266\n      jump\t// in\n    tag_346:\n        /* \"#utility.yul\":5347:5410   */\n      swap2\n      pop\n        /* \"#utility.yul\":5303:5420   */\n      pop\n        /* \"#utility.yul\":5098:5427   */\n      swap3\n      swap2\n      pop\n      pop\n      jump\t// out\n        /* \"#utility.yul\":5433:5762   */\n    tag_83:\n        /* \"#utility.yul\":5492:5498   */\n      0x00\n        /* \"#utility.yul\":5541:5543   */\n      0x20\n        /* \"#utility.yul\":5529:5538   */\n      dup3\n        /* \"#utility.yul\":5520:5527   */\n      dup5\n        /* \"#utility.yul\":5516:5539   */\n      sub\n        /* \"#utility.yul\":5512:5544   */\n      slt\n        /* \"#utility.yul\":5509:5628   */\n      iszero\n      tag_348\n      jumpi\n        /* \"#utility.yul\":5547:5626   */\n      tag_349\n      tag_261\n      jump\t// in\n    tag_349:\n        /* \"#utility.yul\":5509:5628   */\n    tag_348:\n        /* \"#utility.yul\":5667:5668   */\n      0x00\n        /* \"#utility.yul\":5692:5745   */\n      tag_350\n        /* \"#utility.yul\":5737:5744   */\n      dup5\n        /* \"#utility.yul\":5728:5734   */\n      dup3\n        /* \"#utility.yul\":5717:5726   */\n      dup6\n        /* \"#utility.yul\":5713:5735   */\n      add\n        /* \"#utility.yul\":5692:5745   */\n      tag_269\n      jump\t// in\n    tag_350:\n        /* \"#utility.yul\":5682:5745   */\n      swap2\n      pop\n        /* \"#utility.yul\":5638:5755   */\n      pop\n        /* \"#utility.yul\":5433:5762   */\n      swap3\n      swap2\n      pop\n      pop\n      jump\t// out\n        /* \"#utility.yul\":5768:6242   */\n    tag_87:\n        /* \"#utility.yul\":5836:5842   */\n      0x00\n        /* \"#utility.yul\":5844:5850   */\n      0x00\n        /* \"#utility.yul\":5893:5895   */\n      0x40\n        /* \"#utility.yul\":5881:5890   */\n      dup4\n        /* \"#utility.yul\":5872:5879   */\n      dup6\n        /* \"#utility.yul\":5868:5891   */\n      sub\n        /* \"#utility.yul\":5864:5896   */\n      slt\n        /* \"#utility.yul\":5861:5980   */\n      iszero\n      tag_352\n      jumpi\n        /* \"#utility.yul\":5899:5978   */\n      tag_353\n      tag_261\n      jump\t// in\n    tag_353:\n        /* \"#utility.yul\":5861:5980   */\n    tag_352:\n        /* \"#utility.yul\":6019:6020   */\n      0x00\n        /* \"#utility.yul\":6044:6097   */\n      tag_354\n        /* \"#utility.yul\":6089:6096   */\n      dup6\n        /* \"#utility.yul\":6080:6086   */\n      dup3\n        /* \"#utility.yul\":6069:6078   */\n      dup7\n        /* \"#utility.yul\":6065:6087   */\n      add\n        /* \"#utility.yul\":6044:6097   */\n      tag_266\n      jump\t// in\n    tag_354:\n        /* \"#utility.yul\":6034:6097   */\n      swap3\n      pop\n        /* \"#utility.yul\":5990:6107   */\n      pop\n        /* \"#utility.yul\":6146:6148   */\n      0x20\n        /* \"#utility.yul\":6172:6225   */\n      tag_355\n        /* \"#utility.yul\":6217:6224   */\n      dup6\n        /* \"#utility.yul\":6208:6214   */\n      dup3\n        /* \"#utility.yul\":6197:6206   */\n      dup7\n        /* \"#utility.yul\":6193:6215   */\n      add\n        /* \"#utility.yul\":6172:6225   */\n      tag_266\n      jump\t// in\n    tag_355:\n        /* \"#utility.yul\":6162:6225   */\n      swap2\n      pop\n        /* \"#utility.yul\":6117:6235   */\n      pop\n        /* \"#utility.yul\":5768:6242   */\n      swap3\n      pop\n      swap3\n      swap1\n      pop\n      jump\t// out\n        /* \"#utility.yul\":6248:6428   */\n    tag_276:\n        /* \"#utility.yul\":6296:6373   */\n      0x4e487b7100000000000000000000000000000000000000000000000000000000\n        /* \"#utility.yul\":6293:6294   */\n      0x00\n        /* \"#utility.yul\":6286:6374   */\n      mstore\n        /* \"#utility.yul\":6393:6397   */\n      0x22\n        /* \"#utility.yul\":6390:6391   */\n      0x04\n        /* \"#utility.yul\":6383:6398   */\n      mstore\n        /* \"#utility.yul\":6417:6421   */\n      0x24\n        /* \"#utility.yul\":6414:6415   */\n      0x00\n        /* \"#utility.yul\":6407:6422   */\n      revert\n        /* \"#utility.yul\":6434:6754   */\n    tag_100:\n        /* \"#utility.yul\":6478:6484   */\n      0x00\n        /* \"#utility.yul\":6515:6516   */\n      0x02\n        /* \"#utility.yul\":6509:6513   */\n      dup3\n        /* \"#utility.yul\":6505:6517   */\n      div\n        /* \"#utility.yul\":6495:6517   */\n      swap1\n      pop\n        /* \"#utility.yul\":6562:6563   */\n      0x01\n        /* \"#utility.yul\":6556:6560   */\n      dup3\n        /* \"#utility.yul\":6552:6564   */\n      and\n        /* \"#utility.yul\":6583:6601   */\n      dup1\n        /* \"#utility.yul\":6573:6654   */\n      tag_358\n      jumpi\n        /* \"#utility.yul\":6639:6643   */\n      0x7f\n        /* \"#utility.yul\":6631:6637   */\n      dup3\n        /* \"#utility.yul\":6627:6644   */\n      and\n        /* \"#utility.yul\":6617:6644   */\n      swap2\n      pop\n        /* \"#utility.yul\":6573:6654   */\n    tag_358:\n        /* \"#utility.yul\":6701:6703   */\n      0x20\n        /* \"#utility.yul\":6693:6699   */\n      dup3\n        /* \"#utility.yul\":6690:6704   */\n      lt\n        /* \"#utility.yul\":6670:6688   */\n      dup2\n        /* \"#utility.yul\":6667:6705   */\n      sub\n        /* \"#utility.yul\":6664:6748   */\n      tag_359\n      jumpi\n        /* \"#utility.yul\":6720:6738   */\n      tag_360\n      tag_276\n      jump\t// in\n    tag_360:\n        /* \"#utility.yul\":6664:6748   */\n    tag_359:\n        /* \"#utility.yul\":6485:6754   */\n      pop\n        /* \"#utility.yul\":6434:6754   */\n      swap2\n      swap1\n      pop\n      jump\t// out\n        /* \"#utility.yul\":6760:6920   */\n    tag_277:\n        /* \"#utility.yul\":6900:6912   */\n      0x4d61782069732031302500000000000000000000000000000000000000000000\n        /* \"#utility.yul\":6896:6897   */\n      0x00\n        /* \"#utility.yul\":6888:6894   */\n      dup3\n        /* \"#utility.yul\":6884:6898   */\n      add\n        /* \"#utility.yul\":6877:6913   */\n      mstore\n        /* \"#utility.yul\":6760:6920   */\n      pop\n      jump\t// out\n        /* \"#utility.yul\":6926:7292   */\n    tag_278:\n        /* \"#utility.yul\":7068:7071   */\n      0x00\n        /* \"#utility.yul\":7089:7156   */\n      tag_363\n        /* \"#utility.yul\":7153:7155   */\n      0x0a\n        /* \"#utility.yul\":7148:7151   */\n      dup4\n        /* \"#utility.yul\":7089:7156   */\n      tag_256\n      jump\t// in\n    tag_363:\n        /* \"#utility.yul\":7082:7156   */\n      swap2\n      pop\n        /* \"#utility.yul\":7165:7258   */\n      tag_364\n        /* \"#utility.yul\":7254:7257   */\n      dup3\n        /* \"#utility.yul\":7165:7258   */\n      tag_277\n      jump\t// in\n    tag_364:\n        /* \"#utility.yul\":7283:7285   */\n      0x20\n        /* \"#utility.yul\":7278:7281   */\n      dup3\n        /* \"#utility.yul\":7274:7286   */\n      add\n        /* \"#utility.yul\":7267:7286   */\n      swap1\n      pop\n        /* \"#utility.yul\":6926:7292   */\n      swap2\n      swap1\n      pop\n      jump\t// out\n        /* \"#utility.yul\":7298:7717   */\n    tag_151:\n        /* \"#utility.yul\":7464:7468   */\n      0x00\n        /* \"#utility.yul\":7502:7504   */\n      0x20\n        /* \"#utility.yul\":7491:7500   */\n      dup3\n        /* \"#utility.yul\":7487:7505   */\n      add\n        /* \"#utility.yul\":7479:7505   */\n      swap1\n      pop\n        /* \"#utility.yul\":7551:7560   */\n      dup2\n        /* \"#utility.yul\":7545:7549   */\n      dup2\n        /* \"#utility.yul\":7541:7561   */\n      sub\n        /* \"#utility.yul\":7537:7538   */\n      0x00\n        /* \"#utility.yul\":7526:7535   */\n      dup4\n        /* \"#utility.yul\":7522:7539   */\n      add\n        /* \"#utility.yul\":7515:7562   */\n      mstore\n        /* \"#utility.yul\":7579:7710   */\n      tag_366\n        /* \"#utility.yul\":7705:7709   */\n      dup2\n        /* \"#utility.yul\":7579:7710   */\n      tag_278\n      jump\t// in\n    tag_366:\n        /* \"#utility.yul\":7571:7710   */\n      swap1\n      pop\n        /* \"#utility.yul\":7298:7717   */\n      swap2\n      swap1\n      pop\n      jump\t// out\n        /* \"#utility.yul\":7723:8165   */\n    tag_177:\n        /* \"#utility.yul\":7872:7876   */\n      0x00\n        /* \"#utility.yul\":7910:7912   */\n      0x60\n        /* \"#utility.yul\":7899:7908   */\n      dup3\n        /* \"#utility.yul\":7895:7913   */\n      add\n        /* \"#utility.yul\":7887:7913   */\n      swap1\n      pop\n        /* \"#utility.yul\":7923:7994   */\n      tag_368\n        /* \"#utility.yul\":7991:7992   */\n      0x00\n        /* \"#utility.yul\":7980:7989   */\n      dup4\n        /* \"#utility.yul\":7976:7993   */\n      add\n        /* \"#utility.yul\":7967:7973   */\n      dup7\n        /* \"#utility.yul\":7923:7994   */\n      tag_273\n      jump\t// in\n    tag_368:\n        /* \"#utility.yul\":8004:8076   */\n      tag_369\n        /* \"#utility.yul\":8072:8074   */\n      0x20\n        /* \"#utility.yul\":8061:8070   */\n      dup4\n        /* \"#utility.yul\":8057:8075   */\n      add\n        /* \"#utility.yul\":8048:8054   */\n      dup6\n        /* \"#utility.yul\":8004:8076   */\n      tag_272\n      jump\t// in\n    tag_369:\n        /* \"#utility.yul\":8086:8158   */\n      tag_370\n        /* \"#utility.yul\":8154:8156   */\n      0x40\n        /* \"#utility.yul\":8143:8152   */\n      dup4\n        /* \"#utility.yul\":8139:8157   */\n      add\n        /* \"#utility.yul\":8130:8136   */\n      dup5\n        /* \"#utility.yul\":8086:8158   */\n      tag_272\n      jump\t// in\n    tag_370:\n        /* \"#utility.yul\":7723:8165   */\n      swap5\n      swap4\n      pop\n      pop\n      pop\n      pop\n      jump\t// out\n        /* \"#utility.yul\":8171:8351   */\n    tag_279:\n        /* \"#utility.yul\":8219:8296   */\n      0x4e487b7100000000000000000000000000000000000000000000000000000000\n        /* \"#utility.yul\":8216:8217   */\n      0x00\n        /* \"#utility.yul\":8209:8297   */\n      mstore\n        /* \"#utility.yul\":8316:8320   */\n      0x11\n        /* \"#utility.yul\":8313:8314   */\n      0x04\n        /* \"#utility.yul\":8306:8321   */\n      mstore\n        /* \"#utility.yul\":8340:8344   */\n      0x24\n        /* \"#utility.yul\":8337:8338   */\n      0x00\n        /* \"#utility.yul\":8330:8345   */\n      revert\n        /* \"#utility.yul\":8357:8767   */\n    tag_224:\n        /* \"#utility.yul\":8397:8404   */\n      0x00\n        /* \"#utility.yul\":8420:8440   */\n      tag_373\n        /* \"#utility.yul\":8438:8439   */\n      dup3\n        /* \"#utility.yul\":8420:8440   */\n      tag_267\n      jump\t// in\n    tag_373:\n        /* \"#utility.yul\":8415:8440   */\n      swap2\n      pop\n        /* \"#utility.yul\":8454:8474   */\n      tag_374\n        /* \"#utility.yul\":8472:8473   */\n      dup4\n        /* \"#utility.yul\":8454:8474   */\n      tag_267\n      jump\t// in\n    tag_374:\n        /* \"#utility.yul\":8449:8474   */\n      swap3\n      pop\n        /* \"#utility.yul\":8509:8510   */\n      dup3\n        /* \"#utility.yul\":8506:8507   */\n      dup3\n        /* \"#utility.yul\":8502:8511   */\n      mul\n        /* \"#utility.yul\":8531:8561   */\n      tag_375\n        /* \"#utility.yul\":8549:8560   */\n      dup2\n        /* \"#utility.yul\":8531:8561   */\n      tag_267\n      jump\t// in\n    tag_375:\n        /* \"#utility.yul\":8520:8561   */\n      swap2\n      pop\n        /* \"#utility.yul\":8710:8711   */\n      dup3\n        /* \"#utility.yul\":8701:8708   */\n      dup3\n        /* \"#utility.yul\":8697:8712   */\n      div\n        /* \"#utility.yul\":8694:8695   */\n      dup5\n        /* \"#utility.yul\":8691:8713   */\n      eq\n        /* \"#utility.yul\":8671:8672   */\n      dup4\n        /* \"#utility.yul\":8664:8673   */\n      iszero\n        /* \"#utility.yul\":8644:8727   */\n      or\n        /* \"#utility.yul\":8621:8760   */\n      tag_376\n      jumpi\n        /* \"#utility.yul\":8740:8758   */\n      tag_377\n      tag_279\n      jump\t// in\n    tag_377:\n        /* \"#utility.yul\":8621:8760   */\n    tag_376:\n        /* \"#utility.yul\":8405:8767   */\n      pop\n        /* \"#utility.yul\":8357:8767   */\n      swap3\n      swap2\n      pop\n      pop\n      jump\t// out\n        /* \"#utility.yul\":8773:8953   */\n    tag_280:\n        /* \"#utility.yul\":8821:8898   */\n      0x4e487b7100000000000000000000000000000000000000000000000000000000\n        /* \"#utility.yul\":8818:8819   */\n      0x00\n        /* \"#utility.yul\":8811:8899   */\n      mstore\n        /* \"#utility.yul\":8918:8922   */\n      0x12\n        /* \"#utility.yul\":8915:8916   */\n      0x04\n        /* \"#utility.yul\":8908:8923   */\n      mstore\n        /* \"#utility.yul\":8942:8946   */\n      0x24\n        /* \"#utility.yul\":8939:8940   */\n      0x00\n        /* \"#utility.yul\":8932:8947   */\n      revert\n        /* \"#utility.yul\":8959:9144   */\n    tag_226:\n        /* \"#utility.yul\":8999:9000   */\n      0x00\n        /* \"#utility.yul\":9016:9036   */\n      tag_380\n        /* \"#utility.yul\":9034:9035   */\n      dup3\n        /* \"#utility.yul\":9016:9036   */\n      tag_267\n      jump\t// in\n    tag_380:\n        /* \"#utility.yul\":9011:9036   */\n      swap2\n      pop\n        /* \"#utility.yul\":9050:9070   */\n      tag_381\n        /* \"#utility.yul\":9068:9069   */\n      dup4\n        /* \"#utility.yul\":9050:9070   */\n      tag_267\n      jump\t// in\n    tag_381:\n        /* \"#utility.yul\":9045:9070   */\n      swap3\n      pop\n        /* \"#utility.yul\":9089:9090   */\n      dup3\n        /* \"#utility.yul\":9079:9114   */\n      tag_382\n      jumpi\n        /* \"#utility.yul\":9094:9112   */\n      tag_383\n      tag_280\n      jump\t// in\n    tag_383:\n        /* \"#utility.yul\":9079:9114   */\n    tag_382:\n        /* \"#utility.yul\":9136:9137   */\n      dup3\n        /* \"#utility.yul\":9133:9134   */\n      dup3\n        /* \"#utility.yul\":9129:9138   */\n      div\n        /* \"#utility.yul\":9124:9138   */\n      swap1\n      pop\n        /* \"#utility.yul\":8959:9144   */\n      swap3\n      swap2\n      pop\n      pop\n      jump\t// out\n        /* \"#utility.yul\":9150:9344   */\n    tag_228:\n        /* \"#utility.yul\":9190:9194   */\n      0x00\n        /* \"#utility.yul\":9210:9230   */\n      tag_385\n        /* \"#utility.yul\":9228:9229   */\n      dup3\n        /* \"#utility.yul\":9210:9230   */\n      tag_267\n      jump\t// in\n    tag_385:\n        /* \"#utility.yul\":9205:9230   */\n      swap2\n      pop\n        /* \"#utility.yul\":9244:9264   */\n      tag_386\n        /* \"#utility.yul\":9262:9263   */\n      dup4\n        /* \"#utility.yul\":9244:9264   */\n      tag_267\n      jump\t// in\n    tag_386:\n        /* \"#utility.yul\":9239:9264   */\n      swap3\n      pop\n        /* \"#utility.yul\":9288:9289   */\n      dup3\n        /* \"#utility.yul\":9285:9286   */\n      dup3\n        /* \"#utility.yul\":9281:9290   */\n      sub\n        /* \"#utility.yul\":9273:9290   */\n      swap1\n      pop\n        /* \"#utility.yul\":9312:9313   */\n      dup2\n        /* \"#utility.yul\":9306:9310   */\n      dup2\n        /* \"#utility.yul\":9303:9314   */\n      gt\n        /* \"#utility.yul\":9300:9337   */\n      iszero\n      tag_387\n      jumpi\n        /* \"#utility.yul\":9317:9335   */\n      tag_388\n      tag_279\n      jump\t// in\n    tag_388:\n        /* \"#utility.yul\":9300:9337   */\n    tag_387:\n        /* \"#utility.yul\":9150:9344   */\n      swap3\n      swap2\n      pop\n      pop\n      jump\t// out\n        /* \"#utility.yul\":9350:9520   */\n    tag_281:\n        /* \"#utility.yul\":9490:9512   */\n      0x5061757361626c653a206e6f7420706175736564000000000000000000000000\n        /* \"#utility.yul\":9486:9487   */\n      0x00\n        /* \"#utility.yul\":9478:9484   */\n      dup3\n        /* \"#utility.yul\":9474:9488   */\n      add\n        /* \"#utility.yul\":9467:9513   */\n      mstore\n        /* \"#utility.yul\":9350:9520   */\n      pop\n      jump\t// out\n        /* \"#utility.yul\":9526:9892   */\n    tag_282:\n        /* \"#utility.yul\":9668:9671   */\n      0x00\n        /* \"#utility.yul\":9689:9756   */\n      tag_391\n        /* \"#utility.yul\":9753:9755   */\n      0x14\n        /* \"#utility.yul\":9748:9751   */\n      dup4\n        /* \"#utility.yul\":9689:9756   */\n      tag_256\n      jump\t// in\n    tag_391:\n        /* \"#utility.yul\":9682:9756   */\n      swap2\n      pop\n        /* \"#utility.yul\":9765:9858   */\n      tag_392\n        /* \"#utility.yul\":9854:9857   */\n      dup3\n        /* \"#utility.yul\":9765:9858   */\n      tag_281\n      jump\t// in\n    tag_392:\n        /* \"#utility.yul\":9883:9885   */\n      0x20\n        /* \"#utility.yul\":9878:9881   */\n      dup3\n        /* \"#utility.yul\":9874:9886   */\n      add\n        /* \"#utility.yul\":9867:9886   */\n      swap1\n      pop\n        /* \"#utility.yul\":9526:9892   */\n      swap2\n      swap1\n      pop\n      jump\t// out\n        /* \"#utility.yul\":9898:10317   */\n    tag_239:\n        /* \"#utility.yul\":10064:10068   */\n      0x00\n        /* \"#utility.yul\":10102:10104   */\n      0x20\n        /* \"#utility.yul\":10091:10100   */\n      dup3\n        /* \"#utility.yul\":10087:10105   */\n      add\n        /* \"#utility.yul\":10079:10105   */\n      swap1\n      pop\n        /* \"#utility.yul\":10151:10160   */\n      dup2\n        /* \"#utility.yul\":10145:10149   */\n      dup2\n        /* \"#utility.yul\":10141:10161   */\n      sub\n        /* \"#utility.yul\":10137:10138   */\n      0x00\n        /* \"#utility.yul\":10126:10135   */\n      dup4\n        /* \"#utility.yul\":10122:10139   */\n      add\n        /* \"#utility.yul\":10115:10162   */\n      mstore\n        /* \"#utility.yul\":10179:10310   */\n      tag_394\n        /* \"#utility.yul\":10305:10309   */\n      dup2\n        /* \"#utility.yul\":10179:10310   */\n      tag_282\n      jump\t// in\n    tag_394:\n        /* \"#utility.yul\":10171:10310   */\n      swap1\n      pop\n        /* \"#utility.yul\":9898:10317   */\n      swap2\n      swap1\n      pop\n      jump\t// out\n        /* \"#utility.yul\":10323:10489   */\n    tag_283:\n        /* \"#utility.yul\":10463:10481   */\n      0x5061757361626c653a2070617573656400000000000000000000000000000000\n        /* \"#utility.yul\":10459:10460   */\n      0x00\n        /* \"#utility.yul\":10451:10457   */\n      dup3\n        /* \"#utility.yul\":10447:10461   */\n      add\n        /* \"#utility.yul\":10440:10482   */\n      mstore\n        /* \"#utility.yul\":10323:10489   */\n      pop\n      jump\t// out\n        /* \"#utility.yul\":10495:10861   */\n    tag_284:\n        /* \"#utility.yul\":10637:10640   */\n      0x00\n        /* \"#utility.yul\":10658:10725   */\n      tag_397\n        /* \"#utility.yul\":10722:10724   */\n      0x10\n        /* \"#utility.yul\":10717:10720   */\n      dup4\n        /* \"#utility.yul\":10658:10725   */\n      tag_256\n      jump\t// in\n    tag_397:\n        /* \"#utility.yul\":10651:10725   */\n      swap2\n      pop\n        /* \"#utility.yul\":10734:10827   */\n      tag_398\n        /* \"#utility.yul\":10823:10826   */\n      dup3\n        /* \"#utility.yul\":10734:10827   */\n      tag_283\n      jump\t// in\n    tag_398:\n        /* \"#utility.yul\":10852:10854   */\n      0x20\n        /* \"#utility.yul\":10847:10850   */\n      dup3\n        /* \"#utility.yul\":10843:10855   */\n      add\n        /* \"#utility.yul\":10836:10855   */\n      swap1\n      pop\n        /* \"#utility.yul\":10495:10861   */\n      swap2\n      swap1\n      pop\n      jump\t// out\n        /* \"#utility.yul\":10867:11286   */\n    tag_244:\n        /* \"#utility.yul\":11033:11037   */\n      0x00\n        /* \"#utility.yul\":11071:11073   */\n      0x20\n        /* \"#utility.yul\":11060:11069   */\n      dup3\n        /* \"#utility.yul\":11056:11074   */\n      add\n        /* \"#utility.yul\":11048:11074   */\n      swap1\n      pop\n        /* \"#utility.yul\":11120:11129   */\n      dup2\n        /* \"#utility.yul\":11114:11118   */\n      dup2\n        /* \"#utility.yul\":11110:11130   */\n      sub\n        /* \"#utility.yul\":11106:11107   */\n      0x00\n        /* \"#utility.yul\":11095:11104   */\n      dup4\n        /* \"#utility.yul\":11091:11108   */\n      add\n        /* \"#utility.yul\":11084:11131   */\n      mstore\n        /* \"#utility.yul\":11148:11279   */\n      tag_400\n        /* \"#utility.yul\":11274:11278   */\n      dup2\n        /* \"#utility.yul\":11148:11279   */\n      tag_284\n      jump\t// in\n    tag_400:\n        /* \"#utility.yul\":11140:11279   */\n      swap1\n      pop\n        /* \"#utility.yul\":10867:11286   */\n      swap2\n      swap1\n      pop\n      jump\t// out\n        /* \"#utility.yul\":11292:11483   */\n    tag_248:\n        /* \"#utility.yul\":11332:11335   */\n      0x00\n        /* \"#utility.yul\":11351:11371   */\n      tag_402\n        /* \"#utility.yul\":11369:11370   */\n      dup3\n        /* \"#utility.yul\":11351:11371   */\n      tag_267\n      jump\t// in\n    tag_402:\n        /* \"#utility.yul\":11346:11371   */\n      swap2\n      pop\n        /* \"#utility.yul\":11385:11405   */\n      tag_403\n        /* \"#utility.yul\":11403:11404   */\n      dup4\n        /* \"#utility.yul\":11385:11405   */\n      tag_267\n      jump\t// in\n    tag_403:\n        /* \"#utility.yul\":11380:11405   */\n      swap3\n      pop\n        /* \"#utility.yul\":11428:11429   */\n      dup3\n        /* \"#utility.yul\":11425:11426   */\n      dup3\n        /* \"#utility.yul\":11421:11430   */\n      add\n        /* \"#utility.yul\":11414:11430   */\n      swap1\n      pop\n        /* \"#utility.yul\":11449:11452   */\n      dup1\n        /* \"#utility.yul\":11446:11447   */\n      dup3\n        /* \"#utility.yul\":11443:11453   */\n      gt\n        /* \"#utility.yul\":11440:11476   */\n      iszero\n      tag_404\n      jumpi\n        /* \"#utility.yul\":11456:11474   */\n      tag_405\n      tag_279\n      jump\t// in\n    tag_405:\n        /* \"#utility.yul\":11440:11476   */\n    tag_404:\n        /* \"#utility.yul\":11292:11483   */\n      swap3\n      swap2\n      pop\n      pop\n      jump\t// out\n\n    auxdata: 0xa2646970667358221220a8b37e6bcc112a09c266d19c35652113b8ac9e9eb12920b047a26c3366c0fd3a64736f6c634300081e0033\n}\n",
				"bytecode": {
					"linkReferences": {},
					"object": "60806040526005600655348015610014575f5ffd5b5060405161283e38038061283e83398181016040528101906100369190610852565b33828281600390816100489190610ad8565b5080600490816100589190610ad8565b5050505f73ffffffffffffffffffffffffffffffffffffffff168173ffffffffffffffffffffffffffffffffffffffff16036100cb575f6040517f1e4fbdf70000000000000000000000000000000000000000000000000000000081526004016100c29190610be6565b60405180910390fd5b6100da8161017360201b60201c565b505f600560146101000a81548160ff0219169083151502179055503360075f6101000a81548173ffffffffffffffffffffffffffffffffffffffff021916908373ffffffffffffffffffffffffffffffffffffffff16021790555061016c3361014761023660201b60201c565b600a6101539190610d67565b629896806101619190610db1565b61023e60201b60201c565b5050610f8a565b5f60055f9054906101000a900473ffffffffffffffffffffffffffffffffffffffff1690508160055f6101000a81548173ffffffffffffffffffffffffffffffffffffffff021916908373ffffffffffffffffffffffffffffffffffffffff1602179055508173ffffffffffffffffffffffffffffffffffffffff168173ffffffffffffffffffffffffffffffffffffffff167f8be0079c531659141344cd1fd0a4f28419497f9722a3daafe3b4186f6b6457e060405160405180910390a35050565b5f6012905090565b5f73ffffffffffffffffffffffffffffffffffffffff168273ffffffffffffffffffffffffffffffffffffffff16036102ae575f6040517fec442f050000000000000000000000000000000000000000000000000000000081526004016102a59190610be6565b60405180910390fd5b6102bf5f83836102c360201b60201c565b5050565b6102d161045e60201b60201c565b5f73ffffffffffffffffffffffffffffffffffffffff168373ffffffffffffffffffffffffffffffffffffffff161415801561033957505f73ffffffffffffffffffffffffffffffffffffffff168273ffffffffffffffffffffffffffffffffffffffff1614155b801561037e575061034e6104ae60201b60201c565b73ffffffffffffffffffffffffffffffffffffffff168373ffffffffffffffffffffffffffffffffffffffff1614155b15610447575f6064600654836103949190610db1565b61039e9190610e1f565b90505f81836103ad9190610e4f565b90506103e18560075f9054906101000a900473ffffffffffffffffffffffffffffffffffffffff16846104d660201b60201c565b6103f28585836104d660201b60201c565b8473ffffffffffffffffffffffffffffffffffffffff167f7f1b726f82f7a14636a7a5932448f1bce683188520ba3150fd8423989353ebf2836040516104389190610e91565b60405180910390a25050610459565b6104588383836104d660201b60201c565b5b505050565b61046c6106ef60201b60201c565b156104ac576040517f08c379a00000000000000000000000000000000000000000000000000000000081526004016104a390610f04565b60405180910390fd5b565b5f60055f9054906101000a900473ffffffffffffffffffffffffffffffffffffffff16905090565b5f73ffffffffffffffffffffffffffffffffffffffff168373ffffffffffffffffffffffffffffffffffffffff1603610526578060025f82825461051a9190610f22565b925050819055506105f4565b5f5f5f8573ffffffffffffffffffffffffffffffffffffffff1673ffffffffffffffffffffffffffffffffffffffff1681526020019081526020015f20549050818110156105af578381836040517fe450d38c0000000000000000000000000000000000000000000000000000000081526004016105a693929190610f55565b60405180910390fd5b8181035f5f8673ffffffffffffffffffffffffffffffffffffffff1673ffffffffffffffffffffffffffffffffffffffff1681526020019081526020015f2081905550505b5f73ffffffffffffffffffffffffffffffffffffffff168273ffffffffffffffffffffffffffffffffffffffff160361063b578060025f8282540392505081905550610685565b805f5f8473ffffffffffffffffffffffffffffffffffffffff1673ffffffffffffffffffffffffffffffffffffffff1681526020019081526020015f205f82825401925050819055505b8173ffffffffffffffffffffffffffffffffffffffff168373ffffffffffffffffffffffffffffffffffffffff167fddf252ad1be2c89b69c2b068fc378daa952ba7f163c4a11628f55a4df523b3ef836040516106e29190610e91565b60405180910390a3505050565b5f600560149054906101000a900460ff16905090565b5f604051905090565b5f5ffd5b5f5ffd5b5f5ffd5b5f5ffd5b5f601f19601f8301169050919050565b7f4e487b71000000000000000000000000000000000000000000000000000000005f52604160045260245ffd5b6107648261071e565b810181811067ffffffffffffffff821117156107835761078261072e565b5b80604052505050565b5f610795610705565b90506107a1828261075b565b919050565b5f67ffffffffffffffff8211156107c0576107bf61072e565b5b6107c98261071e565b9050602081019050919050565b8281835e5f83830152505050565b5f6107f66107f1846107a6565b61078c565b9050828152602081018484840111156108125761081161071a565b5b61081d8482856107d6565b509392505050565b5f82601f83011261083957610838610716565b5b81516108498482602086016107e4565b91505092915050565b5f5f604083850312156108685761086761070e565b5b5f83015167ffffffffffffffff81111561088557610884610712565b5b61089185828601610825565b925050602083015167ffffffffffffffff8111156108b2576108b1610712565b5b6108be85828601610825565b9150509250929050565b5f81519050919050565b7f4e487b71000000000000000000000000000000000000000000000000000000005f52602260045260245ffd5b5f600282049050600182168061091657607f821691505b602082108103610929576109286108d2565b5b50919050565b5f819050815f5260205f209050919050565b5f6020601f8301049050919050565b5f82821b905092915050565b5f6008830261098b7fffffffffffffffffffffffffffffffffffffffffffffffffffffffffffffffff82610950565b6109958683610950565b95508019841693508086168417925050509392505050565b5f819050919050565b5f819050919050565b5f6109d96109d46109cf846109ad565b6109b6565b6109ad565b9050919050565b5f819050919050565b6109f2836109bf565b610a066109fe826109e0565b84845461095c565b825550505050565b5f5f905090565b610a1d610a0e565b610a288184846109e9565b505050565b5b81811015610a4b57610a405f82610a15565b600181019050610a2e565b5050565b601f821115610a9057610a618161092f565b610a6a84610941565b81016020851015610a79578190505b610a8d610a8585610941565b830182610a2d565b50505b505050565b5f82821c905092915050565b5f610ab05f1984600802610a95565b1980831691505092915050565b5f610ac88383610aa1565b9150826002028217905092915050565b610ae1826108c8565b67ffffffffffffffff811115610afa57610af961072e565b5b610b0482546108ff565b610b0f828285610a4f565b5f60209050601f831160018114610b40575f8415610b2e578287015190505b610b388582610abd565b865550610b9f565b601f198416610b4e8661092f565b5f5b82811015610b7557848901518255600182019150602085019450602081019050610b50565b86831015610b925784890151610b8e601f891682610aa1565b8355505b6001600288020188555050505b505050505050565b5f73ffffffffffffffffffffffffffffffffffffffff82169050919050565b5f610bd082610ba7565b9050919050565b610be081610bc6565b82525050565b5f602082019050610bf95f830184610bd7565b92915050565b7f4e487b71000000000000000000000000000000000000000000000000000000005f52601160045260245ffd5b5f8160011c9050919050565b5f5f8291508390505b6001851115610c8157808604811115610c5d57610c5c610bff565b5b6001851615610c6c5780820291505b8081029050610c7a85610c2c565b9450610c41565b94509492505050565b5f82610c995760019050610d54565b81610ca6575f9050610d54565b8160018114610cbc5760028114610cc657610cf5565b6001915050610d54565b60ff841115610cd857610cd7610bff565b5b8360020a915084821115610cef57610cee610bff565b5b50610d54565b5060208310610133831016604e8410600b8410161715610d2a5782820a905083811115610d2557610d24610bff565b5b610d54565b610d378484846001610c38565b92509050818404811115610d4e57610d4d610bff565b5b81810290505b9392505050565b5f60ff82169050919050565b5f610d71826109ad565b9150610d7c83610d5b565b9250610da97fffffffffffffffffffffffffffffffffffffffffffffffffffffffffffffffff8484610c8a565b905092915050565b5f610dbb826109ad565b9150610dc6836109ad565b9250828202610dd4816109ad565b91508282048414831517610deb57610dea610bff565b5b5092915050565b7f4e487b71000000000000000000000000000000000000000000000000000000005f52601260045260245ffd5b5f610e29826109ad565b9150610e34836109ad565b925082610e4457610e43610df2565b5b828204905092915050565b5f610e59826109ad565b9150610e64836109ad565b9250828203905081811115610e7c57610e7b610bff565b5b92915050565b610e8b816109ad565b82525050565b5f602082019050610ea45f830184610e82565b92915050565b5f82825260208201905092915050565b7f5061757361626c653a20706175736564000000000000000000000000000000005f82015250565b5f610eee601083610eaa565b9150610ef982610eba565b602082019050919050565b5f6020820190508181035f830152610f1b81610ee2565b9050919050565b5f610f2c826109ad565b9150610f37836109ad565b9250828201905080821115610f4f57610f4e610bff565b5b92915050565b5f606082019050610f685f830186610bd7565b610f756020830185610e82565b610f826040830184610e82565b949350505050565b6118a780610f975f395ff3fe608060405234801561000f575f5ffd5b506004361061012a575f3560e01c8063715018a6116100ab578063c4081a4c1161006f578063c4081a4c1461030e578063dd62ed3e1461032a578063e499cc8b1461035a578063ea414b2814610364578063f2fde38b146103805761012a565b8063715018a61461027a5780638da5cb5b1461028457806395d89b41146102a2578063a071dcf4146102c0578063a9059cbb146102de5761012a565b80632dc0562d116100f25780632dc0562d146101d4578063313ce567146101f257806340c10f19146102105780635c975abb1461022c57806370a082311461024a5761012a565b806306fdde031461012e578063095ea7b31461014c57806318160ddd1461017c57806323b872dd1461019a578063297fc08f146101ca575b5f5ffd5b61013661039c565b60405161014391906112ec565b60405180910390f35b6101666004803603810190610161919061139d565b61042c565b60405161017391906113f5565b60405180910390f35b61018461044e565b604051610191919061141d565b60405180910390f35b6101b460048036038101906101af9190611436565b610457565b6040516101c191906113f5565b60405180910390f35b6101d2610485565b005b6101dc610497565b6040516101e99190611495565b60405180910390f35b6101fa6104bc565b60405161020791906114c9565b60405180910390f35b61022a6004803603810190610225919061139d565b6104c4565b005b6102346104da565b60405161024191906113f5565b60405180910390f35b610264600480360381019061025f91906114e2565b6104f0565b604051610271919061141d565b60405180910390f35b610282610535565b005b61028c610548565b6040516102999190611495565b60405180910390f35b6102aa610570565b6040516102b791906112ec565b60405180910390f35b6102c8610600565b6040516102d5919061141d565b60405180910390f35b6102f860048036038101906102f3919061139d565b610606565b60405161030591906113f5565b60405180910390f35b6103286004803603810190610323919061150d565b610628565b005b610344600480360381019061033f9190611538565b6106b5565b604051610351919061141d565b60405180910390f35b610362610737565b005b61037e600480360381019061037991906114e2565b610749565b005b61039a600480360381019061039591906114e2565b6107d6565b005b6060600380546103ab906115a3565b80601f01602080910402602001604051908101604052809291908181526020018280546103d7906115a3565b80156104225780601f106103f957610100808354040283529160200191610422565b820191905f5260205f20905b81548152906001019060200180831161040557829003601f168201915b5050505050905090565b5f5f61043661085a565b9050610443818585610861565b600191505092915050565b5f600254905090565b5f5f61046161085a565b905061046e858285610873565b610479858585610906565b60019150509392505050565b61048d6109f6565b610495610a7d565b565b60075f9054906101000a900473ffffffffffffffffffffffffffffffffffffffff1681565b5f6012905090565b6104cc6109f6565b6104d68282610adf565b5050565b5f600560149054906101000a900460ff16905090565b5f5f5f8373ffffffffffffffffffffffffffffffffffffffff1673ffffffffffffffffffffffffffffffffffffffff1681526020019081526020015f20549050919050565b61053d6109f6565b6105465f610b5e565b565b5f60055f9054906101000a900473ffffffffffffffffffffffffffffffffffffffff16905090565b60606004805461057f906115a3565b80601f01602080910402602001604051908101604052809291908181526020018280546105ab906115a3565b80156105f65780601f106105cd576101008083540402835291602001916105f6565b820191905f5260205f20905b8154815290600101906020018083116105d957829003601f168201915b5050505050905090565b60065481565b5f5f61061061085a565b905061061d818585610906565b600191505092915050565b6106306109f6565b600a811115610674576040517f08c379a000000000000000000000000000000000000000000000000000000000815260040161066b9061161d565b60405180910390fd5b806006819055507f7fc0bc3c16857357fdcc6d787ab6ac15be81359b9699c234fdcce90765df3894816040516106aa919061141d565b60405180910390a150565b5f60015f8473ffffffffffffffffffffffffffffffffffffffff1673ffffffffffffffffffffffffffffffffffffffff1681526020019081526020015f205f8373ffffffffffffffffffffffffffffffffffffffff1673ffffffffffffffffffffffffffffffffffffffff1681526020019081526020015f2054905092915050565b61073f6109f6565b610747610c21565b565b6107516109f6565b8060075f6101000a81548173ffffffffffffffffffffffffffffffffffffffff021916908373ffffffffffffffffffffffffffffffffffffffff1602179055508073ffffffffffffffffffffffffffffffffffffffff167ea263b61aab5ebdcff20c4c0c74c2589ea5ab52149abde19eca17ad5221789960405160405180910390a250565b6107de6109f6565b5f73ffffffffffffffffffffffffffffffffffffffff168173ffffffffffffffffffffffffffffffffffffffff160361084e575f6040517f1e4fbdf70000000000000000000000000000000000000000000000000000000081526004016108459190611495565b60405180910390fd5b61085781610b5e565b50565b5f33905090565b61086e8383836001610c84565b505050565b5f61087e84846106b5565b90507fffffffffffffffffffffffffffffffffffffffffffffffffffffffffffffffff81101561090057818110156108f1578281836040517ffb8f41b20000000000000000000000000000000000000000000000000000000081526004016108e89392919061163b565b60405180910390fd5b6108ff84848484035f610c84565b5b50505050565b5f73ffffffffffffffffffffffffffffffffffffffff168373ffffffffffffffffffffffffffffffffffffffff1603610976575f6040517f96c6fd1e00000000000000000000000000000000000000000000000000000000815260040161096d9190611495565b60405180910390fd5b5f73ffffffffffffffffffffffffffffffffffffffff168273ffffffffffffffffffffffffffffffffffffffff16036109e6575f6040517fec442f050000000000000000000000000000000000000000000000000000000081526004016109dd9190611495565b60405180910390fd5b6109f1838383610e53565b505050565b6109fe61085a565b73ffffffffffffffffffffffffffffffffffffffff16610a1c610548565b73ffffffffffffffffffffffffffffffffffffffff1614610a7b57610a3f61085a565b6040517f118cdaa7000000000000000000000000000000000000000000000000000000008152600401610a729190611495565b60405180910390fd5b565b610a85610fd0565b5f600560146101000a81548160ff0219169083151502179055507f5db9ee0a495bf2e6ff9c91a7834c1ba4fdd244a5e8aa4e537bd38aeae4b073aa610ac861085a565b604051610ad59190611495565b60405180910390a1565b5f73ffffffffffffffffffffffffffffffffffffffff168273ffffffffffffffffffffffffffffffffffffffff1603610b4f575f6040517fec442f05000000000000000000000000000000000000000000000000000000008152600401610b469190611495565b60405180910390fd5b610b5a5f8383610e53565b5050565b5f60055f9054906101000a900473ffffffffffffffffffffffffffffffffffffffff1690508160055f6101000a81548173ffffffffffffffffffffffffffffffffffffffff021916908373ffffffffffffffffffffffffffffffffffffffff1602179055508173ffffffffffffffffffffffffffffffffffffffff168173ffffffffffffffffffffffffffffffffffffffff167f8be0079c531659141344cd1fd0a4f28419497f9722a3daafe3b4186f6b6457e060405160405180910390a35050565b610c29611019565b6001600560146101000a81548160ff0219169083151502179055507f62e78cea01bee320cd4e420270b5ea74000d11b0c9f74754ebdbfc544b05a258610c6d61085a565b604051610c7a9190611495565b60405180910390a1565b5f73ffffffffffffffffffffffffffffffffffffffff168473ffffffffffffffffffffffffffffffffffffffff1603610cf4575f6040517fe602df05000000000000000000000000000000000000000000000000000000008152600401610ceb9190611495565b60405180910390fd5b5f73ffffffffffffffffffffffffffffffffffffffff168373ffffffffffffffffffffffffffffffffffffffff1603610d64575f6040517f94280d62000000000000000000000000000000000000000000000000000000008152600401610d5b9190611495565b60405180910390fd5b8160015f8673ffffffffffffffffffffffffffffffffffffffff1673ffffffffffffffffffffffffffffffffffffffff1681526020019081526020015f205f8573ffffffffffffffffffffffffffffffffffffffff1673ffffffffffffffffffffffffffffffffffffffff1681526020019081526020015f20819055508015610e4d578273ffffffffffffffffffffffffffffffffffffffff168473ffffffffffffffffffffffffffffffffffffffff167f8c5be1e5ebec7d5bd14f71427d1e84f3dd0314c0f7b2291e5b200ac8c7c3b92584604051610e44919061141d565b60405180910390a35b50505050565b610e5b611019565b5f73ffffffffffffffffffffffffffffffffffffffff168373ffffffffffffffffffffffffffffffffffffffff1614158015610ec357505f73ffffffffffffffffffffffffffffffffffffffff168273ffffffffffffffffffffffffffffffffffffffff1614155b8015610f025750610ed2610548565b73ffffffffffffffffffffffffffffffffffffffff168373ffffffffffffffffffffffffffffffffffffffff1614155b15610fbf575f606460065483610f18919061169d565b610f22919061170b565b90505f8183610f31919061173b565b9050610f5f8560075f9054906101000a900473ffffffffffffffffffffffffffffffffffffffff1684611063565b610f6a858583611063565b8473ffffffffffffffffffffffffffffffffffffffff167f7f1b726f82f7a14636a7a5932448f1bce683188520ba3150fd8423989353ebf283604051610fb0919061141d565b60405180910390a25050610fcb565b610fca838383611063565b5b505050565b610fd86104da565b611017576040517f08c379a000000000000000000000000000000000000000000000000000000000815260040161100e906117b8565b60405180910390fd5b565b6110216104da565b15611061576040517f08c379a000000000000000000000000000000000000000000000000000000000815260040161105890611820565b60405180910390fd5b565b5f73ffffffffffffffffffffffffffffffffffffffff168373ffffffffffffffffffffffffffffffffffffffff16036110b3578060025f8282546110a7919061183e565b92505081905550611181565b5f5f5f8573ffffffffffffffffffffffffffffffffffffffff1673ffffffffffffffffffffffffffffffffffffffff1681526020019081526020015f205490508181101561113c578381836040517fe450d38c0000000000000000000000000000000000000000000000000000000081526004016111339392919061163b565b60405180910390fd5b8181035f5f8673ffffffffffffffffffffffffffffffffffffffff1673ffffffffffffffffffffffffffffffffffffffff1681526020019081526020015f2081905550505b5f73ffffffffffffffffffffffffffffffffffffffff168273ffffffffffffffffffffffffffffffffffffffff16036111c8578060025f8282540392505081905550611212565b805f5f8473ffffffffffffffffffffffffffffffffffffffff1673ffffffffffffffffffffffffffffffffffffffff1681526020019081526020015f205f82825401925050819055505b8173ffffffffffffffffffffffffffffffffffffffff168373ffffffffffffffffffffffffffffffffffffffff167fddf252ad1be2c89b69c2b068fc378daa952ba7f163c4a11628f55a4df523b3ef8360405161126f919061141d565b60405180910390a3505050565b5f81519050919050565b5f82825260208201905092915050565b8281835e5f83830152505050565b5f601f19601f8301169050919050565b5f6112be8261127c565b6112c88185611286565b93506112d8818560208601611296565b6112e1816112a4565b840191505092915050565b5f6020820190508181035f83015261130481846112b4565b905092915050565b5f5ffd5b5f73ffffffffffffffffffffffffffffffffffffffff82169050919050565b5f61133982611310565b9050919050565b6113498161132f565b8114611353575f5ffd5b50565b5f8135905061136481611340565b92915050565b5f819050919050565b61137c8161136a565b8114611386575f5ffd5b50565b5f8135905061139781611373565b92915050565b5f5f604083850312156113b3576113b261130c565b5b5f6113c085828601611356565b92505060206113d185828601611389565b9150509250929050565b5f8115159050919050565b6113ef816113db565b82525050565b5f6020820190506114085f8301846113e6565b92915050565b6114178161136a565b82525050565b5f6020820190506114305f83018461140e565b92915050565b5f5f5f6060848603121561144d5761144c61130c565b5b5f61145a86828701611356565b935050602061146b86828701611356565b925050604061147c86828701611389565b9150509250925092565b61148f8161132f565b82525050565b5f6020820190506114a85f830184611486565b92915050565b5f60ff82169050919050565b6114c3816114ae565b82525050565b5f6020820190506114dc5f8301846114ba565b92915050565b5f602082840312156114f7576114f661130c565b5b5f61150484828501611356565b91505092915050565b5f602082840312156115225761152161130c565b5b5f61152f84828501611389565b91505092915050565b5f5f6040838503121561154e5761154d61130c565b5b5f61155b85828601611356565b925050602061156c85828601611356565b9150509250929050565b7f4e487b71000000000000000000000000000000000000000000000000000000005f52602260045260245ffd5b5f60028204905060018216806115ba57607f821691505b6020821081036115cd576115cc611576565b5b50919050565b7f4d617820697320313025000000000000000000000000000000000000000000005f82015250565b5f611607600a83611286565b9150611612826115d3565b602082019050919050565b5f6020820190508181035f830152611634816115fb565b9050919050565b5f60608201905061164e5f830186611486565b61165b602083018561140e565b611668604083018461140e565b949350505050565b7f4e487b71000000000000000000000000000000000000000000000000000000005f52601160045260245ffd5b5f6116a78261136a565b91506116b28361136a565b92508282026116c08161136a565b915082820484148315176116d7576116d6611670565b5b5092915050565b7f4e487b71000000000000000000000000000000000000000000000000000000005f52601260045260245ffd5b5f6117158261136a565b91506117208361136a565b9250826117305761172f6116de565b5b828204905092915050565b5f6117458261136a565b91506117508361136a565b925082820390508181111561176857611767611670565b5b92915050565b7f5061757361626c653a206e6f74207061757365640000000000000000000000005f82015250565b5f6117a2601483611286565b91506117ad8261176e565b602082019050919050565b5f6020820190508181035f8301526117cf81611796565b9050919050565b7f5061757361626c653a20706175736564000000000000000000000000000000005f82015250565b5f61180a601083611286565b9150611815826117d6565b602082019050919050565b5f6020820190508181035f830152611837816117fe565b9050919050565b5f6118488261136a565b91506118538361136a565b925082820190508082111561186b5761186a611670565b5b9291505056fea2646970667358221220a8b37e6bcc112a09c266d19c35652113b8ac9e9eb12920b047a26c3366c0fd3a64736f6c634300081e0033",
					"opcodes": "PUSH1 0x80 PUSH1 0x40 MSTORE PUSH1 0x5 PUSH1 0x6 SSTORE CALLVALUE DUP1 ISZERO PUSH2 0x14 JUMPI PUSH0 PUSH0 REVERT JUMPDEST POP PUSH1 0x40 MLOAD PUSH2 0x283E CODESIZE SUB DUP1 PUSH2 0x283E DUP4 CODECOPY DUP2 DUP2 ADD PUSH1 0x40 MSTORE DUP2 ADD SWAP1 PUSH2 0x36 SWAP2 SWAP1 PUSH2 0x852 JUMP JUMPDEST CALLER DUP3 DUP3 DUP2 PUSH1 0x3 SWAP1 DUP2 PUSH2 0x48 SWAP2 SWAP1 PUSH2 0xAD8 JUMP JUMPDEST POP DUP1 PUSH1 0x4 SWAP1 DUP2 PUSH2 0x58 SWAP2 SWAP1 PUSH2 0xAD8 JUMP JUMPDEST POP POP POP PUSH0 PUSH20 0xFFFFFFFFFFFFFFFFFFFFFFFFFFFFFFFFFFFFFFFF AND DUP2 PUSH20 0xFFFFFFFFFFFFFFFFFFFFFFFFFFFFFFFFFFFFFFFF AND SUB PUSH2 0xCB JUMPI PUSH0 PUSH1 0x40 MLOAD PUSH32 0x1E4FBDF700000000000000000000000000000000000000000000000000000000 DUP2 MSTORE PUSH1 0x4 ADD PUSH2 0xC2 SWAP2 SWAP1 PUSH2 0xBE6 JUMP JUMPDEST PUSH1 0x40 MLOAD DUP1 SWAP2 SUB SWAP1 REVERT JUMPDEST PUSH2 0xDA DUP2 PUSH2 0x173 PUSH1 0x20 SHL PUSH1 0x20 SHR JUMP JUMPDEST POP PUSH0 PUSH1 0x5 PUSH1 0x14 PUSH2 0x100 EXP DUP2 SLOAD DUP2 PUSH1 0xFF MUL NOT AND SWAP1 DUP4 ISZERO ISZERO MUL OR SWAP1 SSTORE POP CALLER PUSH1 0x7 PUSH0 PUSH2 0x100 EXP DUP2 SLOAD DUP2 PUSH20 0xFFFFFFFFFFFFFFFFFFFFFFFFFFFFFFFFFFFFFFFF MUL NOT AND SWAP1 DUP4 PUSH20 0xFFFFFFFFFFFFFFFFFFFFFFFFFFFFFFFFFFFFFFFF AND MUL OR SWAP1 SSTORE POP PUSH2 0x16C CALLER PUSH2 0x147 PUSH2 0x236 PUSH1 0x20 SHL PUSH1 0x20 SHR JUMP JUMPDEST PUSH1 0xA PUSH2 0x153 SWAP2 SWAP1 PUSH2 0xD67 JUMP JUMPDEST PUSH3 0x989680 PUSH2 0x161 SWAP2 SWAP1 PUSH2 0xDB1 JUMP JUMPDEST PUSH2 0x23E PUSH1 0x20 SHL PUSH1 0x20 SHR JUMP JUMPDEST POP POP PUSH2 0xF8A JUMP JUMPDEST PUSH0 PUSH1 0x5 PUSH0 SWAP1 SLOAD SWAP1 PUSH2 0x100 EXP SWAP1 DIV PUSH20 0xFFFFFFFFFFFFFFFFFFFFFFFFFFFFFFFFFFFFFFFF AND SWAP1 POP DUP2 PUSH1 0x5 PUSH0 PUSH2 0x100 EXP DUP2 SLOAD DUP2 PUSH20 0xFFFFFFFFFFFFFFFFFFFFFFFFFFFFFFFFFFFFFFFF MUL NOT AND SWAP1 DUP4 PUSH20 0xFFFFFFFFFFFFFFFFFFFFFFFFFFFFFFFFFFFFFFFF AND MUL OR SWAP1 SSTORE POP DUP2 PUSH20 0xFFFFFFFFFFFFFFFFFFFFFFFFFFFFFFFFFFFFFFFF AND DUP2 PUSH20 0xFFFFFFFFFFFFFFFFFFFFFFFFFFFFFFFFFFFFFFFF AND PUSH32 0x8BE0079C531659141344CD1FD0A4F28419497F9722A3DAAFE3B4186F6B6457E0 PUSH1 0x40 MLOAD PUSH1 0x40 MLOAD DUP1 SWAP2 SUB SWAP1 LOG3 POP POP JUMP JUMPDEST PUSH0 PUSH1 0x12 SWAP1 POP SWAP1 JUMP JUMPDEST PUSH0 PUSH20 0xFFFFFFFFFFFFFFFFFFFFFFFFFFFFFFFFFFFFFFFF AND DUP3 PUSH20 0xFFFFFFFFFFFFFFFFFFFFFFFFFFFFFFFFFFFFFFFF AND SUB PUSH2 0x2AE JUMPI PUSH0 PUSH1 0x40 MLOAD PUSH32 0xEC442F0500000000000000000000000000000000000000000000000000000000 DUP2 MSTORE PUSH1 0x4 ADD PUSH2 0x2A5 SWAP2 SWAP1 PUSH2 0xBE6 JUMP JUMPDEST PUSH1 0x40 MLOAD DUP1 SWAP2 SUB SWAP1 REVERT JUMPDEST PUSH2 0x2BF PUSH0 DUP4 DUP4 PUSH2 0x2C3 PUSH1 0x20 SHL PUSH1 0x20 SHR JUMP JUMPDEST POP POP JUMP JUMPDEST PUSH2 0x2D1 PUSH2 0x45E PUSH1 0x20 SHL PUSH1 0x20 SHR JUMP JUMPDEST PUSH0 PUSH20 0xFFFFFFFFFFFFFFFFFFFFFFFFFFFFFFFFFFFFFFFF AND DUP4 PUSH20 0xFFFFFFFFFFFFFFFFFFFFFFFFFFFFFFFFFFFFFFFF AND EQ ISZERO DUP1 ISZERO PUSH2 0x339 JUMPI POP PUSH0 PUSH20 0xFFFFFFFFFFFFFFFFFFFFFFFFFFFFFFFFFFFFFFFF AND DUP3 PUSH20 0xFFFFFFFFFFFFFFFFFFFFFFFFFFFFFFFFFFFFFFFF AND EQ ISZERO JUMPDEST DUP1 ISZERO PUSH2 0x37E JUMPI POP PUSH2 0x34E PUSH2 0x4AE PUSH1 0x20 SHL PUSH1 0x20 SHR JUMP JUMPDEST PUSH20 0xFFFFFFFFFFFFFFFFFFFFFFFFFFFFFFFFFFFFFFFF AND DUP4 PUSH20 0xFFFFFFFFFFFFFFFFFFFFFFFFFFFFFFFFFFFFFFFF AND EQ ISZERO JUMPDEST ISZERO PUSH2 0x447 JUMPI PUSH0 PUSH1 0x64 PUSH1 0x6 SLOAD DUP4 PUSH2 0x394 SWAP2 SWAP1 PUSH2 0xDB1 JUMP JUMPDEST PUSH2 0x39E SWAP2 SWAP1 PUSH2 0xE1F JUMP JUMPDEST SWAP1 POP PUSH0 DUP2 DUP4 PUSH2 0x3AD SWAP2 SWAP1 PUSH2 0xE4F JUMP JUMPDEST SWAP1 POP PUSH2 0x3E1 DUP6 PUSH1 0x7 PUSH0 SWAP1 SLOAD SWAP1 PUSH2 0x100 EXP SWAP1 DIV PUSH20 0xFFFFFFFFFFFFFFFFFFFFFFFFFFFFFFFFFFFFFFFF AND DUP5 PUSH2 0x4D6 PUSH1 0x20 SHL PUSH1 0x20 SHR JUMP JUMPDEST PUSH2 0x3F2 DUP6 DUP6 DUP4 PUSH2 0x4D6 PUSH1 0x20 SHL PUSH1 0x20 SHR JUMP JUMPDEST DUP5 PUSH20 0xFFFFFFFFFFFFFFFFFFFFFFFFFFFFFFFFFFFFFFFF AND PUSH32 0x7F1B726F82F7A14636A7A5932448F1BCE683188520BA3150FD8423989353EBF2 DUP4 PUSH1 0x40 MLOAD PUSH2 0x438 SWAP2 SWAP1 PUSH2 0xE91 JUMP JUMPDEST PUSH1 0x40 MLOAD DUP1 SWAP2 SUB SWAP1 LOG2 POP POP PUSH2 0x459 JUMP JUMPDEST PUSH2 0x458 DUP4 DUP4 DUP4 PUSH2 0x4D6 PUSH1 0x20 SHL PUSH1 0x20 SHR JUMP JUMPDEST JUMPDEST POP POP POP JUMP JUMPDEST PUSH2 0x46C PUSH2 0x6EF PUSH1 0x20 SHL PUSH1 0x20 SHR JUMP JUMPDEST ISZERO PUSH2 0x4AC JUMPI PUSH1 0x40 MLOAD PUSH32 0x8C379A000000000000000000000000000000000000000000000000000000000 DUP2 MSTORE PUSH1 0x4 ADD PUSH2 0x4A3 SWAP1 PUSH2 0xF04 JUMP JUMPDEST PUSH1 0x40 MLOAD DUP1 SWAP2 SUB SWAP1 REVERT JUMPDEST JUMP JUMPDEST PUSH0 PUSH1 0x5 PUSH0 SWAP1 SLOAD SWAP1 PUSH2 0x100 EXP SWAP1 DIV PUSH20 0xFFFFFFFFFFFFFFFFFFFFFFFFFFFFFFFFFFFFFFFF AND SWAP1 POP SWAP1 JUMP JUMPDEST PUSH0 PUSH20 0xFFFFFFFFFFFFFFFFFFFFFFFFFFFFFFFFFFFFFFFF AND DUP4 PUSH20 0xFFFFFFFFFFFFFFFFFFFFFFFFFFFFFFFFFFFFFFFF AND SUB PUSH2 0x526 JUMPI DUP1 PUSH1 0x2 PUSH0 DUP3 DUP3 SLOAD PUSH2 0x51A SWAP2 SWAP1 PUSH2 0xF22 JUMP JUMPDEST SWAP3 POP POP DUP2 SWAP1 SSTORE POP PUSH2 0x5F4 JUMP JUMPDEST PUSH0 PUSH0 PUSH0 DUP6 PUSH20 0xFFFFFFFFFFFFFFFFFFFFFFFFFFFFFFFFFFFFFFFF AND PUSH20 0xFFFFFFFFFFFFFFFFFFFFFFFFFFFFFFFFFFFFFFFF AND DUP2 MSTORE PUSH1 0x20 ADD SWAP1 DUP2 MSTORE PUSH1 0x20 ADD PUSH0 KECCAK256 SLOAD SWAP1 POP DUP2 DUP2 LT ISZERO PUSH2 0x5AF JUMPI DUP4 DUP2 DUP4 PUSH1 0x40 MLOAD PUSH32 0xE450D38C00000000000000000000000000000000000000000000000000000000 DUP2 MSTORE PUSH1 0x4 ADD PUSH2 0x5A6 SWAP4 SWAP3 SWAP2 SWAP1 PUSH2 0xF55 JUMP JUMPDEST PUSH1 0x40 MLOAD DUP1 SWAP2 SUB SWAP1 REVERT JUMPDEST DUP2 DUP2 SUB PUSH0 PUSH0 DUP7 PUSH20 0xFFFFFFFFFFFFFFFFFFFFFFFFFFFFFFFFFFFFFFFF AND PUSH20 0xFFFFFFFFFFFFFFFFFFFFFFFFFFFFFFFFFFFFFFFF AND DUP2 MSTORE PUSH1 0x20 ADD SWAP1 DUP2 MSTORE PUSH1 0x20 ADD PUSH0 KECCAK256 DUP2 SWAP1 SSTORE POP POP JUMPDEST PUSH0 PUSH20 0xFFFFFFFFFFFFFFFFFFFFFFFFFFFFFFFFFFFFFFFF AND DUP3 PUSH20 0xFFFFFFFFFFFFFFFFFFFFFFFFFFFFFFFFFFFFFFFF AND SUB PUSH2 0x63B JUMPI DUP1 PUSH1 0x2 PUSH0 DUP3 DUP3 SLOAD SUB SWAP3 POP POP DUP2 SWAP1 SSTORE POP PUSH2 0x685 JUMP JUMPDEST DUP1 PUSH0 PUSH0 DUP5 PUSH20 0xFFFFFFFFFFFFFFFFFFFFFFFFFFFFFFFFFFFFFFFF AND PUSH20 0xFFFFFFFFFFFFFFFFFFFFFFFFFFFFFFFFFFFFFFFF AND DUP2 MSTORE PUSH1 0x20 ADD SWAP1 DUP2 MSTORE PUSH1 0x20 ADD PUSH0 KECCAK256 PUSH0 DUP3 DUP3 SLOAD ADD SWAP3 POP POP DUP2 SWAP1 SSTORE POP JUMPDEST DUP2 PUSH20 0xFFFFFFFFFFFFFFFFFFFFFFFFFFFFFFFFFFFFFFFF AND DUP4 PUSH20 0xFFFFFFFFFFFFFFFFFFFFFFFFFFFFFFFFFFFFFFFF AND PUSH32 0xDDF252AD1BE2C89B69C2B068FC378DAA952BA7F163C4A11628F55A4DF523B3EF DUP4 PUSH1 0x40 MLOAD PUSH2 0x6E2 SWAP2 SWAP1 PUSH2 0xE91 JUMP JUMPDEST PUSH1 0x40 MLOAD DUP1 SWAP2 SUB SWAP1 LOG3 POP POP POP JUMP JUMPDEST PUSH0 PUSH1 0x5 PUSH1 0x14 SWAP1 SLOAD SWAP1 PUSH2 0x100 EXP SWAP1 DIV PUSH1 0xFF AND SWAP1 POP SWAP1 JUMP JUMPDEST PUSH0 PUSH1 0x40 MLOAD SWAP1 POP SWAP1 JUMP JUMPDEST PUSH0 PUSH0 REVERT JUMPDEST PUSH0 PUSH0 REVERT JUMPDEST PUSH0 PUSH0 REVERT JUMPDEST PUSH0 PUSH0 REVERT JUMPDEST PUSH0 PUSH1 0x1F NOT PUSH1 0x1F DUP4 ADD AND SWAP1 POP SWAP2 SWAP1 POP JUMP JUMPDEST PUSH32 0x4E487B7100000000000000000000000000000000000000000000000000000000 PUSH0 MSTORE PUSH1 0x41 PUSH1 0x4 MSTORE PUSH1 0x24 PUSH0 REVERT JUMPDEST PUSH2 0x764 DUP3 PUSH2 0x71E JUMP JUMPDEST DUP2 ADD DUP2 DUP2 LT PUSH8 0xFFFFFFFFFFFFFFFF DUP3 GT OR ISZERO PUSH2 0x783 JUMPI PUSH2 0x782 PUSH2 0x72E JUMP JUMPDEST JUMPDEST DUP1 PUSH1 0x40 MSTORE POP POP POP JUMP JUMPDEST PUSH0 PUSH2 0x795 PUSH2 0x705 JUMP JUMPDEST SWAP1 POP PUSH2 0x7A1 DUP3 DUP3 PUSH2 0x75B JUMP JUMPDEST SWAP2 SWAP1 POP JUMP JUMPDEST PUSH0 PUSH8 0xFFFFFFFFFFFFFFFF DUP3 GT ISZERO PUSH2 0x7C0 JUMPI PUSH2 0x7BF PUSH2 0x72E JUMP JUMPDEST JUMPDEST PUSH2 0x7C9 DUP3 PUSH2 0x71E JUMP JUMPDEST SWAP1 POP PUSH1 0x20 DUP2 ADD SWAP1 POP SWAP2 SWAP1 POP JUMP JUMPDEST DUP3 DUP2 DUP4 MCOPY PUSH0 DUP4 DUP4 ADD MSTORE POP POP POP JUMP JUMPDEST PUSH0 PUSH2 0x7F6 PUSH2 0x7F1 DUP5 PUSH2 0x7A6 JUMP JUMPDEST PUSH2 0x78C JUMP JUMPDEST SWAP1 POP DUP3 DUP2 MSTORE PUSH1 0x20 DUP2 ADD DUP5 DUP5 DUP5 ADD GT ISZERO PUSH2 0x812 JUMPI PUSH2 0x811 PUSH2 0x71A JUMP JUMPDEST JUMPDEST PUSH2 0x81D DUP5 DUP3 DUP6 PUSH2 0x7D6 JUMP JUMPDEST POP SWAP4 SWAP3 POP POP POP JUMP JUMPDEST PUSH0 DUP3 PUSH1 0x1F DUP4 ADD SLT PUSH2 0x839 JUMPI PUSH2 0x838 PUSH2 0x716 JUMP JUMPDEST JUMPDEST DUP2 MLOAD PUSH2 0x849 DUP5 DUP3 PUSH1 0x20 DUP7 ADD PUSH2 0x7E4 JUMP JUMPDEST SWAP2 POP POP SWAP3 SWAP2 POP POP JUMP JUMPDEST PUSH0 PUSH0 PUSH1 0x40 DUP4 DUP6 SUB SLT ISZERO PUSH2 0x868 JUMPI PUSH2 0x867 PUSH2 0x70E JUMP JUMPDEST JUMPDEST PUSH0 DUP4 ADD MLOAD PUSH8 0xFFFFFFFFFFFFFFFF DUP2 GT ISZERO PUSH2 0x885 JUMPI PUSH2 0x884 PUSH2 0x712 JUMP JUMPDEST JUMPDEST PUSH2 0x891 DUP6 DUP3 DUP7 ADD PUSH2 0x825 JUMP JUMPDEST SWAP3 POP POP PUSH1 0x20 DUP4 ADD MLOAD PUSH8 0xFFFFFFFFFFFFFFFF DUP2 GT ISZERO PUSH2 0x8B2 JUMPI PUSH2 0x8B1 PUSH2 0x712 JUMP JUMPDEST JUMPDEST PUSH2 0x8BE DUP6 DUP3 DUP7 ADD PUSH2 0x825 JUMP JUMPDEST SWAP2 POP POP SWAP3 POP SWAP3 SWAP1 POP JUMP JUMPDEST PUSH0 DUP2 MLOAD SWAP1 POP SWAP2 SWAP1 POP JUMP JUMPDEST PUSH32 0x4E487B7100000000000000000000000000000000000000000000000000000000 PUSH0 MSTORE PUSH1 0x22 PUSH1 0x4 MSTORE PUSH1 0x24 PUSH0 REVERT JUMPDEST PUSH0 PUSH1 0x2 DUP3 DIV SWAP1 POP PUSH1 0x1 DUP3 AND DUP1 PUSH2 0x916 JUMPI PUSH1 0x7F DUP3 AND SWAP2 POP JUMPDEST PUSH1 0x20 DUP3 LT DUP2 SUB PUSH2 0x929 JUMPI PUSH2 0x928 PUSH2 0x8D2 JUMP JUMPDEST JUMPDEST POP SWAP2 SWAP1 POP JUMP JUMPDEST PUSH0 DUP2 SWAP1 POP DUP2 PUSH0 MSTORE PUSH1 0x20 PUSH0 KECCAK256 SWAP1 POP SWAP2 SWAP1 POP JUMP JUMPDEST PUSH0 PUSH1 0x20 PUSH1 0x1F DUP4 ADD DIV SWAP1 POP SWAP2 SWAP1 POP JUMP JUMPDEST PUSH0 DUP3 DUP3 SHL SWAP1 POP SWAP3 SWAP2 POP POP JUMP JUMPDEST PUSH0 PUSH1 0x8 DUP4 MUL PUSH2 0x98B PUSH32 0xFFFFFFFFFFFFFFFFFFFFFFFFFFFFFFFFFFFFFFFFFFFFFFFFFFFFFFFFFFFFFFFF DUP3 PUSH2 0x950 JUMP JUMPDEST PUSH2 0x995 DUP7 DUP4 PUSH2 0x950 JUMP JUMPDEST SWAP6 POP DUP1 NOT DUP5 AND SWAP4 POP DUP1 DUP7 AND DUP5 OR SWAP3 POP POP POP SWAP4 SWAP3 POP POP POP JUMP JUMPDEST PUSH0 DUP2 SWAP1 POP SWAP2 SWAP1 POP JUMP JUMPDEST PUSH0 DUP2 SWAP1 POP SWAP2 SWAP1 POP JUMP JUMPDEST PUSH0 PUSH2 0x9D9 PUSH2 0x9D4 PUSH2 0x9CF DUP5 PUSH2 0x9AD JUMP JUMPDEST PUSH2 0x9B6 JUMP JUMPDEST PUSH2 0x9AD JUMP JUMPDEST SWAP1 POP SWAP2 SWAP1 POP JUMP JUMPDEST PUSH0 DUP2 SWAP1 POP SWAP2 SWAP1 POP JUMP JUMPDEST PUSH2 0x9F2 DUP4 PUSH2 0x9BF JUMP JUMPDEST PUSH2 0xA06 PUSH2 0x9FE DUP3 PUSH2 0x9E0 JUMP JUMPDEST DUP5 DUP5 SLOAD PUSH2 0x95C JUMP JUMPDEST DUP3 SSTORE POP POP POP POP JUMP JUMPDEST PUSH0 PUSH0 SWAP1 POP SWAP1 JUMP JUMPDEST PUSH2 0xA1D PUSH2 0xA0E JUMP JUMPDEST PUSH2 0xA28 DUP2 DUP5 DUP5 PUSH2 0x9E9 JUMP JUMPDEST POP POP POP JUMP JUMPDEST JUMPDEST DUP2 DUP2 LT ISZERO PUSH2 0xA4B JUMPI PUSH2 0xA40 PUSH0 DUP3 PUSH2 0xA15 JUMP JUMPDEST PUSH1 0x1 DUP2 ADD SWAP1 POP PUSH2 0xA2E JUMP JUMPDEST POP POP JUMP JUMPDEST PUSH1 0x1F DUP3 GT ISZERO PUSH2 0xA90 JUMPI PUSH2 0xA61 DUP2 PUSH2 0x92F JUMP JUMPDEST PUSH2 0xA6A DUP5 PUSH2 0x941 JUMP JUMPDEST DUP2 ADD PUSH1 0x20 DUP6 LT ISZERO PUSH2 0xA79 JUMPI DUP2 SWAP1 POP JUMPDEST PUSH2 0xA8D PUSH2 0xA85 DUP6 PUSH2 0x941 JUMP JUMPDEST DUP4 ADD DUP3 PUSH2 0xA2D JUMP JUMPDEST POP POP JUMPDEST POP POP POP JUMP JUMPDEST PUSH0 DUP3 DUP3 SHR SWAP1 POP SWAP3 SWAP2 POP POP JUMP JUMPDEST PUSH0 PUSH2 0xAB0 PUSH0 NOT DUP5 PUSH1 0x8 MUL PUSH2 0xA95 JUMP JUMPDEST NOT DUP1 DUP4 AND SWAP2 POP POP SWAP3 SWAP2 POP POP JUMP JUMPDEST PUSH0 PUSH2 0xAC8 DUP4 DUP4 PUSH2 0xAA1 JUMP JUMPDEST SWAP2 POP DUP3 PUSH1 0x2 MUL DUP3 OR SWAP1 POP SWAP3 SWAP2 POP POP JUMP JUMPDEST PUSH2 0xAE1 DUP3 PUSH2 0x8C8 JUMP JUMPDEST PUSH8 0xFFFFFFFFFFFFFFFF DUP2 GT ISZERO PUSH2 0xAFA JUMPI PUSH2 0xAF9 PUSH2 0x72E JUMP JUMPDEST JUMPDEST PUSH2 0xB04 DUP3 SLOAD PUSH2 0x8FF JUMP JUMPDEST PUSH2 0xB0F DUP3 DUP3 DUP6 PUSH2 0xA4F JUMP JUMPDEST PUSH0 PUSH1 0x20 SWAP1 POP PUSH1 0x1F DUP4 GT PUSH1 0x1 DUP2 EQ PUSH2 0xB40 JUMPI PUSH0 DUP5 ISZERO PUSH2 0xB2E JUMPI DUP3 DUP8 ADD MLOAD SWAP1 POP JUMPDEST PUSH2 0xB38 DUP6 DUP3 PUSH2 0xABD JUMP JUMPDEST DUP7 SSTORE POP PUSH2 0xB9F JUMP JUMPDEST PUSH1 0x1F NOT DUP5 AND PUSH2 0xB4E DUP7 PUSH2 0x92F JUMP JUMPDEST PUSH0 JUMPDEST DUP3 DUP2 LT ISZERO PUSH2 0xB75 JUMPI DUP5 DUP10 ADD MLOAD DUP3 SSTORE PUSH1 0x1 DUP3 ADD SWAP2 POP PUSH1 0x20 DUP6 ADD SWAP5 POP PUSH1 0x20 DUP2 ADD SWAP1 POP PUSH2 0xB50 JUMP JUMPDEST DUP7 DUP4 LT ISZERO PUSH2 0xB92 JUMPI DUP5 DUP10 ADD MLOAD PUSH2 0xB8E PUSH1 0x1F DUP10 AND DUP3 PUSH2 0xAA1 JUMP JUMPDEST DUP4 SSTORE POP JUMPDEST PUSH1 0x1 PUSH1 0x2 DUP9 MUL ADD DUP9 SSTORE POP POP POP JUMPDEST POP POP POP POP POP POP JUMP JUMPDEST PUSH0 PUSH20 0xFFFFFFFFFFFFFFFFFFFFFFFFFFFFFFFFFFFFFFFF DUP3 AND SWAP1 POP SWAP2 SWAP1 POP JUMP JUMPDEST PUSH0 PUSH2 0xBD0 DUP3 PUSH2 0xBA7 JUMP JUMPDEST SWAP1 POP SWAP2 SWAP1 POP JUMP JUMPDEST PUSH2 0xBE0 DUP2 PUSH2 0xBC6 JUMP JUMPDEST DUP3 MSTORE POP POP JUMP JUMPDEST PUSH0 PUSH1 0x20 DUP3 ADD SWAP1 POP PUSH2 0xBF9 PUSH0 DUP4 ADD DUP5 PUSH2 0xBD7 JUMP JUMPDEST SWAP3 SWAP2 POP POP JUMP JUMPDEST PUSH32 0x4E487B7100000000000000000000000000000000000000000000000000000000 PUSH0 MSTORE PUSH1 0x11 PUSH1 0x4 MSTORE PUSH1 0x24 PUSH0 REVERT JUMPDEST PUSH0 DUP2 PUSH1 0x1 SHR SWAP1 POP SWAP2 SWAP1 POP JUMP JUMPDEST PUSH0 PUSH0 DUP3 SWAP2 POP DUP4 SWAP1 POP JUMPDEST PUSH1 0x1 DUP6 GT ISZERO PUSH2 0xC81 JUMPI DUP1 DUP7 DIV DUP2 GT ISZERO PUSH2 0xC5D JUMPI PUSH2 0xC5C PUSH2 0xBFF JUMP JUMPDEST JUMPDEST PUSH1 0x1 DUP6 AND ISZERO PUSH2 0xC6C JUMPI DUP1 DUP3 MUL SWAP2 POP JUMPDEST DUP1 DUP2 MUL SWAP1 POP PUSH2 0xC7A DUP6 PUSH2 0xC2C JUMP JUMPDEST SWAP5 POP PUSH2 0xC41 JUMP JUMPDEST SWAP5 POP SWAP5 SWAP3 POP POP POP JUMP JUMPDEST PUSH0 DUP3 PUSH2 0xC99 JUMPI PUSH1 0x1 SWAP1 POP PUSH2 0xD54 JUMP JUMPDEST DUP2 PUSH2 0xCA6 JUMPI PUSH0 SWAP1 POP PUSH2 0xD54 JUMP JUMPDEST DUP2 PUSH1 0x1 DUP2 EQ PUSH2 0xCBC JUMPI PUSH1 0x2 DUP2 EQ PUSH2 0xCC6 JUMPI PUSH2 0xCF5 JUMP JUMPDEST PUSH1 0x1 SWAP2 POP POP PUSH2 0xD54 JUMP JUMPDEST PUSH1 0xFF DUP5 GT ISZERO PUSH2 0xCD8 JUMPI PUSH2 0xCD7 PUSH2 0xBFF JUMP JUMPDEST JUMPDEST DUP4 PUSH1 0x2 EXP SWAP2 POP DUP5 DUP3 GT ISZERO PUSH2 0xCEF JUMPI PUSH2 0xCEE PUSH2 0xBFF JUMP JUMPDEST JUMPDEST POP PUSH2 0xD54 JUMP JUMPDEST POP PUSH1 0x20 DUP4 LT PUSH2 0x133 DUP4 LT AND PUSH1 0x4E DUP5 LT PUSH1 0xB DUP5 LT AND OR ISZERO PUSH2 0xD2A JUMPI DUP3 DUP3 EXP SWAP1 POP DUP4 DUP2 GT ISZERO PUSH2 0xD25 JUMPI PUSH2 0xD24 PUSH2 0xBFF JUMP JUMPDEST JUMPDEST PUSH2 0xD54 JUMP JUMPDEST PUSH2 0xD37 DUP5 DUP5 DUP5 PUSH1 0x1 PUSH2 0xC38 JUMP JUMPDEST SWAP3 POP SWAP1 POP DUP2 DUP5 DIV DUP2 GT ISZERO PUSH2 0xD4E JUMPI PUSH2 0xD4D PUSH2 0xBFF JUMP JUMPDEST JUMPDEST DUP2 DUP2 MUL SWAP1 POP JUMPDEST SWAP4 SWAP3 POP POP POP JUMP JUMPDEST PUSH0 PUSH1 0xFF DUP3 AND SWAP1 POP SWAP2 SWAP1 POP JUMP JUMPDEST PUSH0 PUSH2 0xD71 DUP3 PUSH2 0x9AD JUMP JUMPDEST SWAP2 POP PUSH2 0xD7C DUP4 PUSH2 0xD5B JUMP JUMPDEST SWAP3 POP PUSH2 0xDA9 PUSH32 0xFFFFFFFFFFFFFFFFFFFFFFFFFFFFFFFFFFFFFFFFFFFFFFFFFFFFFFFFFFFFFFFF DUP5 DUP5 PUSH2 0xC8A JUMP JUMPDEST SWAP1 POP SWAP3 SWAP2 POP POP JUMP JUMPDEST PUSH0 PUSH2 0xDBB DUP3 PUSH2 0x9AD JUMP JUMPDEST SWAP2 POP PUSH2 0xDC6 DUP4 PUSH2 0x9AD JUMP JUMPDEST SWAP3 POP DUP3 DUP3 MUL PUSH2 0xDD4 DUP2 PUSH2 0x9AD JUMP JUMPDEST SWAP2 POP DUP3 DUP3 DIV DUP5 EQ DUP4 ISZERO OR PUSH2 0xDEB JUMPI PUSH2 0xDEA PUSH2 0xBFF JUMP JUMPDEST JUMPDEST POP SWAP3 SWAP2 POP POP JUMP JUMPDEST PUSH32 0x4E487B7100000000000000000000000000000000000000000000000000000000 PUSH0 MSTORE PUSH1 0x12 PUSH1 0x4 MSTORE PUSH1 0x24 PUSH0 REVERT JUMPDEST PUSH0 PUSH2 0xE29 DUP3 PUSH2 0x9AD JUMP JUMPDEST SWAP2 POP PUSH2 0xE34 DUP4 PUSH2 0x9AD JUMP JUMPDEST SWAP3 POP DUP3 PUSH2 0xE44 JUMPI PUSH2 0xE43 PUSH2 0xDF2 JUMP JUMPDEST JUMPDEST DUP3 DUP3 DIV SWAP1 POP SWAP3 SWAP2 POP POP JUMP JUMPDEST PUSH0 PUSH2 0xE59 DUP3 PUSH2 0x9AD JUMP JUMPDEST SWAP2 POP PUSH2 0xE64 DUP4 PUSH2 0x9AD JUMP JUMPDEST SWAP3 POP DUP3 DUP3 SUB SWAP1 POP DUP2 DUP2 GT ISZERO PUSH2 0xE7C JUMPI PUSH2 0xE7B PUSH2 0xBFF JUMP JUMPDEST JUMPDEST SWAP3 SWAP2 POP POP JUMP JUMPDEST PUSH2 0xE8B DUP2 PUSH2 0x9AD JUMP JUMPDEST DUP3 MSTORE POP POP JUMP JUMPDEST PUSH0 PUSH1 0x20 DUP3 ADD SWAP1 POP PUSH2 0xEA4 PUSH0 DUP4 ADD DUP5 PUSH2 0xE82 JUMP JUMPDEST SWAP3 SWAP2 POP POP JUMP JUMPDEST PUSH0 DUP3 DUP3 MSTORE PUSH1 0x20 DUP3 ADD SWAP1 POP SWAP3 SWAP2 POP POP JUMP JUMPDEST PUSH32 0x5061757361626C653A2070617573656400000000000000000000000000000000 PUSH0 DUP3 ADD MSTORE POP JUMP JUMPDEST PUSH0 PUSH2 0xEEE PUSH1 0x10 DUP4 PUSH2 0xEAA JUMP JUMPDEST SWAP2 POP PUSH2 0xEF9 DUP3 PUSH2 0xEBA JUMP JUMPDEST PUSH1 0x20 DUP3 ADD SWAP1 POP SWAP2 SWAP1 POP JUMP JUMPDEST PUSH0 PUSH1 0x20 DUP3 ADD SWAP1 POP DUP2 DUP2 SUB PUSH0 DUP4 ADD MSTORE PUSH2 0xF1B DUP2 PUSH2 0xEE2 JUMP JUMPDEST SWAP1 POP SWAP2 SWAP1 POP JUMP JUMPDEST PUSH0 PUSH2 0xF2C DUP3 PUSH2 0x9AD JUMP JUMPDEST SWAP2 POP PUSH2 0xF37 DUP4 PUSH2 0x9AD JUMP JUMPDEST SWAP3 POP DUP3 DUP3 ADD SWAP1 POP DUP1 DUP3 GT ISZERO PUSH2 0xF4F JUMPI PUSH2 0xF4E PUSH2 0xBFF JUMP JUMPDEST JUMPDEST SWAP3 SWAP2 POP POP JUMP JUMPDEST PUSH0 PUSH1 0x60 DUP3 ADD SWAP1 POP PUSH2 0xF68 PUSH0 DUP4 ADD DUP7 PUSH2 0xBD7 JUMP JUMPDEST PUSH2 0xF75 PUSH1 0x20 DUP4 ADD DUP6 PUSH2 0xE82 JUMP JUMPDEST PUSH2 0xF82 PUSH1 0x40 DUP4 ADD DUP5 PUSH2 0xE82 JUMP JUMPDEST SWAP5 SWAP4 POP POP POP POP JUMP JUMPDEST PUSH2 0x18A7 DUP1 PUSH2 0xF97 PUSH0 CODECOPY PUSH0 RETURN INVALID PUSH1 0x80 PUSH1 0x40 MSTORE CALLVALUE DUP1 ISZERO PUSH2 0xF JUMPI PUSH0 PUSH0 REVERT JUMPDEST POP PUSH1 0x4 CALLDATASIZE LT PUSH2 0x12A JUMPI PUSH0 CALLDATALOAD PUSH1 0xE0 SHR DUP1 PUSH4 0x715018A6 GT PUSH2 0xAB JUMPI DUP1 PUSH4 0xC4081A4C GT PUSH2 0x6F JUMPI DUP1 PUSH4 0xC4081A4C EQ PUSH2 0x30E JUMPI DUP1 PUSH4 0xDD62ED3E EQ PUSH2 0x32A JUMPI DUP1 PUSH4 0xE499CC8B EQ PUSH2 0x35A JUMPI DUP1 PUSH4 0xEA414B28 EQ PUSH2 0x364 JUMPI DUP1 PUSH4 0xF2FDE38B EQ PUSH2 0x380 JUMPI PUSH2 0x12A JUMP JUMPDEST DUP1 PUSH4 0x715018A6 EQ PUSH2 0x27A JUMPI DUP1 PUSH4 0x8DA5CB5B EQ PUSH2 0x284 JUMPI DUP1 PUSH4 0x95D89B41 EQ PUSH2 0x2A2 JUMPI DUP1 PUSH4 0xA071DCF4 EQ PUSH2 0x2C0 JUMPI DUP1 PUSH4 0xA9059CBB EQ PUSH2 0x2DE JUMPI PUSH2 0x12A JUMP JUMPDEST DUP1 PUSH4 0x2DC0562D GT PUSH2 0xF2 JUMPI DUP1 PUSH4 0x2DC0562D EQ PUSH2 0x1D4 JUMPI DUP1 PUSH4 0x313CE567 EQ PUSH2 0x1F2 JUMPI DUP1 PUSH4 0x40C10F19 EQ PUSH2 0x210 JUMPI DUP1 PUSH4 0x5C975ABB EQ PUSH2 0x22C JUMPI DUP1 PUSH4 0x70A08231 EQ PUSH2 0x24A JUMPI PUSH2 0x12A JUMP JUMPDEST DUP1 PUSH4 0x6FDDE03 EQ PUSH2 0x12E JUMPI DUP1 PUSH4 0x95EA7B3 EQ PUSH2 0x14C JUMPI DUP1 PUSH4 0x18160DDD EQ PUSH2 0x17C JUMPI DUP1 PUSH4 0x23B872DD EQ PUSH2 0x19A JUMPI DUP1 PUSH4 0x297FC08F EQ PUSH2 0x1CA JUMPI JUMPDEST PUSH0 PUSH0 REVERT JUMPDEST PUSH2 0x136 PUSH2 0x39C JUMP JUMPDEST PUSH1 0x40 MLOAD PUSH2 0x143 SWAP2 SWAP1 PUSH2 0x12EC JUMP JUMPDEST PUSH1 0x40 MLOAD DUP1 SWAP2 SUB SWAP1 RETURN JUMPDEST PUSH2 0x166 PUSH1 0x4 DUP1 CALLDATASIZE SUB DUP2 ADD SWAP1 PUSH2 0x161 SWAP2 SWAP1 PUSH2 0x139D JUMP JUMPDEST PUSH2 0x42C JUMP JUMPDEST PUSH1 0x40 MLOAD PUSH2 0x173 SWAP2 SWAP1 PUSH2 0x13F5 JUMP JUMPDEST PUSH1 0x40 MLOAD DUP1 SWAP2 SUB SWAP1 RETURN JUMPDEST PUSH2 0x184 PUSH2 0x44E JUMP JUMPDEST PUSH1 0x40 MLOAD PUSH2 0x191 SWAP2 SWAP1 PUSH2 0x141D JUMP JUMPDEST PUSH1 0x40 MLOAD DUP1 SWAP2 SUB SWAP1 RETURN JUMPDEST PUSH2 0x1B4 PUSH1 0x4 DUP1 CALLDATASIZE SUB DUP2 ADD SWAP1 PUSH2 0x1AF SWAP2 SWAP1 PUSH2 0x1436 JUMP JUMPDEST PUSH2 0x457 JUMP JUMPDEST PUSH1 0x40 MLOAD PUSH2 0x1C1 SWAP2 SWAP1 PUSH2 0x13F5 JUMP JUMPDEST PUSH1 0x40 MLOAD DUP1 SWAP2 SUB SWAP1 RETURN JUMPDEST PUSH2 0x1D2 PUSH2 0x485 JUMP JUMPDEST STOP JUMPDEST PUSH2 0x1DC PUSH2 0x497 JUMP JUMPDEST PUSH1 0x40 MLOAD PUSH2 0x1E9 SWAP2 SWAP1 PUSH2 0x1495 JUMP JUMPDEST PUSH1 0x40 MLOAD DUP1 SWAP2 SUB SWAP1 RETURN JUMPDEST PUSH2 0x1FA PUSH2 0x4BC JUMP JUMPDEST PUSH1 0x40 MLOAD PUSH2 0x207 SWAP2 SWAP1 PUSH2 0x14C9 JUMP JUMPDEST PUSH1 0x40 MLOAD DUP1 SWAP2 SUB SWAP1 RETURN JUMPDEST PUSH2 0x22A PUSH1 0x4 DUP1 CALLDATASIZE SUB DUP2 ADD SWAP1 PUSH2 0x225 SWAP2 SWAP1 PUSH2 0x139D JUMP JUMPDEST PUSH2 0x4C4 JUMP JUMPDEST STOP JUMPDEST PUSH2 0x234 PUSH2 0x4DA JUMP JUMPDEST PUSH1 0x40 MLOAD PUSH2 0x241 SWAP2 SWAP1 PUSH2 0x13F5 JUMP JUMPDEST PUSH1 0x40 MLOAD DUP1 SWAP2 SUB SWAP1 RETURN JUMPDEST PUSH2 0x264 PUSH1 0x4 DUP1 CALLDATASIZE SUB DUP2 ADD SWAP1 PUSH2 0x25F SWAP2 SWAP1 PUSH2 0x14E2 JUMP JUMPDEST PUSH2 0x4F0 JUMP JUMPDEST PUSH1 0x40 MLOAD PUSH2 0x271 SWAP2 SWAP1 PUSH2 0x141D JUMP JUMPDEST PUSH1 0x40 MLOAD DUP1 SWAP2 SUB SWAP1 RETURN JUMPDEST PUSH2 0x282 PUSH2 0x535 JUMP JUMPDEST STOP JUMPDEST PUSH2 0x28C PUSH2 0x548 JUMP JUMPDEST PUSH1 0x40 MLOAD PUSH2 0x299 SWAP2 SWAP1 PUSH2 0x1495 JUMP JUMPDEST PUSH1 0x40 MLOAD DUP1 SWAP2 SUB SWAP1 RETURN JUMPDEST PUSH2 0x2AA PUSH2 0x570 JUMP JUMPDEST PUSH1 0x40 MLOAD PUSH2 0x2B7 SWAP2 SWAP1 PUSH2 0x12EC JUMP JUMPDEST PUSH1 0x40 MLOAD DUP1 SWAP2 SUB SWAP1 RETURN JUMPDEST PUSH2 0x2C8 PUSH2 0x600 JUMP JUMPDEST PUSH1 0x40 MLOAD PUSH2 0x2D5 SWAP2 SWAP1 PUSH2 0x141D JUMP JUMPDEST PUSH1 0x40 MLOAD DUP1 SWAP2 SUB SWAP1 RETURN JUMPDEST PUSH2 0x2F8 PUSH1 0x4 DUP1 CALLDATASIZE SUB DUP2 ADD SWAP1 PUSH2 0x2F3 SWAP2 SWAP1 PUSH2 0x139D JUMP JUMPDEST PUSH2 0x606 JUMP JUMPDEST PUSH1 0x40 MLOAD PUSH2 0x305 SWAP2 SWAP1 PUSH2 0x13F5 JUMP JUMPDEST PUSH1 0x40 MLOAD DUP1 SWAP2 SUB SWAP1 RETURN JUMPDEST PUSH2 0x328 PUSH1 0x4 DUP1 CALLDATASIZE SUB DUP2 ADD SWAP1 PUSH2 0x323 SWAP2 SWAP1 PUSH2 0x150D JUMP JUMPDEST PUSH2 0x628 JUMP JUMPDEST STOP JUMPDEST PUSH2 0x344 PUSH1 0x4 DUP1 CALLDATASIZE SUB DUP2 ADD SWAP1 PUSH2 0x33F SWAP2 SWAP1 PUSH2 0x1538 JUMP JUMPDEST PUSH2 0x6B5 JUMP JUMPDEST PUSH1 0x40 MLOAD PUSH2 0x351 SWAP2 SWAP1 PUSH2 0x141D JUMP JUMPDEST PUSH1 0x40 MLOAD DUP1 SWAP2 SUB SWAP1 RETURN JUMPDEST PUSH2 0x362 PUSH2 0x737 JUMP JUMPDEST STOP JUMPDEST PUSH2 0x37E PUSH1 0x4 DUP1 CALLDATASIZE SUB DUP2 ADD SWAP1 PUSH2 0x379 SWAP2 SWAP1 PUSH2 0x14E2 JUMP JUMPDEST PUSH2 0x749 JUMP JUMPDEST STOP JUMPDEST PUSH2 0x39A PUSH1 0x4 DUP1 CALLDATASIZE SUB DUP2 ADD SWAP1 PUSH2 0x395 SWAP2 SWAP1 PUSH2 0x14E2 JUMP JUMPDEST PUSH2 0x7D6 JUMP JUMPDEST STOP JUMPDEST PUSH1 0x60 PUSH1 0x3 DUP1 SLOAD PUSH2 0x3AB SWAP1 PUSH2 0x15A3 JUMP JUMPDEST DUP1 PUSH1 0x1F ADD PUSH1 0x20 DUP1 SWAP2 DIV MUL PUSH1 0x20 ADD PUSH1 0x40 MLOAD SWAP1 DUP2 ADD PUSH1 0x40 MSTORE DUP1 SWAP3 SWAP2 SWAP1 DUP2 DUP2 MSTORE PUSH1 0x20 ADD DUP3 DUP1 SLOAD PUSH2 0x3D7 SWAP1 PUSH2 0x15A3 JUMP JUMPDEST DUP1 ISZERO PUSH2 0x422 JUMPI DUP1 PUSH1 0x1F LT PUSH2 0x3F9 JUMPI PUSH2 0x100 DUP1 DUP4 SLOAD DIV MUL DUP4 MSTORE SWAP2 PUSH1 0x20 ADD SWAP2 PUSH2 0x422 JUMP JUMPDEST DUP3 ADD SWAP2 SWAP1 PUSH0 MSTORE PUSH1 0x20 PUSH0 KECCAK256 SWAP1 JUMPDEST DUP2 SLOAD DUP2 MSTORE SWAP1 PUSH1 0x1 ADD SWAP1 PUSH1 0x20 ADD DUP1 DUP4 GT PUSH2 0x405 JUMPI DUP3 SWAP1 SUB PUSH1 0x1F AND DUP3 ADD SWAP2 JUMPDEST POP POP POP POP POP SWAP1 POP SWAP1 JUMP JUMPDEST PUSH0 PUSH0 PUSH2 0x436 PUSH2 0x85A JUMP JUMPDEST SWAP1 POP PUSH2 0x443 DUP2 DUP6 DUP6 PUSH2 0x861 JUMP JUMPDEST PUSH1 0x1 SWAP2 POP POP SWAP3 SWAP2 POP POP JUMP JUMPDEST PUSH0 PUSH1 0x2 SLOAD SWAP1 POP SWAP1 JUMP JUMPDEST PUSH0 PUSH0 PUSH2 0x461 PUSH2 0x85A JUMP JUMPDEST SWAP1 POP PUSH2 0x46E DUP6 DUP3 DUP6 PUSH2 0x873 JUMP JUMPDEST PUSH2 0x479 DUP6 DUP6 DUP6 PUSH2 0x906 JUMP JUMPDEST PUSH1 0x1 SWAP2 POP POP SWAP4 SWAP3 POP POP POP JUMP JUMPDEST PUSH2 0x48D PUSH2 0x9F6 JUMP JUMPDEST PUSH2 0x495 PUSH2 0xA7D JUMP JUMPDEST JUMP JUMPDEST PUSH1 0x7 PUSH0 SWAP1 SLOAD SWAP1 PUSH2 0x100 EXP SWAP1 DIV PUSH20 0xFFFFFFFFFFFFFFFFFFFFFFFFFFFFFFFFFFFFFFFF AND DUP2 JUMP JUMPDEST PUSH0 PUSH1 0x12 SWAP1 POP SWAP1 JUMP JUMPDEST PUSH2 0x4CC PUSH2 0x9F6 JUMP JUMPDEST PUSH2 0x4D6 DUP3 DUP3 PUSH2 0xADF JUMP JUMPDEST POP POP JUMP JUMPDEST PUSH0 PUSH1 0x5 PUSH1 0x14 SWAP1 SLOAD SWAP1 PUSH2 0x100 EXP SWAP1 DIV PUSH1 0xFF AND SWAP1 POP SWAP1 JUMP JUMPDEST PUSH0 PUSH0 PUSH0 DUP4 PUSH20 0xFFFFFFFFFFFFFFFFFFFFFFFFFFFFFFFFFFFFFFFF AND PUSH20 0xFFFFFFFFFFFFFFFFFFFFFFFFFFFFFFFFFFFFFFFF AND DUP2 MSTORE PUSH1 0x20 ADD SWAP1 DUP2 MSTORE PUSH1 0x20 ADD PUSH0 KECCAK256 SLOAD SWAP1 POP SWAP2 SWAP1 POP JUMP JUMPDEST PUSH2 0x53D PUSH2 0x9F6 JUMP JUMPDEST PUSH2 0x546 PUSH0 PUSH2 0xB5E JUMP JUMPDEST JUMP JUMPDEST PUSH0 PUSH1 0x5 PUSH0 SWAP1 SLOAD SWAP1 PUSH2 0x100 EXP SWAP1 DIV PUSH20 0xFFFFFFFFFFFFFFFFFFFFFFFFFFFFFFFFFFFFFFFF AND SWAP1 POP SWAP1 JUMP JUMPDEST PUSH1 0x60 PUSH1 0x4 DUP1 SLOAD PUSH2 0x57F SWAP1 PUSH2 0x15A3 JUMP JUMPDEST DUP1 PUSH1 0x1F ADD PUSH1 0x20 DUP1 SWAP2 DIV MUL PUSH1 0x20 ADD PUSH1 0x40 MLOAD SWAP1 DUP2 ADD PUSH1 0x40 MSTORE DUP1 SWAP3 SWAP2 SWAP1 DUP2 DUP2 MSTORE PUSH1 0x20 ADD DUP3 DUP1 SLOAD PUSH2 0x5AB SWAP1 PUSH2 0x15A3 JUMP JUMPDEST DUP1 ISZERO PUSH2 0x5F6 JUMPI DUP1 PUSH1 0x1F LT PUSH2 0x5CD JUMPI PUSH2 0x100 DUP1 DUP4 SLOAD DIV MUL DUP4 MSTORE SWAP2 PUSH1 0x20 ADD SWAP2 PUSH2 0x5F6 JUMP JUMPDEST DUP3 ADD SWAP2 SWAP1 PUSH0 MSTORE PUSH1 0x20 PUSH0 KECCAK256 SWAP1 JUMPDEST DUP2 SLOAD DUP2 MSTORE SWAP1 PUSH1 0x1 ADD SWAP1 PUSH1 0x20 ADD DUP1 DUP4 GT PUSH2 0x5D9 JUMPI DUP3 SWAP1 SUB PUSH1 0x1F AND DUP3 ADD SWAP2 JUMPDEST POP POP POP POP POP SWAP1 POP SWAP1 JUMP JUMPDEST PUSH1 0x6 SLOAD DUP2 JUMP JUMPDEST PUSH0 PUSH0 PUSH2 0x610 PUSH2 0x85A JUMP JUMPDEST SWAP1 POP PUSH2 0x61D DUP2 DUP6 DUP6 PUSH2 0x906 JUMP JUMPDEST PUSH1 0x1 SWAP2 POP POP SWAP3 SWAP2 POP POP JUMP JUMPDEST PUSH2 0x630 PUSH2 0x9F6 JUMP JUMPDEST PUSH1 0xA DUP2 GT ISZERO PUSH2 0x674 JUMPI PUSH1 0x40 MLOAD PUSH32 0x8C379A000000000000000000000000000000000000000000000000000000000 DUP2 MSTORE PUSH1 0x4 ADD PUSH2 0x66B SWAP1 PUSH2 0x161D JUMP JUMPDEST PUSH1 0x40 MLOAD DUP1 SWAP2 SUB SWAP1 REVERT JUMPDEST DUP1 PUSH1 0x6 DUP2 SWAP1 SSTORE POP PUSH32 0x7FC0BC3C16857357FDCC6D787AB6AC15BE81359B9699C234FDCCE90765DF3894 DUP2 PUSH1 0x40 MLOAD PUSH2 0x6AA SWAP2 SWAP1 PUSH2 0x141D JUMP JUMPDEST PUSH1 0x40 MLOAD DUP1 SWAP2 SUB SWAP1 LOG1 POP JUMP JUMPDEST PUSH0 PUSH1 0x1 PUSH0 DUP5 PUSH20 0xFFFFFFFFFFFFFFFFFFFFFFFFFFFFFFFFFFFFFFFF AND PUSH20 0xFFFFFFFFFFFFFFFFFFFFFFFFFFFFFFFFFFFFFFFF AND DUP2 MSTORE PUSH1 0x20 ADD SWAP1 DUP2 MSTORE PUSH1 0x20 ADD PUSH0 KECCAK256 PUSH0 DUP4 PUSH20 0xFFFFFFFFFFFFFFFFFFFFFFFFFFFFFFFFFFFFFFFF AND PUSH20 0xFFFFFFFFFFFFFFFFFFFFFFFFFFFFFFFFFFFFFFFF AND DUP2 MSTORE PUSH1 0x20 ADD SWAP1 DUP2 MSTORE PUSH1 0x20 ADD PUSH0 KECCAK256 SLOAD SWAP1 POP SWAP3 SWAP2 POP POP JUMP JUMPDEST PUSH2 0x73F PUSH2 0x9F6 JUMP JUMPDEST PUSH2 0x747 PUSH2 0xC21 JUMP JUMPDEST JUMP JUMPDEST PUSH2 0x751 PUSH2 0x9F6 JUMP JUMPDEST DUP1 PUSH1 0x7 PUSH0 PUSH2 0x100 EXP DUP2 SLOAD DUP2 PUSH20 0xFFFFFFFFFFFFFFFFFFFFFFFFFFFFFFFFFFFFFFFF MUL NOT AND SWAP1 DUP4 PUSH20 0xFFFFFFFFFFFFFFFFFFFFFFFFFFFFFFFFFFFFFFFF AND MUL OR SWAP1 SSTORE POP DUP1 PUSH20 0xFFFFFFFFFFFFFFFFFFFFFFFFFFFFFFFFFFFFFFFF AND PUSH31 0xA263B61AAB5EBDCFF20C4C0C74C2589EA5AB52149ABDE19ECA17AD52217899 PUSH1 0x40 MLOAD PUSH1 0x40 MLOAD DUP1 SWAP2 SUB SWAP1 LOG2 POP JUMP JUMPDEST PUSH2 0x7DE PUSH2 0x9F6 JUMP JUMPDEST PUSH0 PUSH20 0xFFFFFFFFFFFFFFFFFFFFFFFFFFFFFFFFFFFFFFFF AND DUP2 PUSH20 0xFFFFFFFFFFFFFFFFFFFFFFFFFFFFFFFFFFFFFFFF AND SUB PUSH2 0x84E JUMPI PUSH0 PUSH1 0x40 MLOAD PUSH32 0x1E4FBDF700000000000000000000000000000000000000000000000000000000 DUP2 MSTORE PUSH1 0x4 ADD PUSH2 0x845 SWAP2 SWAP1 PUSH2 0x1495 JUMP JUMPDEST PUSH1 0x40 MLOAD DUP1 SWAP2 SUB SWAP1 REVERT JUMPDEST PUSH2 0x857 DUP2 PUSH2 0xB5E JUMP JUMPDEST POP JUMP JUMPDEST PUSH0 CALLER SWAP1 POP SWAP1 JUMP JUMPDEST PUSH2 0x86E DUP4 DUP4 DUP4 PUSH1 0x1 PUSH2 0xC84 JUMP JUMPDEST POP POP POP JUMP JUMPDEST PUSH0 PUSH2 0x87E DUP5 DUP5 PUSH2 0x6B5 JUMP JUMPDEST SWAP1 POP PUSH32 0xFFFFFFFFFFFFFFFFFFFFFFFFFFFFFFFFFFFFFFFFFFFFFFFFFFFFFFFFFFFFFFFF DUP2 LT ISZERO PUSH2 0x900 JUMPI DUP2 DUP2 LT ISZERO PUSH2 0x8F1 JUMPI DUP3 DUP2 DUP4 PUSH1 0x40 MLOAD PUSH32 0xFB8F41B200000000000000000000000000000000000000000000000000000000 DUP2 MSTORE PUSH1 0x4 ADD PUSH2 0x8E8 SWAP4 SWAP3 SWAP2 SWAP1 PUSH2 0x163B JUMP JUMPDEST PUSH1 0x40 MLOAD DUP1 SWAP2 SUB SWAP1 REVERT JUMPDEST PUSH2 0x8FF DUP5 DUP5 DUP5 DUP5 SUB PUSH0 PUSH2 0xC84 JUMP JUMPDEST JUMPDEST POP POP POP POP JUMP JUMPDEST PUSH0 PUSH20 0xFFFFFFFFFFFFFFFFFFFFFFFFFFFFFFFFFFFFFFFF AND DUP4 PUSH20 0xFFFFFFFFFFFFFFFFFFFFFFFFFFFFFFFFFFFFFFFF AND SUB PUSH2 0x976 JUMPI PUSH0 PUSH1 0x40 MLOAD PUSH32 0x96C6FD1E00000000000000000000000000000000000000000000000000000000 DUP2 MSTORE PUSH1 0x4 ADD PUSH2 0x96D SWAP2 SWAP1 PUSH2 0x1495 JUMP JUMPDEST PUSH1 0x40 MLOAD DUP1 SWAP2 SUB SWAP1 REVERT JUMPDEST PUSH0 PUSH20 0xFFFFFFFFFFFFFFFFFFFFFFFFFFFFFFFFFFFFFFFF AND DUP3 PUSH20 0xFFFFFFFFFFFFFFFFFFFFFFFFFFFFFFFFFFFFFFFF AND SUB PUSH2 0x9E6 JUMPI PUSH0 PUSH1 0x40 MLOAD PUSH32 0xEC442F0500000000000000000000000000000000000000000000000000000000 DUP2 MSTORE PUSH1 0x4 ADD PUSH2 0x9DD SWAP2 SWAP1 PUSH2 0x1495 JUMP JUMPDEST PUSH1 0x40 MLOAD DUP1 SWAP2 SUB SWAP1 REVERT JUMPDEST PUSH2 0x9F1 DUP4 DUP4 DUP4 PUSH2 0xE53 JUMP JUMPDEST POP POP POP JUMP JUMPDEST PUSH2 0x9FE PUSH2 0x85A JUMP JUMPDEST PUSH20 0xFFFFFFFFFFFFFFFFFFFFFFFFFFFFFFFFFFFFFFFF AND PUSH2 0xA1C PUSH2 0x548 JUMP JUMPDEST PUSH20 0xFFFFFFFFFFFFFFFFFFFFFFFFFFFFFFFFFFFFFFFF AND EQ PUSH2 0xA7B JUMPI PUSH2 0xA3F PUSH2 0x85A JUMP JUMPDEST PUSH1 0x40 MLOAD PUSH32 0x118CDAA700000000000000000000000000000000000000000000000000000000 DUP2 MSTORE PUSH1 0x4 ADD PUSH2 0xA72 SWAP2 SWAP1 PUSH2 0x1495 JUMP JUMPDEST PUSH1 0x40 MLOAD DUP1 SWAP2 SUB SWAP1 REVERT JUMPDEST JUMP JUMPDEST PUSH2 0xA85 PUSH2 0xFD0 JUMP JUMPDEST PUSH0 PUSH1 0x5 PUSH1 0x14 PUSH2 0x100 EXP DUP2 SLOAD DUP2 PUSH1 0xFF MUL NOT AND SWAP1 DUP4 ISZERO ISZERO MUL OR SWAP1 SSTORE POP PUSH32 0x5DB9EE0A495BF2E6FF9C91A7834C1BA4FDD244A5E8AA4E537BD38AEAE4B073AA PUSH2 0xAC8 PUSH2 0x85A JUMP JUMPDEST PUSH1 0x40 MLOAD PUSH2 0xAD5 SWAP2 SWAP1 PUSH2 0x1495 JUMP JUMPDEST PUSH1 0x40 MLOAD DUP1 SWAP2 SUB SWAP1 LOG1 JUMP JUMPDEST PUSH0 PUSH20 0xFFFFFFFFFFFFFFFFFFFFFFFFFFFFFFFFFFFFFFFF AND DUP3 PUSH20 0xFFFFFFFFFFFFFFFFFFFFFFFFFFFFFFFFFFFFFFFF AND SUB PUSH2 0xB4F JUMPI PUSH0 PUSH1 0x40 MLOAD PUSH32 0xEC442F0500000000000000000000000000000000000000000000000000000000 DUP2 MSTORE PUSH1 0x4 ADD PUSH2 0xB46 SWAP2 SWAP1 PUSH2 0x1495 JUMP JUMPDEST PUSH1 0x40 MLOAD DUP1 SWAP2 SUB SWAP1 REVERT JUMPDEST PUSH2 0xB5A PUSH0 DUP4 DUP4 PUSH2 0xE53 JUMP JUMPDEST POP POP JUMP JUMPDEST PUSH0 PUSH1 0x5 PUSH0 SWAP1 SLOAD SWAP1 PUSH2 0x100 EXP SWAP1 DIV PUSH20 0xFFFFFFFFFFFFFFFFFFFFFFFFFFFFFFFFFFFFFFFF AND SWAP1 POP DUP2 PUSH1 0x5 PUSH0 PUSH2 0x100 EXP DUP2 SLOAD DUP2 PUSH20 0xFFFFFFFFFFFFFFFFFFFFFFFFFFFFFFFFFFFFFFFF MUL NOT AND SWAP1 DUP4 PUSH20 0xFFFFFFFFFFFFFFFFFFFFFFFFFFFFFFFFFFFFFFFF AND MUL OR SWAP1 SSTORE POP DUP2 PUSH20 0xFFFFFFFFFFFFFFFFFFFFFFFFFFFFFFFFFFFFFFFF AND DUP2 PUSH20 0xFFFFFFFFFFFFFFFFFFFFFFFFFFFFFFFFFFFFFFFF AND PUSH32 0x8BE0079C531659141344CD1FD0A4F28419497F9722A3DAAFE3B4186F6B6457E0 PUSH1 0x40 MLOAD PUSH1 0x40 MLOAD DUP1 SWAP2 SUB SWAP1 LOG3 POP POP JUMP JUMPDEST PUSH2 0xC29 PUSH2 0x1019 JUMP JUMPDEST PUSH1 0x1 PUSH1 0x5 PUSH1 0x14 PUSH2 0x100 EXP DUP2 SLOAD DUP2 PUSH1 0xFF MUL NOT AND SWAP1 DUP4 ISZERO ISZERO MUL OR SWAP1 SSTORE POP PUSH32 0x62E78CEA01BEE320CD4E420270B5EA74000D11B0C9F74754EBDBFC544B05A258 PUSH2 0xC6D PUSH2 0x85A JUMP JUMPDEST PUSH1 0x40 MLOAD PUSH2 0xC7A SWAP2 SWAP1 PUSH2 0x1495 JUMP JUMPDEST PUSH1 0x40 MLOAD DUP1 SWAP2 SUB SWAP1 LOG1 JUMP JUMPDEST PUSH0 PUSH20 0xFFFFFFFFFFFFFFFFFFFFFFFFFFFFFFFFFFFFFFFF AND DUP5 PUSH20 0xFFFFFFFFFFFFFFFFFFFFFFFFFFFFFFFFFFFFFFFF AND SUB PUSH2 0xCF4 JUMPI PUSH0 PUSH1 0x40 MLOAD PUSH32 0xE602DF0500000000000000000000000000000000000000000000000000000000 DUP2 MSTORE PUSH1 0x4 ADD PUSH2 0xCEB SWAP2 SWAP1 PUSH2 0x1495 JUMP JUMPDEST PUSH1 0x40 MLOAD DUP1 SWAP2 SUB SWAP1 REVERT JUMPDEST PUSH0 PUSH20 0xFFFFFFFFFFFFFFFFFFFFFFFFFFFFFFFFFFFFFFFF AND DUP4 PUSH20 0xFFFFFFFFFFFFFFFFFFFFFFFFFFFFFFFFFFFFFFFF AND SUB PUSH2 0xD64 JUMPI PUSH0 PUSH1 0x40 MLOAD PUSH32 0x94280D6200000000000000000000000000000000000000000000000000000000 DUP2 MSTORE PUSH1 0x4 ADD PUSH2 0xD5B SWAP2 SWAP1 PUSH2 0x1495 JUMP JUMPDEST PUSH1 0x40 MLOAD DUP1 SWAP2 SUB SWAP1 REVERT JUMPDEST DUP2 PUSH1 0x1 PUSH0 DUP7 PUSH20 0xFFFFFFFFFFFFFFFFFFFFFFFFFFFFFFFFFFFFFFFF AND PUSH20 0xFFFFFFFFFFFFFFFFFFFFFFFFFFFFFFFFFFFFFFFF AND DUP2 MSTORE PUSH1 0x20 ADD SWAP1 DUP2 MSTORE PUSH1 0x20 ADD PUSH0 KECCAK256 PUSH0 DUP6 PUSH20 0xFFFFFFFFFFFFFFFFFFFFFFFFFFFFFFFFFFFFFFFF AND PUSH20 0xFFFFFFFFFFFFFFFFFFFFFFFFFFFFFFFFFFFFFFFF AND DUP2 MSTORE PUSH1 0x20 ADD SWAP1 DUP2 MSTORE PUSH1 0x20 ADD PUSH0 KECCAK256 DUP2 SWAP1 SSTORE POP DUP1 ISZERO PUSH2 0xE4D JUMPI DUP3 PUSH20 0xFFFFFFFFFFFFFFFFFFFFFFFFFFFFFFFFFFFFFFFF AND DUP5 PUSH20 0xFFFFFFFFFFFFFFFFFFFFFFFFFFFFFFFFFFFFFFFF AND PUSH32 0x8C5BE1E5EBEC7D5BD14F71427D1E84F3DD0314C0F7B2291E5B200AC8C7C3B925 DUP5 PUSH1 0x40 MLOAD PUSH2 0xE44 SWAP2 SWAP1 PUSH2 0x141D JUMP JUMPDEST PUSH1 0x40 MLOAD DUP1 SWAP2 SUB SWAP1 LOG3 JUMPDEST POP POP POP POP JUMP JUMPDEST PUSH2 0xE5B PUSH2 0x1019 JUMP JUMPDEST PUSH0 PUSH20 0xFFFFFFFFFFFFFFFFFFFFFFFFFFFFFFFFFFFFFFFF AND DUP4 PUSH20 0xFFFFFFFFFFFFFFFFFFFFFFFFFFFFFFFFFFFFFFFF AND EQ ISZERO DUP1 ISZERO PUSH2 0xEC3 JUMPI POP PUSH0 PUSH20 0xFFFFFFFFFFFFFFFFFFFFFFFFFFFFFFFFFFFFFFFF AND DUP3 PUSH20 0xFFFFFFFFFFFFFFFFFFFFFFFFFFFFFFFFFFFFFFFF AND EQ ISZERO JUMPDEST DUP1 ISZERO PUSH2 0xF02 JUMPI POP PUSH2 0xED2 PUSH2 0x548 JUMP JUMPDEST PUSH20 0xFFFFFFFFFFFFFFFFFFFFFFFFFFFFFFFFFFFFFFFF AND DUP4 PUSH20 0xFFFFFFFFFFFFFFFFFFFFFFFFFFFFFFFFFFFFFFFF AND EQ ISZERO JUMPDEST ISZERO PUSH2 0xFBF JUMPI PUSH0 PUSH1 0x64 PUSH1 0x6 SLOAD DUP4 PUSH2 0xF18 SWAP2 SWAP1 PUSH2 0x169D JUMP JUMPDEST PUSH2 0xF22 SWAP2 SWAP1 PUSH2 0x170B JUMP JUMPDEST SWAP1 POP PUSH0 DUP2 DUP4 PUSH2 0xF31 SWAP2 SWAP1 PUSH2 0x173B JUMP JUMPDEST SWAP1 POP PUSH2 0xF5F DUP6 PUSH1 0x7 PUSH0 SWAP1 SLOAD SWAP1 PUSH2 0x100 EXP SWAP1 DIV PUSH20 0xFFFFFFFFFFFFFFFFFFFFFFFFFFFFFFFFFFFFFFFF AND DUP5 PUSH2 0x1063 JUMP JUMPDEST PUSH2 0xF6A DUP6 DUP6 DUP4 PUSH2 0x1063 JUMP JUMPDEST DUP5 PUSH20 0xFFFFFFFFFFFFFFFFFFFFFFFFFFFFFFFFFFFFFFFF AND PUSH32 0x7F1B726F82F7A14636A7A5932448F1BCE683188520BA3150FD8423989353EBF2 DUP4 PUSH1 0x40 MLOAD PUSH2 0xFB0 SWAP2 SWAP1 PUSH2 0x141D JUMP JUMPDEST PUSH1 0x40 MLOAD DUP1 SWAP2 SUB SWAP1 LOG2 POP POP PUSH2 0xFCB JUMP JUMPDEST PUSH2 0xFCA DUP4 DUP4 DUP4 PUSH2 0x1063 JUMP JUMPDEST JUMPDEST POP POP POP JUMP JUMPDEST PUSH2 0xFD8 PUSH2 0x4DA JUMP JUMPDEST PUSH2 0x1017 JUMPI PUSH1 0x40 MLOAD PUSH32 0x8C379A000000000000000000000000000000000000000000000000000000000 DUP2 MSTORE PUSH1 0x4 ADD PUSH2 0x100E SWAP1 PUSH2 0x17B8 JUMP JUMPDEST PUSH1 0x40 MLOAD DUP1 SWAP2 SUB SWAP1 REVERT JUMPDEST JUMP JUMPDEST PUSH2 0x1021 PUSH2 0x4DA JUMP JUMPDEST ISZERO PUSH2 0x1061 JUMPI PUSH1 0x40 MLOAD PUSH32 0x8C379A000000000000000000000000000000000000000000000000000000000 DUP2 MSTORE PUSH1 0x4 ADD PUSH2 0x1058 SWAP1 PUSH2 0x1820 JUMP JUMPDEST PUSH1 0x40 MLOAD DUP1 SWAP2 SUB SWAP1 REVERT JUMPDEST JUMP JUMPDEST PUSH0 PUSH20 0xFFFFFFFFFFFFFFFFFFFFFFFFFFFFFFFFFFFFFFFF AND DUP4 PUSH20 0xFFFFFFFFFFFFFFFFFFFFFFFFFFFFFFFFFFFFFFFF AND SUB PUSH2 0x10B3 JUMPI DUP1 PUSH1 0x2 PUSH0 DUP3 DUP3 SLOAD PUSH2 0x10A7 SWAP2 SWAP1 PUSH2 0x183E JUMP JUMPDEST SWAP3 POP POP DUP2 SWAP1 SSTORE POP PUSH2 0x1181 JUMP JUMPDEST PUSH0 PUSH0 PUSH0 DUP6 PUSH20 0xFFFFFFFFFFFFFFFFFFFFFFFFFFFFFFFFFFFFFFFF AND PUSH20 0xFFFFFFFFFFFFFFFFFFFFFFFFFFFFFFFFFFFFFFFF AND DUP2 MSTORE PUSH1 0x20 ADD SWAP1 DUP2 MSTORE PUSH1 0x20 ADD PUSH0 KECCAK256 SLOAD SWAP1 POP DUP2 DUP2 LT ISZERO PUSH2 0x113C JUMPI DUP4 DUP2 DUP4 PUSH1 0x40 MLOAD PUSH32 0xE450D38C00000000000000000000000000000000000000000000000000000000 DUP2 MSTORE PUSH1 0x4 ADD PUSH2 0x1133 SWAP4 SWAP3 SWAP2 SWAP1 PUSH2 0x163B JUMP JUMPDEST PUSH1 0x40 MLOAD DUP1 SWAP2 SUB SWAP1 REVERT JUMPDEST DUP2 DUP2 SUB PUSH0 PUSH0 DUP7 PUSH20 0xFFFFFFFFFFFFFFFFFFFFFFFFFFFFFFFFFFFFFFFF AND PUSH20 0xFFFFFFFFFFFFFFFFFFFFFFFFFFFFFFFFFFFFFFFF AND DUP2 MSTORE PUSH1 0x20 ADD SWAP1 DUP2 MSTORE PUSH1 0x20 ADD PUSH0 KECCAK256 DUP2 SWAP1 SSTORE POP POP JUMPDEST PUSH0 PUSH20 0xFFFFFFFFFFFFFFFFFFFFFFFFFFFFFFFFFFFFFFFF AND DUP3 PUSH20 0xFFFFFFFFFFFFFFFFFFFFFFFFFFFFFFFFFFFFFFFF AND SUB PUSH2 0x11C8 JUMPI DUP1 PUSH1 0x2 PUSH0 DUP3 DUP3 SLOAD SUB SWAP3 POP POP DUP2 SWAP1 SSTORE POP PUSH2 0x1212 JUMP JUMPDEST DUP1 PUSH0 PUSH0 DUP5 PUSH20 0xFFFFFFFFFFFFFFFFFFFFFFFFFFFFFFFFFFFFFFFF AND PUSH20 0xFFFFFFFFFFFFFFFFFFFFFFFFFFFFFFFFFFFFFFFF AND DUP2 MSTORE PUSH1 0x20 ADD SWAP1 DUP2 MSTORE PUSH1 0x20 ADD PUSH0 KECCAK256 PUSH0 DUP3 DUP3 SLOAD ADD SWAP3 POP POP DUP2 SWAP1 SSTORE POP JUMPDEST DUP2 PUSH20 0xFFFFFFFFFFFFFFFFFFFFFFFFFFFFFFFFFFFFFFFF AND DUP4 PUSH20 0xFFFFFFFFFFFFFFFFFFFFFFFFFFFFFFFFFFFFFFFF AND PUSH32 0xDDF252AD1BE2C89B69C2B068FC378DAA952BA7F163C4A11628F55A4DF523B3EF DUP4 PUSH1 0x40 MLOAD PUSH2 0x126F SWAP2 SWAP1 PUSH2 0x141D JUMP JUMPDEST PUSH1 0x40 MLOAD DUP1 SWAP2 SUB SWAP1 LOG3 POP POP POP JUMP JUMPDEST PUSH0 DUP2 MLOAD SWAP1 POP SWAP2 SWAP1 POP JUMP JUMPDEST PUSH0 DUP3 DUP3 MSTORE PUSH1 0x20 DUP3 ADD SWAP1 POP SWAP3 SWAP2 POP POP JUMP JUMPDEST DUP3 DUP2 DUP4 MCOPY PUSH0 DUP4 DUP4 ADD MSTORE POP POP POP JUMP JUMPDEST PUSH0 PUSH1 0x1F NOT PUSH1 0x1F DUP4 ADD AND SWAP1 POP SWAP2 SWAP1 POP JUMP JUMPDEST PUSH0 PUSH2 0x12BE DUP3 PUSH2 0x127C JUMP JUMPDEST PUSH2 0x12C8 DUP2 DUP6 PUSH2 0x1286 JUMP JUMPDEST SWAP4 POP PUSH2 0x12D8 DUP2 DUP6 PUSH1 0x20 DUP7 ADD PUSH2 0x1296 JUMP JUMPDEST PUSH2 0x12E1 DUP2 PUSH2 0x12A4 JUMP JUMPDEST DUP5 ADD SWAP2 POP POP SWAP3 SWAP2 POP POP JUMP JUMPDEST PUSH0 PUSH1 0x20 DUP3 ADD SWAP1 POP DUP2 DUP2 SUB PUSH0 DUP4 ADD MSTORE PUSH2 0x1304 DUP2 DUP5 PUSH2 0x12B4 JUMP JUMPDEST SWAP1 POP SWAP3 SWAP2 POP POP JUMP JUMPDEST PUSH0 PUSH0 REVERT JUMPDEST PUSH0 PUSH20 0xFFFFFFFFFFFFFFFFFFFFFFFFFFFFFFFFFFFFFFFF DUP3 AND SWAP1 POP SWAP2 SWAP1 POP JUMP JUMPDEST PUSH0 PUSH2 0x1339 DUP3 PUSH2 0x1310 JUMP JUMPDEST SWAP1 POP SWAP2 SWAP1 POP JUMP JUMPDEST PUSH2 0x1349 DUP2 PUSH2 0x132F JUMP JUMPDEST DUP2 EQ PUSH2 0x1353 JUMPI PUSH0 PUSH0 REVERT JUMPDEST POP JUMP JUMPDEST PUSH0 DUP2 CALLDATALOAD SWAP1 POP PUSH2 0x1364 DUP2 PUSH2 0x1340 JUMP JUMPDEST SWAP3 SWAP2 POP POP JUMP JUMPDEST PUSH0 DUP2 SWAP1 POP SWAP2 SWAP1 POP JUMP JUMPDEST PUSH2 0x137C DUP2 PUSH2 0x136A JUMP JUMPDEST DUP2 EQ PUSH2 0x1386 JUMPI PUSH0 PUSH0 REVERT JUMPDEST POP JUMP JUMPDEST PUSH0 DUP2 CALLDATALOAD SWAP1 POP PUSH2 0x1397 DUP2 PUSH2 0x1373 JUMP JUMPDEST SWAP3 SWAP2 POP POP JUMP JUMPDEST PUSH0 PUSH0 PUSH1 0x40 DUP4 DUP6 SUB SLT ISZERO PUSH2 0x13B3 JUMPI PUSH2 0x13B2 PUSH2 0x130C JUMP JUMPDEST JUMPDEST PUSH0 PUSH2 0x13C0 DUP6 DUP3 DUP7 ADD PUSH2 0x1356 JUMP JUMPDEST SWAP3 POP POP PUSH1 0x20 PUSH2 0x13D1 DUP6 DUP3 DUP7 ADD PUSH2 0x1389 JUMP JUMPDEST SWAP2 POP POP SWAP3 POP SWAP3 SWAP1 POP JUMP JUMPDEST PUSH0 DUP2 ISZERO ISZERO SWAP1 POP SWAP2 SWAP1 POP JUMP JUMPDEST PUSH2 0x13EF DUP2 PUSH2 0x13DB JUMP JUMPDEST DUP3 MSTORE POP POP JUMP JUMPDEST PUSH0 PUSH1 0x20 DUP3 ADD SWAP1 POP PUSH2 0x1408 PUSH0 DUP4 ADD DUP5 PUSH2 0x13E6 JUMP JUMPDEST SWAP3 SWAP2 POP POP JUMP JUMPDEST PUSH2 0x1417 DUP2 PUSH2 0x136A JUMP JUMPDEST DUP3 MSTORE POP POP JUMP JUMPDEST PUSH0 PUSH1 0x20 DUP3 ADD SWAP1 POP PUSH2 0x1430 PUSH0 DUP4 ADD DUP5 PUSH2 0x140E JUMP JUMPDEST SWAP3 SWAP2 POP POP JUMP JUMPDEST PUSH0 PUSH0 PUSH0 PUSH1 0x60 DUP5 DUP7 SUB SLT ISZERO PUSH2 0x144D JUMPI PUSH2 0x144C PUSH2 0x130C JUMP JUMPDEST JUMPDEST PUSH0 PUSH2 0x145A DUP7 DUP3 DUP8 ADD PUSH2 0x1356 JUMP JUMPDEST SWAP4 POP POP PUSH1 0x20 PUSH2 0x146B DUP7 DUP3 DUP8 ADD PUSH2 0x1356 JUMP JUMPDEST SWAP3 POP POP PUSH1 0x40 PUSH2 0x147C DUP7 DUP3 DUP8 ADD PUSH2 0x1389 JUMP JUMPDEST SWAP2 POP POP SWAP3 POP SWAP3 POP SWAP3 JUMP JUMPDEST PUSH2 0x148F DUP2 PUSH2 0x132F JUMP JUMPDEST DUP3 MSTORE POP POP JUMP JUMPDEST PUSH0 PUSH1 0x20 DUP3 ADD SWAP1 POP PUSH2 0x14A8 PUSH0 DUP4 ADD DUP5 PUSH2 0x1486 JUMP JUMPDEST SWAP3 SWAP2 POP POP JUMP JUMPDEST PUSH0 PUSH1 0xFF DUP3 AND SWAP1 POP SWAP2 SWAP1 POP JUMP JUMPDEST PUSH2 0x14C3 DUP2 PUSH2 0x14AE JUMP JUMPDEST DUP3 MSTORE POP POP JUMP JUMPDEST PUSH0 PUSH1 0x20 DUP3 ADD SWAP1 POP PUSH2 0x14DC PUSH0 DUP4 ADD DUP5 PUSH2 0x14BA JUMP JUMPDEST SWAP3 SWAP2 POP POP JUMP JUMPDEST PUSH0 PUSH1 0x20 DUP3 DUP5 SUB SLT ISZERO PUSH2 0x14F7 JUMPI PUSH2 0x14F6 PUSH2 0x130C JUMP JUMPDEST JUMPDEST PUSH0 PUSH2 0x1504 DUP5 DUP3 DUP6 ADD PUSH2 0x1356 JUMP JUMPDEST SWAP2 POP POP SWAP3 SWAP2 POP POP JUMP JUMPDEST PUSH0 PUSH1 0x20 DUP3 DUP5 SUB SLT ISZERO PUSH2 0x1522 JUMPI PUSH2 0x1521 PUSH2 0x130C JUMP JUMPDEST JUMPDEST PUSH0 PUSH2 0x152F DUP5 DUP3 DUP6 ADD PUSH2 0x1389 JUMP JUMPDEST SWAP2 POP POP SWAP3 SWAP2 POP POP JUMP JUMPDEST PUSH0 PUSH0 PUSH1 0x40 DUP4 DUP6 SUB SLT ISZERO PUSH2 0x154E JUMPI PUSH2 0x154D PUSH2 0x130C JUMP JUMPDEST JUMPDEST PUSH0 PUSH2 0x155B DUP6 DUP3 DUP7 ADD PUSH2 0x1356 JUMP JUMPDEST SWAP3 POP POP PUSH1 0x20 PUSH2 0x156C DUP6 DUP3 DUP7 ADD PUSH2 0x1356 JUMP JUMPDEST SWAP2 POP POP SWAP3 POP SWAP3 SWAP1 POP JUMP JUMPDEST PUSH32 0x4E487B7100000000000000000000000000000000000000000000000000000000 PUSH0 MSTORE PUSH1 0x22 PUSH1 0x4 MSTORE PUSH1 0x24 PUSH0 REVERT JUMPDEST PUSH0 PUSH1 0x2 DUP3 DIV SWAP1 POP PUSH1 0x1 DUP3 AND DUP1 PUSH2 0x15BA JUMPI PUSH1 0x7F DUP3 AND SWAP2 POP JUMPDEST PUSH1 0x20 DUP3 LT DUP2 SUB PUSH2 0x15CD JUMPI PUSH2 0x15CC PUSH2 0x1576 JUMP JUMPDEST JUMPDEST POP SWAP2 SWAP1 POP JUMP JUMPDEST PUSH32 0x4D61782069732031302500000000000000000000000000000000000000000000 PUSH0 DUP3 ADD MSTORE POP JUMP JUMPDEST PUSH0 PUSH2 0x1607 PUSH1 0xA DUP4 PUSH2 0x1286 JUMP JUMPDEST SWAP2 POP PUSH2 0x1612 DUP3 PUSH2 0x15D3 JUMP JUMPDEST PUSH1 0x20 DUP3 ADD SWAP1 POP SWAP2 SWAP1 POP JUMP JUMPDEST PUSH0 PUSH1 0x20 DUP3 ADD SWAP1 POP DUP2 DUP2 SUB PUSH0 DUP4 ADD MSTORE PUSH2 0x1634 DUP2 PUSH2 0x15FB JUMP JUMPDEST SWAP1 POP SWAP2 SWAP1 POP JUMP JUMPDEST PUSH0 PUSH1 0x60 DUP3 ADD SWAP1 POP PUSH2 0x164E PUSH0 DUP4 ADD DUP7 PUSH2 0x1486 JUMP JUMPDEST PUSH2 0x165B PUSH1 0x20 DUP4 ADD DUP6 PUSH2 0x140E JUMP JUMPDEST PUSH2 0x1668 PUSH1 0x40 DUP4 ADD DUP5 PUSH2 0x140E JUMP JUMPDEST SWAP5 SWAP4 POP POP POP POP JUMP JUMPDEST PUSH32 0x4E487B7100000000000000000000000000000000000000000000000000000000 PUSH0 MSTORE PUSH1 0x11 PUSH1 0x4 MSTORE PUSH1 0x24 PUSH0 REVERT JUMPDEST PUSH0 PUSH2 0x16A7 DUP3 PUSH2 0x136A JUMP JUMPDEST SWAP2 POP PUSH2 0x16B2 DUP4 PUSH2 0x136A JUMP JUMPDEST SWAP3 POP DUP3 DUP3 MUL PUSH2 0x16C0 DUP2 PUSH2 0x136A JUMP JUMPDEST SWAP2 POP DUP3 DUP3 DIV DUP5 EQ DUP4 ISZERO OR PUSH2 0x16D7 JUMPI PUSH2 0x16D6 PUSH2 0x1670 JUMP JUMPDEST JUMPDEST POP SWAP3 SWAP2 POP POP JUMP JUMPDEST PUSH32 0x4E487B7100000000000000000000000000000000000000000000000000000000 PUSH0 MSTORE PUSH1 0x12 PUSH1 0x4 MSTORE PUSH1 0x24 PUSH0 REVERT JUMPDEST PUSH0 PUSH2 0x1715 DUP3 PUSH2 0x136A JUMP JUMPDEST SWAP2 POP PUSH2 0x1720 DUP4 PUSH2 0x136A JUMP JUMPDEST SWAP3 POP DUP3 PUSH2 0x1730 JUMPI PUSH2 0x172F PUSH2 0x16DE JUMP JUMPDEST JUMPDEST DUP3 DUP3 DIV SWAP1 POP SWAP3 SWAP2 POP POP JUMP JUMPDEST PUSH0 PUSH2 0x1745 DUP3 PUSH2 0x136A JUMP JUMPDEST SWAP2 POP PUSH2 0x1750 DUP4 PUSH2 0x136A JUMP JUMPDEST SWAP3 POP DUP3 DUP3 SUB SWAP1 POP DUP2 DUP2 GT ISZERO PUSH2 0x1768 JUMPI PUSH2 0x1767 PUSH2 0x1670 JUMP JUMPDEST JUMPDEST SWAP3 SWAP2 POP POP JUMP JUMPDEST PUSH32 0x5061757361626C653A206E6F7420706175736564000000000000000000000000 PUSH0 DUP3 ADD MSTORE POP JUMP JUMPDEST PUSH0 PUSH2 0x17A2 PUSH1 0x14 DUP4 PUSH2 0x1286 JUMP JUMPDEST SWAP2 POP PUSH2 0x17AD DUP3 PUSH2 0x176E JUMP JUMPDEST PUSH1 0x20 DUP3 ADD SWAP1 POP SWAP2 SWAP1 POP JUMP JUMPDEST PUSH0 PUSH1 0x20 DUP3 ADD SWAP1 POP DUP2 DUP2 SUB PUSH0 DUP4 ADD MSTORE PUSH2 0x17CF DUP2 PUSH2 0x1796 JUMP JUMPDEST SWAP1 POP SWAP2 SWAP1 POP JUMP JUMPDEST PUSH32 0x5061757361626C653A2070617573656400000000000000000000000000000000 PUSH0 DUP3 ADD MSTORE POP JUMP JUMPDEST PUSH0 PUSH2 0x180A PUSH1 0x10 DUP4 PUSH2 0x1286 JUMP JUMPDEST SWAP2 POP PUSH2 0x1815 DUP3 PUSH2 0x17D6 JUMP JUMPDEST PUSH1 0x20 DUP3 ADD SWAP1 POP SWAP2 SWAP1 POP JUMP JUMPDEST PUSH0 PUSH1 0x20 DUP3 ADD SWAP1 POP DUP2 DUP2 SUB PUSH0 DUP4 ADD MSTORE PUSH2 0x1837 DUP2 PUSH2 0x17FE JUMP JUMPDEST SWAP1 POP SWAP2 SWAP1 POP JUMP JUMPDEST PUSH0 PUSH2 0x1848 DUP3 PUSH2 0x136A JUMP JUMPDEST SWAP2 POP PUSH2 0x1853 DUP4 PUSH2 0x136A JUMP JUMPDEST SWAP3 POP DUP3 DUP3 ADD SWAP1 POP DUP1 DUP3 GT ISZERO PUSH2 0x186B JUMPI PUSH2 0x186A PUSH2 0x1670 JUMP JUMPDEST JUMPDEST SWAP3 SWAP2 POP POP JUMP INVALID LOG2 PUSH5 0x6970667358 0x22 SLT KECCAK256 0xA8 0xB3 PUSH31 0x6BCC112A09C266D19C35652113B8AC9E9EB12920B047A26C3366C0FD3A6473 PUSH16 0x6C634300081E00330000000000000000 "
				},
				"gasEstimates": {
					"creation": {
						"codeDepositCost": "1262200",
						"executionCost": "infinite",
						"totalCost": "infinite"
					},
					"external": {
						"allowance(address,address)": "infinite",
						"approve(address,uint256)": "infinite",
						"balanceOf(address)": "2939",
						"decimals()": "383",
						"mint(address,uint256)": "infinite",
						"name()": "infinite",
						"offContracts()": "infinite",
						"onContracts()": "infinite",
						"owner()": "2560",
						"paused()": "2613",
						"renounceOwnership()": "infinite",
						"setTaxFee(uint256)": "infinite",
						"setTaxWallet(address)": "infinite",
						"symbol()": "infinite",
						"taxFee()": "2514",
						"taxWallet()": "2531",
						"totalSupply()": "2500",
						"transfer(address,uint256)": "infinite",
						"transferFrom(address,address,uint256)": "infinite",
						"transferOwnership(address)": "infinite"
					},
					"internal": {
						"_update(address,address,uint256)": "infinite"
					}
				},
				"methodIdentifiers": {
					"allowance(address,address)": "dd62ed3e",
					"approve(address,uint256)": "095ea7b3",
					"balanceOf(address)": "70a08231",
					"decimals()": "313ce567",
					"mint(address,uint256)": "40c10f19",
					"name()": "06fdde03",
					"offContracts()": "e499cc8b",
					"onContracts()": "297fc08f",
					"owner()": "8da5cb5b",
					"paused()": "5c975abb",
					"renounceOwnership()": "715018a6",
					"setTaxFee(uint256)": "c4081a4c",
					"setTaxWallet(address)": "ea414b28",
					"symbol()": "95d89b41",
					"taxFee()": "a071dcf4",
					"taxWallet()": "2dc0562d",
					"totalSupply()": "18160ddd",
					"transfer(address,uint256)": "a9059cbb",
					"transferFrom(address,address,uint256)": "23b872dd",
					"transferOwnership(address)": "f2fde38b"
				}
			},
			"storageLayout": {
				"storage": [
					{
						"astId": 415,
						"contract": "contracts/Qandeel.sol:QandellToken",
						"label": "_balances",
						"offset": 0,
						"slot": "0",
						"type": "t_mapping(t_address,t_uint256)"
					},
					{
						"astId": 421,
						"contract": "contracts/Qandeel.sol:QandellToken",
						"label": "_allowances",
						"offset": 0,
						"slot": "1",
						"type": "t_mapping(t_address,t_mapping(t_address,t_uint256))"
					},
					{
						"astId": 423,
						"contract": "contracts/Qandeel.sol:QandellToken",
						"label": "_totalSupply",
						"offset": 0,
						"slot": "2",
						"type": "t_uint256"
					},
					{
						"astId": 425,
						"contract": "contracts/Qandeel.sol:QandellToken",
						"label": "_name",
						"offset": 0,
						"slot": "3",
						"type": "t_string_storage"
					},
					{
						"astId": 427,
						"contract": "contracts/Qandeel.sol:QandellToken",
						"label": "_symbol",
						"offset": 0,
						"slot": "4",
						"type": "t_string_storage"
					},
					{
						"astId": 8,
						"contract": "contracts/Qandeel.sol:QandellToken",
						"label": "_owner",
						"offset": 0,
						"slot": "5",
						"type": "t_address"
					},
					{
						"astId": 302,
						"contract": "contracts/Qandeel.sol:QandellToken",
						"label": "_paused",
						"offset": 20,
						"slot": "5",
						"type": "t_bool"
					},
					{
						"astId": 1069,
						"contract": "contracts/Qandeel.sol:QandellToken",
						"label": "taxFee",
						"offset": 0,
						"slot": "6",
						"type": "t_uint256"
					},
					{
						"astId": 1071,
						"contract": "contracts/Qandeel.sol:QandellToken",
						"label": "taxWallet",
						"offset": 0,
						"slot": "7",
						"type": "t_address"
					}
				],
				"types": {
					"t_address": {
						"encoding": "inplace",
						"label": "address",
						"numberOfBytes": "20"
					},
					"t_bool": {
						"encoding": "inplace",
						"label": "bool",
						"numberOfBytes": "1"
					},
					"t_mapping(t_address,t_mapping(t_address,t_uint256))": {
						"encoding": "mapping",
						"key": "t_address",
						"label": "mapping(address => mapping(address => uint256))",
						"numberOfBytes": "32",
						"value": "t_mapping(t_address,t_uint256)"
					},
					"t_mapping(t_address,t_uint256)": {
						"encoding": "mapping",
						"key": "t_address",
						"label": "mapping(address => uint256)",
						"numberOfBytes": "32",
						"value": "t_uint256"
					},
					"t_string_storage": {
						"encoding": "bytes",
						"label": "string",
						"numberOfBytes": "32"
					},
					"t_uint256": {
						"encoding": "inplace",
						"label": "uint256",
						"numberOfBytes": "32"
					}
				}
			},
			"userdoc": {
				"kind": "user",
				"methods": {},
				"version": 1
			}
		}
	}
}